{
	"Opciones/Eventos/Tipos de eventos/Gestion_tipos_evento.sol": {
		"tipos_evento": {
			"abi": [
				{
					"inputs": [
						{
							"internalType": "string",
							"name": "nombre",
							"type": "string"
						}
					],
					"name": "agregarTipoDeEvento",
					"outputs": [],
					"stateMutability": "nonpayable",
					"type": "function"
				},
				{
					"inputs": [
						{
							"internalType": "uint256",
							"name": "hash",
							"type": "uint256"
						}
					],
					"name": "eliminarTipoDeEvento",
					"outputs": [],
					"stateMutability": "nonpayable",
					"type": "function"
				},
				{
					"inputs": [
						{
							"internalType": "uint256",
							"name": "hash",
							"type": "uint256"
						}
					],
					"name": "hashANombreTipoDeEvento",
					"outputs": [
						{
							"internalType": "string",
							"name": "",
							"type": "string"
						}
					],
					"stateMutability": "view",
					"type": "function"
				},
				{
					"inputs": [
						{
							"internalType": "string",
							"name": "nombre",
							"type": "string"
						}
					],
					"name": "nombreAHashTipoDeEvento",
					"outputs": [
						{
							"internalType": "uint256",
							"name": "",
							"type": "uint256"
						}
					],
					"stateMutability": "view",
					"type": "function"
				}
			],
			"devdoc": {
				"kind": "dev",
				"methods": {},
				"version": 1
			},
			"evm": {
				"assembly": "    /* \"Opciones/Eventos/Tipos de eventos/Gestion_tipos_evento.sol\":98:914  contract tipos_evento is permisos {... */\n  mstore(0x40, 0x80)\n  callvalue\n  dup1\n  iszero\n  tag_1\n  jumpi\n  0x00\n  dup1\n  revert\ntag_1:\n  pop\n  dataSize(sub_0)\n  dup1\n  dataOffset(sub_0)\n  0x00\n  codecopy\n  0x00\n  return\nstop\n\nsub_0: assembly {\n        /* \"Opciones/Eventos/Tipos de eventos/Gestion_tipos_evento.sol\":98:914  contract tipos_evento is permisos {... */\n      mstore(0x40, 0x80)\n      callvalue\n      dup1\n      iszero\n      tag_1\n      jumpi\n      0x00\n      dup1\n      revert\n    tag_1:\n      pop\n      jumpi(tag_2, lt(calldatasize, 0x04))\n      shr(0xe0, calldataload(0x00))\n      dup1\n      0x53eaab32\n      eq\n      tag_3\n      jumpi\n      dup1\n      0x9c052302\n      eq\n      tag_4\n      jumpi\n      dup1\n      0xb708ed0c\n      eq\n      tag_5\n      jumpi\n      dup1\n      0xbeec35d7\n      eq\n      tag_6\n      jumpi\n    tag_2:\n      0x00\n      dup1\n      revert\n        /* \"Opciones/Eventos/Tipos de eventos/Gestion_tipos_evento.sol\":581:683  function hashANombreTipoDeEvento (uint hash) public view returns(string memory){return eventos[hash];} */\n    tag_3:\n      tag_7\n      0x04\n      dup1\n      calldatasize\n      sub\n      dup2\n      add\n      swap1\n      tag_8\n      swap2\n      swap1\n      tag_9\n      jump\t// in\n    tag_8:\n      tag_10\n      jump\t// in\n    tag_7:\n      mload(0x40)\n      tag_11\n      swap2\n      swap1\n      tag_12\n      jump\t// in\n    tag_11:\n      mload(0x40)\n      dup1\n      swap2\n      sub\n      swap1\n      return\n        /* \"Opciones/Eventos/Tipos de eventos/Gestion_tipos_evento.sol\":342:575  function agregarTipoDeEvento (string memory nombre) public {... */\n    tag_4:\n      tag_13\n      0x04\n      dup1\n      calldatasize\n      sub\n      dup2\n      add\n      swap1\n      tag_14\n      swap2\n      swap1\n      tag_15\n      jump\t// in\n    tag_14:\n      tag_16\n      jump\t// in\n    tag_13:\n      stop\n        /* \"Opciones/Eventos/Tipos de eventos/Gestion_tipos_evento.sol\":804:910  function eliminarTipoDeEvento (uint hash) public {delete evento_rev[eventos[hash]]; delete eventos[hash];} */\n    tag_5:\n      tag_17\n      0x04\n      dup1\n      calldatasize\n      sub\n      dup2\n      add\n      swap1\n      tag_18\n      swap2\n      swap1\n      tag_9\n      jump\t// in\n    tag_18:\n      tag_19\n      jump\t// in\n    tag_17:\n      stop\n        /* \"Opciones/Eventos/Tipos de eventos/Gestion_tipos_evento.sol\":689:798  function nombreAHashTipoDeEvento (string memory nombre) public view returns(uint){return evento_rev[nombre];} */\n    tag_6:\n      tag_20\n      0x04\n      dup1\n      calldatasize\n      sub\n      dup2\n      add\n      swap1\n      tag_21\n      swap2\n      swap1\n      tag_15\n      jump\t// in\n    tag_21:\n      tag_22\n      jump\t// in\n    tag_20:\n      mload(0x40)\n      tag_23\n      swap2\n      swap1\n      tag_24\n      jump\t// in\n    tag_23:\n      mload(0x40)\n      dup1\n      swap2\n      sub\n      swap1\n      return\n        /* \"Opciones/Eventos/Tipos de eventos/Gestion_tipos_evento.sol\":581:683  function hashANombreTipoDeEvento (uint hash) public view returns(string memory){return eventos[hash];} */\n    tag_10:\n        /* \"Opciones/Eventos/Tipos de eventos/Gestion_tipos_evento.sol\":646:659  string memory */\n      0x60\n        /* \"Opciones/Eventos/Tipos de eventos/Gestion_tipos_evento.sol\":668:675  eventos */\n      0x04\n        /* \"Opciones/Eventos/Tipos de eventos/Gestion_tipos_evento.sol\":668:681  eventos[hash] */\n      0x00\n        /* \"Opciones/Eventos/Tipos de eventos/Gestion_tipos_evento.sol\":676:680  hash */\n      dup4\n        /* \"Opciones/Eventos/Tipos de eventos/Gestion_tipos_evento.sol\":668:681  eventos[hash] */\n      dup2\n      mstore\n      0x20\n      add\n      swap1\n      dup2\n      mstore\n      0x20\n      add\n      0x00\n      keccak256\n        /* \"Opciones/Eventos/Tipos de eventos/Gestion_tipos_evento.sol\":661:681  return eventos[hash] */\n      dup1\n      sload\n      tag_26\n      swap1\n      tag_27\n      jump\t// in\n    tag_26:\n      dup1\n      0x1f\n      add\n      0x20\n      dup1\n      swap2\n      div\n      mul\n      0x20\n      add\n      mload(0x40)\n      swap1\n      dup2\n      add\n      0x40\n      mstore\n      dup1\n      swap3\n      swap2\n      swap1\n      dup2\n      dup2\n      mstore\n      0x20\n      add\n      dup3\n      dup1\n      sload\n      tag_28\n      swap1\n      tag_27\n      jump\t// in\n    tag_28:\n      dup1\n      iszero\n      tag_29\n      jumpi\n      dup1\n      0x1f\n      lt\n      tag_30\n      jumpi\n      0x0100\n      dup1\n      dup4\n      sload\n      div\n      mul\n      dup4\n      mstore\n      swap2\n      0x20\n      add\n      swap2\n      jump(tag_29)\n    tag_30:\n      dup3\n      add\n      swap2\n      swap1\n      0x00\n      mstore\n      keccak256(0x00, 0x20)\n      swap1\n    tag_31:\n      dup2\n      sload\n      dup2\n      mstore\n      swap1\n      0x01\n      add\n      swap1\n      0x20\n      add\n      dup1\n      dup4\n      gt\n      tag_31\n      jumpi\n      dup3\n      swap1\n      sub\n      0x1f\n      and\n      dup3\n      add\n      swap2\n    tag_29:\n      pop\n      pop\n      pop\n      pop\n      pop\n      swap1\n      pop\n        /* \"Opciones/Eventos/Tipos de eventos/Gestion_tipos_evento.sol\":581:683  function hashANombreTipoDeEvento (uint hash) public view returns(string memory){return eventos[hash];} */\n      swap2\n      swap1\n      pop\n      jump\t// out\n        /* \"Opciones/Eventos/Tipos de eventos/Gestion_tipos_evento.sol\":342:575  function agregarTipoDeEvento (string memory nombre) public {... */\n    tag_16:\n        /* \"Opciones/Eventos/Tipos de eventos/Gestion_tipos_evento.sol\":419:435  permisosCheck(1) */\n      tag_33\n        /* \"Opciones/Eventos/Tipos de eventos/Gestion_tipos_evento.sol\":433:434  1 */\n      0x01\n        /* \"Opciones/Eventos/Tipos de eventos/Gestion_tipos_evento.sol\":419:432  permisosCheck */\n      tag_34\n        /* \"Opciones/Eventos/Tipos de eventos/Gestion_tipos_evento.sol\":419:435  permisosCheck(1) */\n      jump\t// in\n    tag_33:\n        /* \"Opciones/Eventos/Tipos de eventos/Gestion_tipos_evento.sol\":411:436  require(permisosCheck(1)) */\n      tag_35\n      jumpi\n      0x00\n      dup1\n      revert\n    tag_35:\n        /* \"Opciones/Eventos/Tipos de eventos/Gestion_tipos_evento.sol\":446:455  uint hash */\n      0x00\n        /* \"Opciones/Eventos/Tipos de eventos/Gestion_tipos_evento.sol\":490:496  nombre */\n      dup2\n        /* \"Opciones/Eventos/Tipos de eventos/Gestion_tipos_evento.sol\":473:497  abi.encodePacked(nombre) */\n      add(0x20, mload(0x40))\n      tag_36\n      swap2\n      swap1\n      tag_37\n      jump\t// in\n    tag_36:\n      mload(0x40)\n      0x20\n      dup2\n      dup4\n      sub\n      sub\n      dup2\n      mstore\n      swap1\n      0x40\n      mstore\n        /* \"Opciones/Eventos/Tipos de eventos/Gestion_tipos_evento.sol\":463:498  keccak256(abi.encodePacked(nombre)) */\n      dup1\n      mload\n      swap1\n      0x20\n      add\n      keccak256\n        /* \"Opciones/Eventos/Tipos de eventos/Gestion_tipos_evento.sol\":458:499  uint(keccak256(abi.encodePacked(nombre))) */\n      0x00\n      shr\n        /* \"Opciones/Eventos/Tipos de eventos/Gestion_tipos_evento.sol\":446:499  uint hash = uint(keccak256(abi.encodePacked(nombre))) */\n      swap1\n      pop\n        /* \"Opciones/Eventos/Tipos de eventos/Gestion_tipos_evento.sol\":526:532  nombre */\n      dup2\n        /* \"Opciones/Eventos/Tipos de eventos/Gestion_tipos_evento.sol\":510:517  eventos */\n      0x04\n        /* \"Opciones/Eventos/Tipos de eventos/Gestion_tipos_evento.sol\":510:523  eventos[hash] */\n      0x00\n        /* \"Opciones/Eventos/Tipos de eventos/Gestion_tipos_evento.sol\":518:522  hash */\n      dup4\n        /* \"Opciones/Eventos/Tipos de eventos/Gestion_tipos_evento.sol\":510:523  eventos[hash] */\n      dup2\n      mstore\n      0x20\n      add\n      swap1\n      dup2\n      mstore\n      0x20\n      add\n      0x00\n      keccak256\n        /* \"Opciones/Eventos/Tipos de eventos/Gestion_tipos_evento.sol\":510:532  eventos[hash] = nombre */\n      swap1\n      dup1\n      mload\n      swap1\n      0x20\n      add\n      swap1\n      tag_38\n      swap3\n      swap2\n      swap1\n      tag_39\n      jump\t// in\n    tag_38:\n      pop\n        /* \"Opciones/Eventos/Tipos de eventos/Gestion_tipos_evento.sol\":564:568  hash */\n      dup1\n        /* \"Opciones/Eventos/Tipos de eventos/Gestion_tipos_evento.sol\":543:553  evento_rev */\n      0x05\n        /* \"Opciones/Eventos/Tipos de eventos/Gestion_tipos_evento.sol\":554:560  nombre */\n      dup4\n        /* \"Opciones/Eventos/Tipos de eventos/Gestion_tipos_evento.sol\":543:561  evento_rev[nombre] */\n      mload(0x40)\n      tag_40\n      swap2\n      swap1\n      tag_37\n      jump\t// in\n    tag_40:\n      swap1\n      dup2\n      mstore\n      0x20\n      add\n      mload(0x40)\n      dup1\n      swap2\n      sub\n      swap1\n      keccak256\n        /* \"Opciones/Eventos/Tipos de eventos/Gestion_tipos_evento.sol\":543:568  evento_rev[nombre] = hash */\n      dup2\n      swap1\n      sstore\n      pop\n        /* \"Opciones/Eventos/Tipos de eventos/Gestion_tipos_evento.sol\":401:575  {... */\n      pop\n        /* \"Opciones/Eventos/Tipos de eventos/Gestion_tipos_evento.sol\":342:575  function agregarTipoDeEvento (string memory nombre) public {... */\n      pop\n      jump\t// out\n        /* \"Opciones/Eventos/Tipos de eventos/Gestion_tipos_evento.sol\":804:910  function eliminarTipoDeEvento (uint hash) public {delete evento_rev[eventos[hash]]; delete eventos[hash];} */\n    tag_19:\n        /* \"Opciones/Eventos/Tipos de eventos/Gestion_tipos_evento.sol\":861:871  evento_rev */\n      0x05\n        /* \"Opciones/Eventos/Tipos de eventos/Gestion_tipos_evento.sol\":872:879  eventos */\n      0x04\n        /* \"Opciones/Eventos/Tipos de eventos/Gestion_tipos_evento.sol\":872:885  eventos[hash] */\n      0x00\n        /* \"Opciones/Eventos/Tipos de eventos/Gestion_tipos_evento.sol\":880:884  hash */\n      dup4\n        /* \"Opciones/Eventos/Tipos de eventos/Gestion_tipos_evento.sol\":872:885  eventos[hash] */\n      dup2\n      mstore\n      0x20\n      add\n      swap1\n      dup2\n      mstore\n      0x20\n      add\n      0x00\n      keccak256\n        /* \"Opciones/Eventos/Tipos de eventos/Gestion_tipos_evento.sol\":861:886  evento_rev[eventos[hash]] */\n      mload(0x40)\n      tag_42\n      swap2\n      swap1\n      tag_43\n      jump\t// in\n    tag_42:\n      swap1\n      dup2\n      mstore\n      0x20\n      add\n      mload(0x40)\n      dup1\n      swap2\n      sub\n      swap1\n      keccak256\n        /* \"Opciones/Eventos/Tipos de eventos/Gestion_tipos_evento.sol\":854:886  delete evento_rev[eventos[hash]] */\n      0x00\n      swap1\n      sstore\n        /* \"Opciones/Eventos/Tipos de eventos/Gestion_tipos_evento.sol\":895:902  eventos */\n      0x04\n        /* \"Opciones/Eventos/Tipos de eventos/Gestion_tipos_evento.sol\":895:908  eventos[hash] */\n      0x00\n        /* \"Opciones/Eventos/Tipos de eventos/Gestion_tipos_evento.sol\":903:907  hash */\n      dup3\n        /* \"Opciones/Eventos/Tipos de eventos/Gestion_tipos_evento.sol\":895:908  eventos[hash] */\n      dup2\n      mstore\n      0x20\n      add\n      swap1\n      dup2\n      mstore\n      0x20\n      add\n      0x00\n      keccak256\n      0x00\n        /* \"Opciones/Eventos/Tipos de eventos/Gestion_tipos_evento.sol\":888:908  delete eventos[hash] */\n      tag_44\n      swap2\n      swap1\n      tag_45\n      jump\t// in\n    tag_44:\n        /* \"Opciones/Eventos/Tipos de eventos/Gestion_tipos_evento.sol\":804:910  function eliminarTipoDeEvento (uint hash) public {delete evento_rev[eventos[hash]]; delete eventos[hash];} */\n      pop\n      jump\t// out\n        /* \"Opciones/Eventos/Tipos de eventos/Gestion_tipos_evento.sol\":689:798  function nombreAHashTipoDeEvento (string memory nombre) public view returns(uint){return evento_rev[nombre];} */\n    tag_22:\n        /* \"Opciones/Eventos/Tipos de eventos/Gestion_tipos_evento.sol\":765:769  uint */\n      0x00\n        /* \"Opciones/Eventos/Tipos de eventos/Gestion_tipos_evento.sol\":778:788  evento_rev */\n      0x05\n        /* \"Opciones/Eventos/Tipos de eventos/Gestion_tipos_evento.sol\":789:795  nombre */\n      dup3\n        /* \"Opciones/Eventos/Tipos de eventos/Gestion_tipos_evento.sol\":778:796  evento_rev[nombre] */\n      mload(0x40)\n      tag_47\n      swap2\n      swap1\n      tag_37\n      jump\t// in\n    tag_47:\n      swap1\n      dup2\n      mstore\n      0x20\n      add\n      mload(0x40)\n      dup1\n      swap2\n      sub\n      swap1\n      keccak256\n      sload\n        /* \"Opciones/Eventos/Tipos de eventos/Gestion_tipos_evento.sol\":771:796  return evento_rev[nombre] */\n      swap1\n      pop\n        /* \"Opciones/Eventos/Tipos de eventos/Gestion_tipos_evento.sol\":689:798  function nombreAHashTipoDeEvento (string memory nombre) public view returns(uint){return evento_rev[nombre];} */\n      swap2\n      swap1\n      pop\n      jump\t// out\n        /* \"Opciones/Gestion_De_Permisos.sol\":438:823  function permisosCheck(uint level) internal view returns(bool){... */\n    tag_34:\n        /* \"Opciones/Gestion_De_Permisos.sol\":495:499  bool */\n      0x00\n        /* \"Opciones/Gestion_De_Permisos.sol\":523:524  0 */\n      dup1\n        /* \"Opciones/Gestion_De_Permisos.sol\":514:519  level */\n      dup3\n        /* \"Opciones/Gestion_De_Permisos.sol\":514:524  level == 0 */\n      eq\n        /* \"Opciones/Gestion_De_Permisos.sol\":510:793  if (level == 0) {return true;}... */\n      iszero\n      tag_49\n      jumpi\n        /* \"Opciones/Gestion_De_Permisos.sol\":534:538  true */\n      0x01\n        /* \"Opciones/Gestion_De_Permisos.sol\":527:538  return true */\n      swap1\n      pop\n      jump(tag_48)\n        /* \"Opciones/Gestion_De_Permisos.sol\":510:793  if (level == 0) {return true;}... */\n    tag_49:\n        /* \"Opciones/Gestion_De_Permisos.sol\":567:568  1 */\n      0x01\n        /* \"Opciones/Gestion_De_Permisos.sol\":558:563  level */\n      dup3\n        /* \"Opciones/Gestion_De_Permisos.sol\":558:568  level == 1 */\n      eq\n        /* \"Opciones/Gestion_De_Permisos.sol\":554:793  if (level == 1) { return isAddressPresent(msg.sender, permiso_mod); } ... */\n      iszero\n      tag_51\n      jumpi\n        /* \"Opciones/Gestion_De_Permisos.sol\":579:620  isAddressPresent(msg.sender, permiso_mod) */\n      tag_52\n        /* \"Opciones/Gestion_De_Permisos.sol\":596:606  msg.sender */\n      caller\n        /* \"Opciones/Gestion_De_Permisos.sol\":608:619  permiso_mod */\n      0x00\n        /* \"Opciones/Gestion_De_Permisos.sol\":579:620  isAddressPresent(msg.sender, permiso_mod) */\n      dup1\n      sload\n      dup1\n      0x20\n      mul\n      0x20\n      add\n      mload(0x40)\n      swap1\n      dup2\n      add\n      0x40\n      mstore\n      dup1\n      swap3\n      swap2\n      swap1\n      dup2\n      dup2\n      mstore\n      0x20\n      add\n      dup3\n      dup1\n      sload\n      dup1\n      iszero\n      tag_53\n      jumpi\n      0x20\n      mul\n      dup3\n      add\n      swap2\n      swap1\n      0x00\n      mstore\n      keccak256(0x00, 0x20)\n      swap1\n    tag_54:\n      dup2\n      0x00\n      swap1\n      sload\n      swap1\n      0x0100\n      exp\n      swap1\n      div\n      0xffffffffffffffffffffffffffffffffffffffff\n      and\n      0xffffffffffffffffffffffffffffffffffffffff\n      and\n      dup2\n      mstore\n      0x20\n      add\n      swap1\n      0x01\n      add\n      swap1\n      dup1\n      dup4\n      gt\n      tag_54\n      jumpi\n    tag_53:\n      pop\n      pop\n      pop\n      pop\n      pop\n        /* \"Opciones/Gestion_De_Permisos.sol\":579:595  isAddressPresent */\n      tag_55\n        /* \"Opciones/Gestion_De_Permisos.sol\":579:620  isAddressPresent(msg.sender, permiso_mod) */\n      jump\t// in\n    tag_52:\n        /* \"Opciones/Gestion_De_Permisos.sol\":572:620  return isAddressPresent(msg.sender, permiso_mod) */\n      swap1\n      pop\n      jump(tag_48)\n        /* \"Opciones/Gestion_De_Permisos.sol\":554:793  if (level == 1) { return isAddressPresent(msg.sender, permiso_mod); } ... */\n    tag_51:\n        /* \"Opciones/Gestion_De_Permisos.sol\":651:652  2 */\n      0x02\n        /* \"Opciones/Gestion_De_Permisos.sol\":642:647  level */\n      dup3\n        /* \"Opciones/Gestion_De_Permisos.sol\":642:652  level == 2 */\n      eq\n        /* \"Opciones/Gestion_De_Permisos.sol\":638:793  if (level == 2) { return isAddressPresent(msg.sender, permiso_agend); } ... */\n      iszero\n      tag_57\n      jumpi\n        /* \"Opciones/Gestion_De_Permisos.sol\":663:706  isAddressPresent(msg.sender, permiso_agend) */\n      tag_58\n        /* \"Opciones/Gestion_De_Permisos.sol\":680:690  msg.sender */\n      caller\n        /* \"Opciones/Gestion_De_Permisos.sol\":692:705  permiso_agend */\n      0x01\n        /* \"Opciones/Gestion_De_Permisos.sol\":663:706  isAddressPresent(msg.sender, permiso_agend) */\n      dup1\n      sload\n      dup1\n      0x20\n      mul\n      0x20\n      add\n      mload(0x40)\n      swap1\n      dup2\n      add\n      0x40\n      mstore\n      dup1\n      swap3\n      swap2\n      swap1\n      dup2\n      dup2\n      mstore\n      0x20\n      add\n      dup3\n      dup1\n      sload\n      dup1\n      iszero\n      tag_59\n      jumpi\n      0x20\n      mul\n      dup3\n      add\n      swap2\n      swap1\n      0x00\n      mstore\n      keccak256(0x00, 0x20)\n      swap1\n    tag_60:\n      dup2\n      0x00\n      swap1\n      sload\n      swap1\n      0x0100\n      exp\n      swap1\n      div\n      0xffffffffffffffffffffffffffffffffffffffff\n      and\n      0xffffffffffffffffffffffffffffffffffffffff\n      and\n      dup2\n      mstore\n      0x20\n      add\n      swap1\n      0x01\n      add\n      swap1\n      dup1\n      dup4\n      gt\n      tag_60\n      jumpi\n    tag_59:\n      pop\n      pop\n      pop\n      pop\n      pop\n        /* \"Opciones/Gestion_De_Permisos.sol\":663:679  isAddressPresent */\n      tag_55\n        /* \"Opciones/Gestion_De_Permisos.sol\":663:706  isAddressPresent(msg.sender, permiso_agend) */\n      jump\t// in\n    tag_58:\n        /* \"Opciones/Gestion_De_Permisos.sol\":656:706  return isAddressPresent(msg.sender, permiso_agend) */\n      swap1\n      pop\n      jump(tag_48)\n        /* \"Opciones/Gestion_De_Permisos.sol\":638:793  if (level == 2) { return isAddressPresent(msg.sender, permiso_agend); } ... */\n    tag_57:\n        /* \"Opciones/Gestion_De_Permisos.sol\":737:738  3 */\n      0x03\n        /* \"Opciones/Gestion_De_Permisos.sol\":728:733  level */\n      dup3\n        /* \"Opciones/Gestion_De_Permisos.sol\":728:738  level == 3 */\n      eq\n        /* \"Opciones/Gestion_De_Permisos.sol\":724:793  if (level == 3) { return isAddressPresent(msg.sender, permiso_ver); } */\n      iszero\n      tag_62\n      jumpi\n        /* \"Opciones/Gestion_De_Permisos.sol\":749:790  isAddressPresent(msg.sender, permiso_ver) */\n      tag_63\n        /* \"Opciones/Gestion_De_Permisos.sol\":766:776  msg.sender */\n      caller\n        /* \"Opciones/Gestion_De_Permisos.sol\":778:789  permiso_ver */\n      0x02\n        /* \"Opciones/Gestion_De_Permisos.sol\":749:790  isAddressPresent(msg.sender, permiso_ver) */\n      dup1\n      sload\n      dup1\n      0x20\n      mul\n      0x20\n      add\n      mload(0x40)\n      swap1\n      dup2\n      add\n      0x40\n      mstore\n      dup1\n      swap3\n      swap2\n      swap1\n      dup2\n      dup2\n      mstore\n      0x20\n      add\n      dup3\n      dup1\n      sload\n      dup1\n      iszero\n      tag_64\n      jumpi\n      0x20\n      mul\n      dup3\n      add\n      swap2\n      swap1\n      0x00\n      mstore\n      keccak256(0x00, 0x20)\n      swap1\n    tag_65:\n      dup2\n      0x00\n      swap1\n      sload\n      swap1\n      0x0100\n      exp\n      swap1\n      div\n      0xffffffffffffffffffffffffffffffffffffffff\n      and\n      0xffffffffffffffffffffffffffffffffffffffff\n      and\n      dup2\n      mstore\n      0x20\n      add\n      swap1\n      0x01\n      add\n      swap1\n      dup1\n      dup4\n      gt\n      tag_65\n      jumpi\n    tag_64:\n      pop\n      pop\n      pop\n      pop\n      pop\n        /* \"Opciones/Gestion_De_Permisos.sol\":749:765  isAddressPresent */\n      tag_55\n        /* \"Opciones/Gestion_De_Permisos.sol\":749:790  isAddressPresent(msg.sender, permiso_ver) */\n      jump\t// in\n    tag_63:\n        /* \"Opciones/Gestion_De_Permisos.sol\":742:790  return isAddressPresent(msg.sender, permiso_ver) */\n      swap1\n      pop\n      jump(tag_48)\n        /* \"Opciones/Gestion_De_Permisos.sol\":724:793  if (level == 3) { return isAddressPresent(msg.sender, permiso_ver); } */\n    tag_62:\n        /* \"Opciones/Gestion_De_Permisos.sol\":811:816  false */\n      0x00\n        /* \"Opciones/Gestion_De_Permisos.sol\":804:816  return false */\n      swap1\n      pop\n        /* \"Opciones/Gestion_De_Permisos.sol\":438:823  function permisosCheck(uint level) internal view returns(bool){... */\n    tag_48:\n      swap2\n      swap1\n      pop\n      jump\t// out\n        /* \"Opciones/Basical_operations.sol\":167:439  function isAddressPresent (address toFind, address[] memory toCheck) internal pure returns(bool){... */\n    tag_55:\n        /* \"Opciones/Basical_operations.sol\":258:262  bool */\n      0x00\n        /* \"Opciones/Basical_operations.sol\":279:285  uint i */\n      dup1\n        /* \"Opciones/Basical_operations.sol\":288:289  0 */\n      0x00\n        /* \"Opciones/Basical_operations.sol\":279:289  uint i = 0 */\n      swap1\n      pop\n        /* \"Opciones/Basical_operations.sol\":274:410  for (uint i = 0; i < toCheck.length; i++) {... */\n    tag_67:\n        /* \"Opciones/Basical_operations.sol\":295:302  toCheck */\n      dup3\n        /* \"Opciones/Basical_operations.sol\":295:309  toCheck.length */\n      mload\n        /* \"Opciones/Basical_operations.sol\":291:292  i */\n      dup2\n        /* \"Opciones/Basical_operations.sol\":291:309  i < toCheck.length */\n      lt\n        /* \"Opciones/Basical_operations.sol\":274:410  for (uint i = 0; i < toCheck.length; i++) {... */\n      iszero\n      tag_68\n      jumpi\n        /* \"Opciones/Basical_operations.sol\":348:354  toFind */\n      dup4\n        /* \"Opciones/Basical_operations.sol\":334:354  toCheck[i] == toFind */\n      0xffffffffffffffffffffffffffffffffffffffff\n      and\n        /* \"Opciones/Basical_operations.sol\":334:341  toCheck */\n      dup4\n        /* \"Opciones/Basical_operations.sol\":342:343  i */\n      dup3\n        /* \"Opciones/Basical_operations.sol\":334:344  toCheck[i] */\n      dup2\n      mload\n      dup2\n      lt\n      tag_70\n      jumpi\n      tag_71\n      tag_72\n      jump\t// in\n    tag_71:\n    tag_70:\n      0x20\n      mul\n      0x20\n      add\n      add\n      mload\n        /* \"Opciones/Basical_operations.sol\":334:354  toCheck[i] == toFind */\n      0xffffffffffffffffffffffffffffffffffffffff\n      and\n      eq\n        /* \"Opciones/Basical_operations.sol\":330:400  if (toCheck[i] == toFind) {... */\n      iszero\n      tag_73\n      jumpi\n        /* \"Opciones/Basical_operations.sol\":381:385  true */\n      0x01\n        /* \"Opciones/Basical_operations.sol\":374:385  return true */\n      swap2\n      pop\n      pop\n      jump(tag_66)\n        /* \"Opciones/Basical_operations.sol\":330:400  if (toCheck[i] == toFind) {... */\n    tag_73:\n        /* \"Opciones/Basical_operations.sol\":311:314  i++ */\n      dup1\n      dup1\n      tag_74\n      swap1\n      tag_75\n      jump\t// in\n    tag_74:\n      swap2\n      pop\n      pop\n        /* \"Opciones/Basical_operations.sol\":274:410  for (uint i = 0; i < toCheck.length; i++) {... */\n      jump(tag_67)\n    tag_68:\n      pop\n        /* \"Opciones/Basical_operations.sol\":426:431  false */\n      0x00\n        /* \"Opciones/Basical_operations.sol\":419:431  return false */\n      swap1\n      pop\n        /* \"Opciones/Basical_operations.sol\":167:439  function isAddressPresent (address toFind, address[] memory toCheck) internal pure returns(bool){... */\n    tag_66:\n      swap3\n      swap2\n      pop\n      pop\n      jump\t// out\n    tag_39:\n      dup3\n      dup1\n      sload\n      tag_76\n      swap1\n      tag_27\n      jump\t// in\n    tag_76:\n      swap1\n      0x00\n      mstore\n      keccak256(0x00, 0x20)\n      swap1\n      0x1f\n      add\n      0x20\n      swap1\n      div\n      dup2\n      add\n      swap3\n      dup3\n      tag_78\n      jumpi\n      0x00\n      dup6\n      sstore\n      jump(tag_77)\n    tag_78:\n      dup3\n      0x1f\n      lt\n      tag_79\n      jumpi\n      dup1\n      mload\n      not(0xff)\n      and\n      dup4\n      dup1\n      add\n      or\n      dup6\n      sstore\n      jump(tag_77)\n    tag_79:\n      dup3\n      dup1\n      add\n      0x01\n      add\n      dup6\n      sstore\n      dup3\n      iszero\n      tag_77\n      jumpi\n      swap2\n      dup3\n      add\n    tag_80:\n      dup3\n      dup2\n      gt\n      iszero\n      tag_81\n      jumpi\n      dup3\n      mload\n      dup3\n      sstore\n      swap2\n      0x20\n      add\n      swap2\n      swap1\n      0x01\n      add\n      swap1\n      jump(tag_80)\n    tag_81:\n    tag_77:\n      pop\n      swap1\n      pop\n      tag_82\n      swap2\n      swap1\n      tag_83\n      jump\t// in\n    tag_82:\n      pop\n      swap1\n      jump\t// out\n    tag_45:\n      pop\n      dup1\n      sload\n      tag_84\n      swap1\n      tag_27\n      jump\t// in\n    tag_84:\n      0x00\n      dup3\n      sstore\n      dup1\n      0x1f\n      lt\n      tag_86\n      jumpi\n      pop\n      jump(tag_85)\n    tag_86:\n      0x1f\n      add\n      0x20\n      swap1\n      div\n      swap1\n      0x00\n      mstore\n      keccak256(0x00, 0x20)\n      swap1\n      dup2\n      add\n      swap1\n      tag_87\n      swap2\n      swap1\n      tag_83\n      jump\t// in\n    tag_87:\n    tag_85:\n      pop\n      jump\t// out\n    tag_83:\n    tag_88:\n      dup1\n      dup3\n      gt\n      iszero\n      tag_89\n      jumpi\n      0x00\n      dup2\n      0x00\n      swap1\n      sstore\n      pop\n      0x01\n      add\n      jump(tag_88)\n    tag_89:\n      pop\n      swap1\n      jump\t// out\n        /* \"#utility.yul\":7:419   */\n    tag_91:\n        /* \"#utility.yul\":85:90   */\n      0x00\n        /* \"#utility.yul\":110:176   */\n      tag_93\n        /* \"#utility.yul\":126:175   */\n      tag_94\n        /* \"#utility.yul\":168:174   */\n      dup5\n        /* \"#utility.yul\":126:175   */\n      tag_95\n      jump\t// in\n    tag_94:\n        /* \"#utility.yul\":110:176   */\n      tag_96\n      jump\t// in\n    tag_93:\n        /* \"#utility.yul\":101:176   */\n      swap1\n      pop\n        /* \"#utility.yul\":199:205   */\n      dup3\n        /* \"#utility.yul\":192:197   */\n      dup2\n        /* \"#utility.yul\":185:206   */\n      mstore\n        /* \"#utility.yul\":237:241   */\n      0x20\n        /* \"#utility.yul\":230:235   */\n      dup2\n        /* \"#utility.yul\":226:242   */\n      add\n        /* \"#utility.yul\":275:278   */\n      dup5\n        /* \"#utility.yul\":266:272   */\n      dup5\n        /* \"#utility.yul\":261:264   */\n      dup5\n        /* \"#utility.yul\":257:273   */\n      add\n        /* \"#utility.yul\":254:279   */\n      gt\n        /* \"#utility.yul\":251:363   */\n      iszero\n      tag_97\n      jumpi\n        /* \"#utility.yul\":282:361   */\n      tag_98\n      tag_99\n      jump\t// in\n    tag_98:\n        /* \"#utility.yul\":251:363   */\n    tag_97:\n        /* \"#utility.yul\":372:413   */\n      tag_100\n        /* \"#utility.yul\":406:412   */\n      dup5\n        /* \"#utility.yul\":401:404   */\n      dup3\n        /* \"#utility.yul\":396:399   */\n      dup6\n        /* \"#utility.yul\":372:413   */\n      tag_101\n      jump\t// in\n    tag_100:\n        /* \"#utility.yul\":91:419   */\n      pop\n        /* \"#utility.yul\":7:419   */\n      swap4\n      swap3\n      pop\n      pop\n      pop\n      jump\t// out\n        /* \"#utility.yul\":439:779   */\n    tag_102:\n        /* \"#utility.yul\":495:500   */\n      0x00\n        /* \"#utility.yul\":544:547   */\n      dup3\n        /* \"#utility.yul\":537:541   */\n      0x1f\n        /* \"#utility.yul\":529:535   */\n      dup4\n        /* \"#utility.yul\":525:542   */\n      add\n        /* \"#utility.yul\":521:548   */\n      slt\n        /* \"#utility.yul\":511:633   */\n      tag_104\n      jumpi\n        /* \"#utility.yul\":552:631   */\n      tag_105\n      tag_106\n      jump\t// in\n    tag_105:\n        /* \"#utility.yul\":511:633   */\n    tag_104:\n        /* \"#utility.yul\":669:675   */\n      dup2\n        /* \"#utility.yul\":656:676   */\n      calldataload\n        /* \"#utility.yul\":694:773   */\n      tag_107\n        /* \"#utility.yul\":769:772   */\n      dup5\n        /* \"#utility.yul\":761:767   */\n      dup3\n        /* \"#utility.yul\":754:758   */\n      0x20\n        /* \"#utility.yul\":746:752   */\n      dup7\n        /* \"#utility.yul\":742:759   */\n      add\n        /* \"#utility.yul\":694:773   */\n      tag_91\n      jump\t// in\n    tag_107:\n        /* \"#utility.yul\":685:773   */\n      swap2\n      pop\n        /* \"#utility.yul\":501:779   */\n      pop\n        /* \"#utility.yul\":439:779   */\n      swap3\n      swap2\n      pop\n      pop\n      jump\t// out\n        /* \"#utility.yul\":785:924   */\n    tag_108:\n        /* \"#utility.yul\":831:836   */\n      0x00\n        /* \"#utility.yul\":869:875   */\n      dup2\n        /* \"#utility.yul\":856:876   */\n      calldataload\n        /* \"#utility.yul\":847:876   */\n      swap1\n      pop\n        /* \"#utility.yul\":885:918   */\n      tag_110\n        /* \"#utility.yul\":912:917   */\n      dup2\n        /* \"#utility.yul\":885:918   */\n      tag_111\n      jump\t// in\n    tag_110:\n        /* \"#utility.yul\":785:924   */\n      swap3\n      swap2\n      pop\n      pop\n      jump\t// out\n        /* \"#utility.yul\":930:1439   */\n    tag_15:\n        /* \"#utility.yul\":999:1005   */\n      0x00\n        /* \"#utility.yul\":1048:1050   */\n      0x20\n        /* \"#utility.yul\":1036:1045   */\n      dup3\n        /* \"#utility.yul\":1027:1034   */\n      dup5\n        /* \"#utility.yul\":1023:1046   */\n      sub\n        /* \"#utility.yul\":1019:1051   */\n      slt\n        /* \"#utility.yul\":1016:1135   */\n      iszero\n      tag_113\n      jumpi\n        /* \"#utility.yul\":1054:1133   */\n      tag_114\n      tag_115\n      jump\t// in\n    tag_114:\n        /* \"#utility.yul\":1016:1135   */\n    tag_113:\n        /* \"#utility.yul\":1202:1203   */\n      0x00\n        /* \"#utility.yul\":1191:1200   */\n      dup3\n        /* \"#utility.yul\":1187:1204   */\n      add\n        /* \"#utility.yul\":1174:1205   */\n      calldataload\n        /* \"#utility.yul\":1232:1250   */\n      0xffffffffffffffff\n        /* \"#utility.yul\":1224:1230   */\n      dup2\n        /* \"#utility.yul\":1221:1251   */\n      gt\n        /* \"#utility.yul\":1218:1335   */\n      iszero\n      tag_116\n      jumpi\n        /* \"#utility.yul\":1254:1333   */\n      tag_117\n      tag_118\n      jump\t// in\n    tag_117:\n        /* \"#utility.yul\":1218:1335   */\n    tag_116:\n        /* \"#utility.yul\":1359:1422   */\n      tag_119\n        /* \"#utility.yul\":1414:1421   */\n      dup5\n        /* \"#utility.yul\":1405:1411   */\n      dup3\n        /* \"#utility.yul\":1394:1403   */\n      dup6\n        /* \"#utility.yul\":1390:1412   */\n      add\n        /* \"#utility.yul\":1359:1422   */\n      tag_102\n      jump\t// in\n    tag_119:\n        /* \"#utility.yul\":1349:1422   */\n      swap2\n      pop\n        /* \"#utility.yul\":1145:1432   */\n      pop\n        /* \"#utility.yul\":930:1439   */\n      swap3\n      swap2\n      pop\n      pop\n      jump\t// out\n        /* \"#utility.yul\":1445:1774   */\n    tag_9:\n        /* \"#utility.yul\":1504:1510   */\n      0x00\n        /* \"#utility.yul\":1553:1555   */\n      0x20\n        /* \"#utility.yul\":1541:1550   */\n      dup3\n        /* \"#utility.yul\":1532:1539   */\n      dup5\n        /* \"#utility.yul\":1528:1551   */\n      sub\n        /* \"#utility.yul\":1524:1556   */\n      slt\n        /* \"#utility.yul\":1521:1640   */\n      iszero\n      tag_121\n      jumpi\n        /* \"#utility.yul\":1559:1638   */\n      tag_122\n      tag_115\n      jump\t// in\n    tag_122:\n        /* \"#utility.yul\":1521:1640   */\n    tag_121:\n        /* \"#utility.yul\":1679:1680   */\n      0x00\n        /* \"#utility.yul\":1704:1757   */\n      tag_123\n        /* \"#utility.yul\":1749:1756   */\n      dup5\n        /* \"#utility.yul\":1740:1746   */\n      dup3\n        /* \"#utility.yul\":1729:1738   */\n      dup6\n        /* \"#utility.yul\":1725:1747   */\n      add\n        /* \"#utility.yul\":1704:1757   */\n      tag_108\n      jump\t// in\n    tag_123:\n        /* \"#utility.yul\":1694:1757   */\n      swap2\n      pop\n        /* \"#utility.yul\":1650:1767   */\n      pop\n        /* \"#utility.yul\":1445:1774   */\n      swap3\n      swap2\n      pop\n      pop\n      jump\t// out\n        /* \"#utility.yul\":1780:2144   */\n    tag_124:\n        /* \"#utility.yul\":1868:1871   */\n      0x00\n        /* \"#utility.yul\":1896:1935   */\n      tag_126\n        /* \"#utility.yul\":1929:1934   */\n      dup3\n        /* \"#utility.yul\":1896:1935   */\n      tag_127\n      jump\t// in\n    tag_126:\n        /* \"#utility.yul\":1951:2022   */\n      tag_128\n        /* \"#utility.yul\":2015:2021   */\n      dup2\n        /* \"#utility.yul\":2010:2013   */\n      dup6\n        /* \"#utility.yul\":1951:2022   */\n      tag_129\n      jump\t// in\n    tag_128:\n        /* \"#utility.yul\":1944:2022   */\n      swap4\n      pop\n        /* \"#utility.yul\":2031:2083   */\n      tag_130\n        /* \"#utility.yul\":2076:2082   */\n      dup2\n        /* \"#utility.yul\":2071:2074   */\n      dup6\n        /* \"#utility.yul\":2064:2068   */\n      0x20\n        /* \"#utility.yul\":2057:2062   */\n      dup7\n        /* \"#utility.yul\":2053:2069   */\n      add\n        /* \"#utility.yul\":2031:2083   */\n      tag_131\n      jump\t// in\n    tag_130:\n        /* \"#utility.yul\":2108:2137   */\n      tag_132\n        /* \"#utility.yul\":2130:2136   */\n      dup2\n        /* \"#utility.yul\":2108:2137   */\n      tag_133\n      jump\t// in\n    tag_132:\n        /* \"#utility.yul\":2103:2106   */\n      dup5\n        /* \"#utility.yul\":2099:2138   */\n      add\n        /* \"#utility.yul\":2092:2138   */\n      swap2\n      pop\n        /* \"#utility.yul\":1872:2144   */\n      pop\n        /* \"#utility.yul\":1780:2144   */\n      swap3\n      swap2\n      pop\n      pop\n      jump\t// out\n        /* \"#utility.yul\":2150:2527   */\n    tag_134:\n        /* \"#utility.yul\":2256:2259   */\n      0x00\n        /* \"#utility.yul\":2284:2323   */\n      tag_136\n        /* \"#utility.yul\":2317:2322   */\n      dup3\n        /* \"#utility.yul\":2284:2323   */\n      tag_127\n      jump\t// in\n    tag_136:\n        /* \"#utility.yul\":2339:2428   */\n      tag_137\n        /* \"#utility.yul\":2421:2427   */\n      dup2\n        /* \"#utility.yul\":2416:2419   */\n      dup6\n        /* \"#utility.yul\":2339:2428   */\n      tag_138\n      jump\t// in\n    tag_137:\n        /* \"#utility.yul\":2332:2428   */\n      swap4\n      pop\n        /* \"#utility.yul\":2437:2489   */\n      tag_139\n        /* \"#utility.yul\":2482:2488   */\n      dup2\n        /* \"#utility.yul\":2477:2480   */\n      dup6\n        /* \"#utility.yul\":2470:2474   */\n      0x20\n        /* \"#utility.yul\":2463:2468   */\n      dup7\n        /* \"#utility.yul\":2459:2475   */\n      add\n        /* \"#utility.yul\":2437:2489   */\n      tag_131\n      jump\t// in\n    tag_139:\n        /* \"#utility.yul\":2514:2520   */\n      dup1\n        /* \"#utility.yul\":2509:2512   */\n      dup5\n        /* \"#utility.yul\":2505:2521   */\n      add\n        /* \"#utility.yul\":2498:2521   */\n      swap2\n      pop\n        /* \"#utility.yul\":2260:2527   */\n      pop\n        /* \"#utility.yul\":2150:2527   */\n      swap3\n      swap2\n      pop\n      pop\n      jump\t// out\n        /* \"#utility.yul\":2557:3402   */\n    tag_140:\n        /* \"#utility.yul\":2660:2663   */\n      0x00\n        /* \"#utility.yul\":2697:2702   */\n      dup2\n        /* \"#utility.yul\":2691:2703   */\n      sload\n        /* \"#utility.yul\":2726:2762   */\n      tag_142\n        /* \"#utility.yul\":2752:2761   */\n      dup2\n        /* \"#utility.yul\":2726:2762   */\n      tag_27\n      jump\t// in\n    tag_142:\n        /* \"#utility.yul\":2778:2867   */\n      tag_143\n        /* \"#utility.yul\":2860:2866   */\n      dup2\n        /* \"#utility.yul\":2855:2858   */\n      dup7\n        /* \"#utility.yul\":2778:2867   */\n      tag_138\n      jump\t// in\n    tag_143:\n        /* \"#utility.yul\":2771:2867   */\n      swap5\n      pop\n        /* \"#utility.yul\":2898:2899   */\n      0x01\n        /* \"#utility.yul\":2887:2896   */\n      dup3\n        /* \"#utility.yul\":2883:2900   */\n      and\n        /* \"#utility.yul\":2914:2915   */\n      0x00\n        /* \"#utility.yul\":2909:3046   */\n      dup2\n      eq\n      tag_145\n      jumpi\n        /* \"#utility.yul\":3060:3061   */\n      0x01\n        /* \"#utility.yul\":3055:3396   */\n      dup2\n      eq\n      tag_146\n      jumpi\n        /* \"#utility.yul\":2876:3396   */\n      jump(tag_144)\n        /* \"#utility.yul\":2909:3046   */\n    tag_145:\n        /* \"#utility.yul\":2993:2997   */\n      0xff\n        /* \"#utility.yul\":2989:2998   */\n      not\n        /* \"#utility.yul\":2978:2987   */\n      dup4\n        /* \"#utility.yul\":2974:2999   */\n      and\n        /* \"#utility.yul\":2969:2972   */\n      dup7\n        /* \"#utility.yul\":2962:3000   */\n      mstore\n        /* \"#utility.yul\":3029:3035   */\n      dup2\n        /* \"#utility.yul\":3024:3027   */\n      dup7\n        /* \"#utility.yul\":3020:3036   */\n      add\n        /* \"#utility.yul\":3013:3036   */\n      swap4\n      pop\n        /* \"#utility.yul\":2909:3046   */\n      jump(tag_144)\n        /* \"#utility.yul\":3055:3396   */\n    tag_146:\n        /* \"#utility.yul\":3122:3160   */\n      tag_147\n        /* \"#utility.yul\":3154:3159   */\n      dup6\n        /* \"#utility.yul\":3122:3160   */\n      tag_148\n      jump\t// in\n    tag_147:\n        /* \"#utility.yul\":3182:3183   */\n      0x00\n        /* \"#utility.yul\":3196:3350   */\n    tag_149:\n        /* \"#utility.yul\":3210:3216   */\n      dup4\n        /* \"#utility.yul\":3207:3208   */\n      dup2\n        /* \"#utility.yul\":3204:3217   */\n      lt\n        /* \"#utility.yul\":3196:3350   */\n      iszero\n      tag_151\n      jumpi\n        /* \"#utility.yul\":3284:3291   */\n      dup2\n        /* \"#utility.yul\":3278:3292   */\n      sload\n        /* \"#utility.yul\":3274:3275   */\n      dup2\n        /* \"#utility.yul\":3269:3272   */\n      dup10\n        /* \"#utility.yul\":3265:3276   */\n      add\n        /* \"#utility.yul\":3258:3293   */\n      mstore\n        /* \"#utility.yul\":3334:3335   */\n      0x01\n        /* \"#utility.yul\":3325:3332   */\n      dup3\n        /* \"#utility.yul\":3321:3336   */\n      add\n        /* \"#utility.yul\":3310:3336   */\n      swap2\n      pop\n        /* \"#utility.yul\":3232:3236   */\n      0x20\n        /* \"#utility.yul\":3229:3230   */\n      dup2\n        /* \"#utility.yul\":3225:3237   */\n      add\n        /* \"#utility.yul\":3220:3237   */\n      swap1\n      pop\n        /* \"#utility.yul\":3196:3350   */\n      jump(tag_149)\n    tag_151:\n        /* \"#utility.yul\":3379:3385   */\n      dup4\n        /* \"#utility.yul\":3374:3377   */\n      dup9\n        /* \"#utility.yul\":3370:3386   */\n      add\n        /* \"#utility.yul\":3363:3386   */\n      swap6\n      pop\n        /* \"#utility.yul\":3062:3396   */\n      pop\n      pop\n        /* \"#utility.yul\":2876:3396   */\n    tag_144:\n      pop\n        /* \"#utility.yul\":2664:3402   */\n      pop\n      pop\n        /* \"#utility.yul\":2557:3402   */\n      swap3\n      swap2\n      pop\n      pop\n      jump\t// out\n        /* \"#utility.yul\":3408:3526   */\n    tag_152:\n        /* \"#utility.yul\":3495:3519   */\n      tag_154\n        /* \"#utility.yul\":3513:3518   */\n      dup2\n        /* \"#utility.yul\":3495:3519   */\n      tag_155\n      jump\t// in\n    tag_154:\n        /* \"#utility.yul\":3490:3493   */\n      dup3\n        /* \"#utility.yul\":3483:3520   */\n      mstore\n        /* \"#utility.yul\":3408:3526   */\n      pop\n      pop\n      jump\t// out\n        /* \"#utility.yul\":3532:3807   */\n    tag_37:\n        /* \"#utility.yul\":3664:3667   */\n      0x00\n        /* \"#utility.yul\":3686:3781   */\n      tag_157\n        /* \"#utility.yul\":3777:3780   */\n      dup3\n        /* \"#utility.yul\":3768:3774   */\n      dup5\n        /* \"#utility.yul\":3686:3781   */\n      tag_134\n      jump\t// in\n    tag_157:\n        /* \"#utility.yul\":3679:3781   */\n      swap2\n      pop\n        /* \"#utility.yul\":3798:3801   */\n      dup2\n        /* \"#utility.yul\":3791:3801   */\n      swap1\n      pop\n        /* \"#utility.yul\":3532:3807   */\n      swap3\n      swap2\n      pop\n      pop\n      jump\t// out\n        /* \"#utility.yul\":3813:4082   */\n    tag_43:\n        /* \"#utility.yul\":3942:3945   */\n      0x00\n        /* \"#utility.yul\":3964:4056   */\n      tag_159\n        /* \"#utility.yul\":4052:4055   */\n      dup3\n        /* \"#utility.yul\":4043:4049   */\n      dup5\n        /* \"#utility.yul\":3964:4056   */\n      tag_140\n      jump\t// in\n    tag_159:\n        /* \"#utility.yul\":3957:4056   */\n      swap2\n      pop\n        /* \"#utility.yul\":4073:4076   */\n      dup2\n        /* \"#utility.yul\":4066:4076   */\n      swap1\n      pop\n        /* \"#utility.yul\":3813:4082   */\n      swap3\n      swap2\n      pop\n      pop\n      jump\t// out\n        /* \"#utility.yul\":4088:4401   */\n    tag_12:\n        /* \"#utility.yul\":4201:4205   */\n      0x00\n        /* \"#utility.yul\":4239:4241   */\n      0x20\n        /* \"#utility.yul\":4228:4237   */\n      dup3\n        /* \"#utility.yul\":4224:4242   */\n      add\n        /* \"#utility.yul\":4216:4242   */\n      swap1\n      pop\n        /* \"#utility.yul\":4288:4297   */\n      dup2\n        /* \"#utility.yul\":4282:4286   */\n      dup2\n        /* \"#utility.yul\":4278:4298   */\n      sub\n        /* \"#utility.yul\":4274:4275   */\n      0x00\n        /* \"#utility.yul\":4263:4272   */\n      dup4\n        /* \"#utility.yul\":4259:4276   */\n      add\n        /* \"#utility.yul\":4252:4299   */\n      mstore\n        /* \"#utility.yul\":4316:4394   */\n      tag_161\n        /* \"#utility.yul\":4389:4393   */\n      dup2\n        /* \"#utility.yul\":4380:4386   */\n      dup5\n        /* \"#utility.yul\":4316:4394   */\n      tag_124\n      jump\t// in\n    tag_161:\n        /* \"#utility.yul\":4308:4394   */\n      swap1\n      pop\n        /* \"#utility.yul\":4088:4401   */\n      swap3\n      swap2\n      pop\n      pop\n      jump\t// out\n        /* \"#utility.yul\":4407:4629   */\n    tag_24:\n        /* \"#utility.yul\":4500:4504   */\n      0x00\n        /* \"#utility.yul\":4538:4540   */\n      0x20\n        /* \"#utility.yul\":4527:4536   */\n      dup3\n        /* \"#utility.yul\":4523:4541   */\n      add\n        /* \"#utility.yul\":4515:4541   */\n      swap1\n      pop\n        /* \"#utility.yul\":4551:4622   */\n      tag_163\n        /* \"#utility.yul\":4619:4620   */\n      0x00\n        /* \"#utility.yul\":4608:4617   */\n      dup4\n        /* \"#utility.yul\":4604:4621   */\n      add\n        /* \"#utility.yul\":4595:4601   */\n      dup5\n        /* \"#utility.yul\":4551:4622   */\n      tag_152\n      jump\t// in\n    tag_163:\n        /* \"#utility.yul\":4407:4629   */\n      swap3\n      swap2\n      pop\n      pop\n      jump\t// out\n        /* \"#utility.yul\":4635:4764   */\n    tag_96:\n        /* \"#utility.yul\":4669:4675   */\n      0x00\n        /* \"#utility.yul\":4696:4716   */\n      tag_165\n      tag_166\n      jump\t// in\n    tag_165:\n        /* \"#utility.yul\":4686:4716   */\n      swap1\n      pop\n        /* \"#utility.yul\":4725:4758   */\n      tag_167\n        /* \"#utility.yul\":4753:4757   */\n      dup3\n        /* \"#utility.yul\":4745:4751   */\n      dup3\n        /* \"#utility.yul\":4725:4758   */\n      tag_168\n      jump\t// in\n    tag_167:\n        /* \"#utility.yul\":4635:4764   */\n      swap2\n      swap1\n      pop\n      jump\t// out\n        /* \"#utility.yul\":4770:4845   */\n    tag_166:\n        /* \"#utility.yul\":4803:4809   */\n      0x00\n        /* \"#utility.yul\":4836:4838   */\n      0x40\n        /* \"#utility.yul\":4830:4839   */\n      mload\n        /* \"#utility.yul\":4820:4839   */\n      swap1\n      pop\n        /* \"#utility.yul\":4770:4845   */\n      swap1\n      jump\t// out\n        /* \"#utility.yul\":4851:5159   */\n    tag_95:\n        /* \"#utility.yul\":4913:4917   */\n      0x00\n        /* \"#utility.yul\":5003:5021   */\n      0xffffffffffffffff\n        /* \"#utility.yul\":4995:5001   */\n      dup3\n        /* \"#utility.yul\":4992:5022   */\n      gt\n        /* \"#utility.yul\":4989:5045   */\n      iszero\n      tag_171\n      jumpi\n        /* \"#utility.yul\":5025:5043   */\n      tag_172\n      tag_173\n      jump\t// in\n    tag_172:\n        /* \"#utility.yul\":4989:5045   */\n    tag_171:\n        /* \"#utility.yul\":5063:5092   */\n      tag_174\n        /* \"#utility.yul\":5085:5091   */\n      dup3\n        /* \"#utility.yul\":5063:5092   */\n      tag_133\n      jump\t// in\n    tag_174:\n        /* \"#utility.yul\":5055:5092   */\n      swap1\n      pop\n        /* \"#utility.yul\":5147:5151   */\n      0x20\n        /* \"#utility.yul\":5141:5145   */\n      dup2\n        /* \"#utility.yul\":5137:5152   */\n      add\n        /* \"#utility.yul\":5129:5152   */\n      swap1\n      pop\n        /* \"#utility.yul\":4851:5159   */\n      swap2\n      swap1\n      pop\n      jump\t// out\n        /* \"#utility.yul\":5165:5306   */\n    tag_148:\n        /* \"#utility.yul\":5214:5218   */\n      0x00\n        /* \"#utility.yul\":5237:5240   */\n      dup2\n        /* \"#utility.yul\":5229:5240   */\n      swap1\n      pop\n        /* \"#utility.yul\":5260:5263   */\n      dup2\n        /* \"#utility.yul\":5257:5258   */\n      0x00\n        /* \"#utility.yul\":5250:5264   */\n      mstore\n        /* \"#utility.yul\":5294:5298   */\n      0x20\n        /* \"#utility.yul\":5291:5292   */\n      0x00\n        /* \"#utility.yul\":5281:5299   */\n      keccak256\n        /* \"#utility.yul\":5273:5299   */\n      swap1\n      pop\n        /* \"#utility.yul\":5165:5306   */\n      swap2\n      swap1\n      pop\n      jump\t// out\n        /* \"#utility.yul\":5312:5411   */\n    tag_127:\n        /* \"#utility.yul\":5364:5370   */\n      0x00\n        /* \"#utility.yul\":5398:5403   */\n      dup2\n        /* \"#utility.yul\":5392:5404   */\n      mload\n        /* \"#utility.yul\":5382:5404   */\n      swap1\n      pop\n        /* \"#utility.yul\":5312:5411   */\n      swap2\n      swap1\n      pop\n      jump\t// out\n        /* \"#utility.yul\":5417:5586   */\n    tag_129:\n        /* \"#utility.yul\":5501:5512   */\n      0x00\n        /* \"#utility.yul\":5535:5541   */\n      dup3\n        /* \"#utility.yul\":5530:5533   */\n      dup3\n        /* \"#utility.yul\":5523:5542   */\n      mstore\n        /* \"#utility.yul\":5575:5579   */\n      0x20\n        /* \"#utility.yul\":5570:5573   */\n      dup3\n        /* \"#utility.yul\":5566:5580   */\n      add\n        /* \"#utility.yul\":5551:5580   */\n      swap1\n      pop\n        /* \"#utility.yul\":5417:5586   */\n      swap3\n      swap2\n      pop\n      pop\n      jump\t// out\n        /* \"#utility.yul\":5592:5740   */\n    tag_138:\n        /* \"#utility.yul\":5694:5705   */\n      0x00\n        /* \"#utility.yul\":5731:5734   */\n      dup2\n        /* \"#utility.yul\":5716:5734   */\n      swap1\n      pop\n        /* \"#utility.yul\":5592:5740   */\n      swap3\n      swap2\n      pop\n      pop\n      jump\t// out\n        /* \"#utility.yul\":5746:5823   */\n    tag_155:\n        /* \"#utility.yul\":5783:5790   */\n      0x00\n        /* \"#utility.yul\":5812:5817   */\n      dup2\n        /* \"#utility.yul\":5801:5817   */\n      swap1\n      pop\n        /* \"#utility.yul\":5746:5823   */\n      swap2\n      swap1\n      pop\n      jump\t// out\n        /* \"#utility.yul\":5829:5983   */\n    tag_101:\n        /* \"#utility.yul\":5913:5919   */\n      dup3\n        /* \"#utility.yul\":5908:5911   */\n      dup2\n        /* \"#utility.yul\":5903:5906   */\n      dup4\n        /* \"#utility.yul\":5890:5920   */\n      calldatacopy\n        /* \"#utility.yul\":5975:5976   */\n      0x00\n        /* \"#utility.yul\":5966:5972   */\n      dup4\n        /* \"#utility.yul\":5961:5964   */\n      dup4\n        /* \"#utility.yul\":5957:5973   */\n      add\n        /* \"#utility.yul\":5950:5977   */\n      mstore\n        /* \"#utility.yul\":5829:5983   */\n      pop\n      pop\n      pop\n      jump\t// out\n        /* \"#utility.yul\":5989:6296   */\n    tag_131:\n        /* \"#utility.yul\":6057:6058   */\n      0x00\n        /* \"#utility.yul\":6067:6180   */\n    tag_182:\n        /* \"#utility.yul\":6081:6087   */\n      dup4\n        /* \"#utility.yul\":6078:6079   */\n      dup2\n        /* \"#utility.yul\":6075:6088   */\n      lt\n        /* \"#utility.yul\":6067:6180   */\n      iszero\n      tag_184\n      jumpi\n        /* \"#utility.yul\":6166:6167   */\n      dup1\n        /* \"#utility.yul\":6161:6164   */\n      dup3\n        /* \"#utility.yul\":6157:6168   */\n      add\n        /* \"#utility.yul\":6151:6169   */\n      mload\n        /* \"#utility.yul\":6147:6148   */\n      dup2\n        /* \"#utility.yul\":6142:6145   */\n      dup5\n        /* \"#utility.yul\":6138:6149   */\n      add\n        /* \"#utility.yul\":6131:6170   */\n      mstore\n        /* \"#utility.yul\":6103:6105   */\n      0x20\n        /* \"#utility.yul\":6100:6101   */\n      dup2\n        /* \"#utility.yul\":6096:6106   */\n      add\n        /* \"#utility.yul\":6091:6106   */\n      swap1\n      pop\n        /* \"#utility.yul\":6067:6180   */\n      jump(tag_182)\n    tag_184:\n        /* \"#utility.yul\":6198:6204   */\n      dup4\n        /* \"#utility.yul\":6195:6196   */\n      dup2\n        /* \"#utility.yul\":6192:6205   */\n      gt\n        /* \"#utility.yul\":6189:6290   */\n      iszero\n      tag_185\n      jumpi\n        /* \"#utility.yul\":6278:6279   */\n      0x00\n        /* \"#utility.yul\":6269:6275   */\n      dup5\n        /* \"#utility.yul\":6264:6267   */\n      dup5\n        /* \"#utility.yul\":6260:6276   */\n      add\n        /* \"#utility.yul\":6253:6280   */\n      mstore\n        /* \"#utility.yul\":6189:6290   */\n    tag_185:\n        /* \"#utility.yul\":6038:6296   */\n      pop\n        /* \"#utility.yul\":5989:6296   */\n      pop\n      pop\n      pop\n      jump\t// out\n        /* \"#utility.yul\":6302:6622   */\n    tag_27:\n        /* \"#utility.yul\":6346:6352   */\n      0x00\n        /* \"#utility.yul\":6383:6384   */\n      0x02\n        /* \"#utility.yul\":6377:6381   */\n      dup3\n        /* \"#utility.yul\":6373:6385   */\n      div\n        /* \"#utility.yul\":6363:6385   */\n      swap1\n      pop\n        /* \"#utility.yul\":6430:6431   */\n      0x01\n        /* \"#utility.yul\":6424:6428   */\n      dup3\n        /* \"#utility.yul\":6420:6432   */\n      and\n        /* \"#utility.yul\":6451:6469   */\n      dup1\n        /* \"#utility.yul\":6441:6522   */\n      tag_187\n      jumpi\n        /* \"#utility.yul\":6507:6511   */\n      0x7f\n        /* \"#utility.yul\":6499:6505   */\n      dup3\n        /* \"#utility.yul\":6495:6512   */\n      and\n        /* \"#utility.yul\":6485:6512   */\n      swap2\n      pop\n        /* \"#utility.yul\":6441:6522   */\n    tag_187:\n        /* \"#utility.yul\":6569:6571   */\n      0x20\n        /* \"#utility.yul\":6561:6567   */\n      dup3\n        /* \"#utility.yul\":6558:6572   */\n      lt\n        /* \"#utility.yul\":6538:6556   */\n      dup2\n        /* \"#utility.yul\":6535:6573   */\n      eq\n        /* \"#utility.yul\":6532:6616   */\n      iszero\n      tag_188\n      jumpi\n        /* \"#utility.yul\":6588:6606   */\n      tag_189\n      tag_190\n      jump\t// in\n    tag_189:\n        /* \"#utility.yul\":6532:6616   */\n    tag_188:\n        /* \"#utility.yul\":6353:6622   */\n      pop\n        /* \"#utility.yul\":6302:6622   */\n      swap2\n      swap1\n      pop\n      jump\t// out\n        /* \"#utility.yul\":6628:6909   */\n    tag_168:\n        /* \"#utility.yul\":6711:6738   */\n      tag_192\n        /* \"#utility.yul\":6733:6737   */\n      dup3\n        /* \"#utility.yul\":6711:6738   */\n      tag_133\n      jump\t// in\n    tag_192:\n        /* \"#utility.yul\":6703:6709   */\n      dup2\n        /* \"#utility.yul\":6699:6739   */\n      add\n        /* \"#utility.yul\":6841:6847   */\n      dup2\n        /* \"#utility.yul\":6829:6839   */\n      dup2\n        /* \"#utility.yul\":6826:6848   */\n      lt\n        /* \"#utility.yul\":6805:6823   */\n      0xffffffffffffffff\n        /* \"#utility.yul\":6793:6803   */\n      dup3\n        /* \"#utility.yul\":6790:6824   */\n      gt\n        /* \"#utility.yul\":6787:6849   */\n      or\n        /* \"#utility.yul\":6784:6872   */\n      iszero\n      tag_193\n      jumpi\n        /* \"#utility.yul\":6852:6870   */\n      tag_194\n      tag_173\n      jump\t// in\n    tag_194:\n        /* \"#utility.yul\":6784:6872   */\n    tag_193:\n        /* \"#utility.yul\":6892:6902   */\n      dup1\n        /* \"#utility.yul\":6888:6890   */\n      0x40\n        /* \"#utility.yul\":6881:6903   */\n      mstore\n        /* \"#utility.yul\":6671:6909   */\n      pop\n        /* \"#utility.yul\":6628:6909   */\n      pop\n      pop\n      jump\t// out\n        /* \"#utility.yul\":6915:7148   */\n    tag_75:\n        /* \"#utility.yul\":6954:6957   */\n      0x00\n        /* \"#utility.yul\":6977:7001   */\n      tag_196\n        /* \"#utility.yul\":6995:7000   */\n      dup3\n        /* \"#utility.yul\":6977:7001   */\n      tag_155\n      jump\t// in\n    tag_196:\n        /* \"#utility.yul\":6968:7001   */\n      swap2\n      pop\n        /* \"#utility.yul\":7023:7089   */\n      0xffffffffffffffffffffffffffffffffffffffffffffffffffffffffffffffff\n        /* \"#utility.yul\":7016:7021   */\n      dup3\n        /* \"#utility.yul\":7013:7090   */\n      eq\n        /* \"#utility.yul\":7010:7113   */\n      iszero\n      tag_197\n      jumpi\n        /* \"#utility.yul\":7093:7111   */\n      tag_198\n      tag_199\n      jump\t// in\n    tag_198:\n        /* \"#utility.yul\":7010:7113   */\n    tag_197:\n        /* \"#utility.yul\":7140:7141   */\n      0x01\n        /* \"#utility.yul\":7133:7138   */\n      dup3\n        /* \"#utility.yul\":7129:7142   */\n      add\n        /* \"#utility.yul\":7122:7142   */\n      swap1\n      pop\n        /* \"#utility.yul\":6915:7148   */\n      swap2\n      swap1\n      pop\n      jump\t// out\n        /* \"#utility.yul\":7154:7334   */\n    tag_199:\n        /* \"#utility.yul\":7202:7279   */\n      0x4e487b7100000000000000000000000000000000000000000000000000000000\n        /* \"#utility.yul\":7199:7200   */\n      0x00\n        /* \"#utility.yul\":7192:7280   */\n      mstore\n        /* \"#utility.yul\":7299:7303   */\n      0x11\n        /* \"#utility.yul\":7296:7297   */\n      0x04\n        /* \"#utility.yul\":7289:7304   */\n      mstore\n        /* \"#utility.yul\":7323:7327   */\n      0x24\n        /* \"#utility.yul\":7320:7321   */\n      0x00\n        /* \"#utility.yul\":7313:7328   */\n      revert\n        /* \"#utility.yul\":7340:7520   */\n    tag_190:\n        /* \"#utility.yul\":7388:7465   */\n      0x4e487b7100000000000000000000000000000000000000000000000000000000\n        /* \"#utility.yul\":7385:7386   */\n      0x00\n        /* \"#utility.yul\":7378:7466   */\n      mstore\n        /* \"#utility.yul\":7485:7489   */\n      0x22\n        /* \"#utility.yul\":7482:7483   */\n      0x04\n        /* \"#utility.yul\":7475:7490   */\n      mstore\n        /* \"#utility.yul\":7509:7513   */\n      0x24\n        /* \"#utility.yul\":7506:7507   */\n      0x00\n        /* \"#utility.yul\":7499:7514   */\n      revert\n        /* \"#utility.yul\":7526:7706   */\n    tag_72:\n        /* \"#utility.yul\":7574:7651   */\n      0x4e487b7100000000000000000000000000000000000000000000000000000000\n        /* \"#utility.yul\":7571:7572   */\n      0x00\n        /* \"#utility.yul\":7564:7652   */\n      mstore\n        /* \"#utility.yul\":7671:7675   */\n      0x32\n        /* \"#utility.yul\":7668:7669   */\n      0x04\n        /* \"#utility.yul\":7661:7676   */\n      mstore\n        /* \"#utility.yul\":7695:7699   */\n      0x24\n        /* \"#utility.yul\":7692:7693   */\n      0x00\n        /* \"#utility.yul\":7685:7700   */\n      revert\n        /* \"#utility.yul\":7712:7892   */\n    tag_173:\n        /* \"#utility.yul\":7760:7837   */\n      0x4e487b7100000000000000000000000000000000000000000000000000000000\n        /* \"#utility.yul\":7757:7758   */\n      0x00\n        /* \"#utility.yul\":7750:7838   */\n      mstore\n        /* \"#utility.yul\":7857:7861   */\n      0x41\n        /* \"#utility.yul\":7854:7855   */\n      0x04\n        /* \"#utility.yul\":7847:7862   */\n      mstore\n        /* \"#utility.yul\":7881:7885   */\n      0x24\n        /* \"#utility.yul\":7878:7879   */\n      0x00\n        /* \"#utility.yul\":7871:7886   */\n      revert\n        /* \"#utility.yul\":7898:8015   */\n    tag_106:\n        /* \"#utility.yul\":8007:8008   */\n      0x00\n        /* \"#utility.yul\":8004:8005   */\n      dup1\n        /* \"#utility.yul\":7997:8009   */\n      revert\n        /* \"#utility.yul\":8021:8138   */\n    tag_99:\n        /* \"#utility.yul\":8130:8131   */\n      0x00\n        /* \"#utility.yul\":8127:8128   */\n      dup1\n        /* \"#utility.yul\":8120:8132   */\n      revert\n        /* \"#utility.yul\":8144:8261   */\n    tag_118:\n        /* \"#utility.yul\":8253:8254   */\n      0x00\n        /* \"#utility.yul\":8250:8251   */\n      dup1\n        /* \"#utility.yul\":8243:8255   */\n      revert\n        /* \"#utility.yul\":8267:8384   */\n    tag_115:\n        /* \"#utility.yul\":8376:8377   */\n      0x00\n        /* \"#utility.yul\":8373:8374   */\n      dup1\n        /* \"#utility.yul\":8366:8378   */\n      revert\n        /* \"#utility.yul\":8390:8492   */\n    tag_133:\n        /* \"#utility.yul\":8431:8437   */\n      0x00\n        /* \"#utility.yul\":8482:8484   */\n      0x1f\n        /* \"#utility.yul\":8478:8485   */\n      not\n        /* \"#utility.yul\":8473:8475   */\n      0x1f\n        /* \"#utility.yul\":8466:8471   */\n      dup4\n        /* \"#utility.yul\":8462:8476   */\n      add\n        /* \"#utility.yul\":8458:8486   */\n      and\n        /* \"#utility.yul\":8448:8486   */\n      swap1\n      pop\n        /* \"#utility.yul\":8390:8492   */\n      swap2\n      swap1\n      pop\n      jump\t// out\n        /* \"#utility.yul\":8498:8620   */\n    tag_111:\n        /* \"#utility.yul\":8571:8595   */\n      tag_210\n        /* \"#utility.yul\":8589:8594   */\n      dup2\n        /* \"#utility.yul\":8571:8595   */\n      tag_155\n      jump\t// in\n    tag_210:\n        /* \"#utility.yul\":8564:8569   */\n      dup2\n        /* \"#utility.yul\":8561:8596   */\n      eq\n        /* \"#utility.yul\":8551:8614   */\n      tag_211\n      jumpi\n        /* \"#utility.yul\":8610:8611   */\n      0x00\n        /* \"#utility.yul\":8607:8608   */\n      dup1\n        /* \"#utility.yul\":8600:8612   */\n      revert\n        /* \"#utility.yul\":8551:8614   */\n    tag_211:\n        /* \"#utility.yul\":8498:8620   */\n      pop\n      jump\t// out\n\n    auxdata: 0xa2646970667358221220e923b2e550a30a2b163e7170ee96c25680b2b293e42a1c1945c0b158e3d06a2a64736f6c63430008070033\n}\n",
				"bytecode": {
					"linkReferences": {},
					"object": "608060405234801561001057600080fd5b50610b1a806100206000396000f3fe608060405234801561001057600080fd5b506004361061004c5760003560e01c806353eaab32146100515780639c05230214610081578063b708ed0c1461009d578063beec35d7146100b9575b600080fd5b61006b600480360381019061006691906106d2565b6100e9565b6040516100789190610825565b60405180910390f35b61009b60048036038101906100969190610689565b61018e565b005b6100b760048036038101906100b291906106d2565b61021e565b005b6100d360048036038101906100ce9190610689565b610274565b6040516100e09190610847565b60405180910390f35b606060046000838152602001908152602001600020805461010990610940565b80601f016020809104026020016040519081016040528092919081815260200182805461013590610940565b80156101825780601f1061015757610100808354040283529160200191610182565b820191906000526020600020905b81548152906001019060200180831161016557829003601f168201915b50505050509050919050565b610198600161029c565b6101a157600080fd5b6000816040516020016101b491906107f7565b6040516020818303038152906040528051906020012060001c9050816004600083815260200190815260200160002090805190602001906101f6929190610521565b508060058360405161020891906107f7565b9081526020016040518091039020819055505050565b600560046000838152602001908152602001600020604051610240919061080e565b90815260200160405180910390206000905560046000828152602001908152602001600020600061027191906105a7565b50565b600060058260405161028691906107f7565b9081526020016040518091039020549050919050565b6000808214156102af5760019050610494565b600182141561034f5761034833600080548060200260200160405190810160405280929190818152602001828054801561033e57602002820191906000526020600020905b8160009054906101000a900473ffffffffffffffffffffffffffffffffffffffff1673ffffffffffffffffffffffffffffffffffffffff16815260200190600101908083116102f4575b5050505050610499565b9050610494565b60028214156103ef576103e83360018054806020026020016040519081016040528092919081815260200182805480156103de57602002820191906000526020600020905b8160009054906101000a900473ffffffffffffffffffffffffffffffffffffffff1673ffffffffffffffffffffffffffffffffffffffff1681526020019060010190808311610394575b5050505050610499565b9050610494565b600382141561048f5761048833600280548060200260200160405190810160405280929190818152602001828054801561047e57602002820191906000526020600020905b8160009054906101000a900473ffffffffffffffffffffffffffffffffffffffff1673ffffffffffffffffffffffffffffffffffffffff1681526020019060010190808311610434575b5050505050610499565b9050610494565b600090505b919050565b600080600090505b8251811015610515578373ffffffffffffffffffffffffffffffffffffffff168382815181106104d4576104d3610a4a565b5b602002602001015173ffffffffffffffffffffffffffffffffffffffff16141561050257600191505061051b565b808061050d906109a3565b9150506104a1565b50600090505b92915050565b82805461052d90610940565b90600052602060002090601f01602090048101928261054f5760008555610596565b82601f1061056857805160ff1916838001178555610596565b82800160010185558215610596579182015b8281111561059557825182559160200191906001019061057a565b5b5090506105a391906105e7565b5090565b5080546105b390610940565b6000825580601f106105c557506105e4565b601f0160209004906000526020600020908101906105e391906105e7565b5b50565b5b808211156106005760008160009055506001016105e8565b5090565b600061061761061284610887565b610862565b90508281526020810184848401111561063357610632610aad565b5b61063e8482856108fe565b509392505050565b600082601f83011261065b5761065a610aa8565b5b813561066b848260208601610604565b91505092915050565b60008135905061068381610acd565b92915050565b60006020828403121561069f5761069e610ab7565b5b600082013567ffffffffffffffff8111156106bd576106bc610ab2565b5b6106c984828501610646565b91505092915050565b6000602082840312156106e8576106e7610ab7565b5b60006106f684828501610674565b91505092915050565b600061070a826108cd565b61071481856108d8565b935061072481856020860161090d565b61072d81610abc565b840191505092915050565b6000610743826108cd565b61074d81856108e9565b935061075d81856020860161090d565b80840191505092915050565b6000815461077681610940565b61078081866108e9565b9450600182166000811461079b57600181146107ac576107df565b60ff198316865281860193506107df565b6107b5856108b8565b60005b838110156107d7578154818901526001820191506020810190506107b8565b838801955050505b50505092915050565b6107f1816108f4565b82525050565b60006108038284610738565b915081905092915050565b600061081a8284610769565b915081905092915050565b6000602082019050818103600083015261083f81846106ff565b905092915050565b600060208201905061085c60008301846107e8565b92915050565b600061086c61087d565b90506108788282610972565b919050565b6000604051905090565b600067ffffffffffffffff8211156108a2576108a1610a79565b5b6108ab82610abc565b9050602081019050919050565b60008190508160005260206000209050919050565b600081519050919050565b600082825260208201905092915050565b600081905092915050565b6000819050919050565b82818337600083830152505050565b60005b8381101561092b578082015181840152602081019050610910565b8381111561093a576000848401525b50505050565b6000600282049050600182168061095857607f821691505b6020821081141561096c5761096b610a1b565b5b50919050565b61097b82610abc565b810181811067ffffffffffffffff8211171561099a57610999610a79565b5b80604052505050565b60006109ae826108f4565b91507fffffffffffffffffffffffffffffffffffffffffffffffffffffffffffffffff8214156109e1576109e06109ec565b5b600182019050919050565b7f4e487b7100000000000000000000000000000000000000000000000000000000600052601160045260246000fd5b7f4e487b7100000000000000000000000000000000000000000000000000000000600052602260045260246000fd5b7f4e487b7100000000000000000000000000000000000000000000000000000000600052603260045260246000fd5b7f4e487b7100000000000000000000000000000000000000000000000000000000600052604160045260246000fd5b600080fd5b600080fd5b600080fd5b600080fd5b6000601f19601f8301169050919050565b610ad6816108f4565b8114610ae157600080fd5b5056fea2646970667358221220e923b2e550a30a2b163e7170ee96c25680b2b293e42a1c1945c0b158e3d06a2a64736f6c63430008070033",
					"opcodes": "PUSH1 0x80 PUSH1 0x40 MSTORE CALLVALUE DUP1 ISZERO PUSH2 0x10 JUMPI PUSH1 0x0 DUP1 REVERT JUMPDEST POP PUSH2 0xB1A DUP1 PUSH2 0x20 PUSH1 0x0 CODECOPY PUSH1 0x0 RETURN INVALID PUSH1 0x80 PUSH1 0x40 MSTORE CALLVALUE DUP1 ISZERO PUSH2 0x10 JUMPI PUSH1 0x0 DUP1 REVERT JUMPDEST POP PUSH1 0x4 CALLDATASIZE LT PUSH2 0x4C JUMPI PUSH1 0x0 CALLDATALOAD PUSH1 0xE0 SHR DUP1 PUSH4 0x53EAAB32 EQ PUSH2 0x51 JUMPI DUP1 PUSH4 0x9C052302 EQ PUSH2 0x81 JUMPI DUP1 PUSH4 0xB708ED0C EQ PUSH2 0x9D JUMPI DUP1 PUSH4 0xBEEC35D7 EQ PUSH2 0xB9 JUMPI JUMPDEST PUSH1 0x0 DUP1 REVERT JUMPDEST PUSH2 0x6B PUSH1 0x4 DUP1 CALLDATASIZE SUB DUP2 ADD SWAP1 PUSH2 0x66 SWAP2 SWAP1 PUSH2 0x6D2 JUMP JUMPDEST PUSH2 0xE9 JUMP JUMPDEST PUSH1 0x40 MLOAD PUSH2 0x78 SWAP2 SWAP1 PUSH2 0x825 JUMP JUMPDEST PUSH1 0x40 MLOAD DUP1 SWAP2 SUB SWAP1 RETURN JUMPDEST PUSH2 0x9B PUSH1 0x4 DUP1 CALLDATASIZE SUB DUP2 ADD SWAP1 PUSH2 0x96 SWAP2 SWAP1 PUSH2 0x689 JUMP JUMPDEST PUSH2 0x18E JUMP JUMPDEST STOP JUMPDEST PUSH2 0xB7 PUSH1 0x4 DUP1 CALLDATASIZE SUB DUP2 ADD SWAP1 PUSH2 0xB2 SWAP2 SWAP1 PUSH2 0x6D2 JUMP JUMPDEST PUSH2 0x21E JUMP JUMPDEST STOP JUMPDEST PUSH2 0xD3 PUSH1 0x4 DUP1 CALLDATASIZE SUB DUP2 ADD SWAP1 PUSH2 0xCE SWAP2 SWAP1 PUSH2 0x689 JUMP JUMPDEST PUSH2 0x274 JUMP JUMPDEST PUSH1 0x40 MLOAD PUSH2 0xE0 SWAP2 SWAP1 PUSH2 0x847 JUMP JUMPDEST PUSH1 0x40 MLOAD DUP1 SWAP2 SUB SWAP1 RETURN JUMPDEST PUSH1 0x60 PUSH1 0x4 PUSH1 0x0 DUP4 DUP2 MSTORE PUSH1 0x20 ADD SWAP1 DUP2 MSTORE PUSH1 0x20 ADD PUSH1 0x0 KECCAK256 DUP1 SLOAD PUSH2 0x109 SWAP1 PUSH2 0x940 JUMP JUMPDEST DUP1 PUSH1 0x1F ADD PUSH1 0x20 DUP1 SWAP2 DIV MUL PUSH1 0x20 ADD PUSH1 0x40 MLOAD SWAP1 DUP2 ADD PUSH1 0x40 MSTORE DUP1 SWAP3 SWAP2 SWAP1 DUP2 DUP2 MSTORE PUSH1 0x20 ADD DUP3 DUP1 SLOAD PUSH2 0x135 SWAP1 PUSH2 0x940 JUMP JUMPDEST DUP1 ISZERO PUSH2 0x182 JUMPI DUP1 PUSH1 0x1F LT PUSH2 0x157 JUMPI PUSH2 0x100 DUP1 DUP4 SLOAD DIV MUL DUP4 MSTORE SWAP2 PUSH1 0x20 ADD SWAP2 PUSH2 0x182 JUMP JUMPDEST DUP3 ADD SWAP2 SWAP1 PUSH1 0x0 MSTORE PUSH1 0x20 PUSH1 0x0 KECCAK256 SWAP1 JUMPDEST DUP2 SLOAD DUP2 MSTORE SWAP1 PUSH1 0x1 ADD SWAP1 PUSH1 0x20 ADD DUP1 DUP4 GT PUSH2 0x165 JUMPI DUP3 SWAP1 SUB PUSH1 0x1F AND DUP3 ADD SWAP2 JUMPDEST POP POP POP POP POP SWAP1 POP SWAP2 SWAP1 POP JUMP JUMPDEST PUSH2 0x198 PUSH1 0x1 PUSH2 0x29C JUMP JUMPDEST PUSH2 0x1A1 JUMPI PUSH1 0x0 DUP1 REVERT JUMPDEST PUSH1 0x0 DUP2 PUSH1 0x40 MLOAD PUSH1 0x20 ADD PUSH2 0x1B4 SWAP2 SWAP1 PUSH2 0x7F7 JUMP JUMPDEST PUSH1 0x40 MLOAD PUSH1 0x20 DUP2 DUP4 SUB SUB DUP2 MSTORE SWAP1 PUSH1 0x40 MSTORE DUP1 MLOAD SWAP1 PUSH1 0x20 ADD KECCAK256 PUSH1 0x0 SHR SWAP1 POP DUP2 PUSH1 0x4 PUSH1 0x0 DUP4 DUP2 MSTORE PUSH1 0x20 ADD SWAP1 DUP2 MSTORE PUSH1 0x20 ADD PUSH1 0x0 KECCAK256 SWAP1 DUP1 MLOAD SWAP1 PUSH1 0x20 ADD SWAP1 PUSH2 0x1F6 SWAP3 SWAP2 SWAP1 PUSH2 0x521 JUMP JUMPDEST POP DUP1 PUSH1 0x5 DUP4 PUSH1 0x40 MLOAD PUSH2 0x208 SWAP2 SWAP1 PUSH2 0x7F7 JUMP JUMPDEST SWAP1 DUP2 MSTORE PUSH1 0x20 ADD PUSH1 0x40 MLOAD DUP1 SWAP2 SUB SWAP1 KECCAK256 DUP2 SWAP1 SSTORE POP POP POP JUMP JUMPDEST PUSH1 0x5 PUSH1 0x4 PUSH1 0x0 DUP4 DUP2 MSTORE PUSH1 0x20 ADD SWAP1 DUP2 MSTORE PUSH1 0x20 ADD PUSH1 0x0 KECCAK256 PUSH1 0x40 MLOAD PUSH2 0x240 SWAP2 SWAP1 PUSH2 0x80E JUMP JUMPDEST SWAP1 DUP2 MSTORE PUSH1 0x20 ADD PUSH1 0x40 MLOAD DUP1 SWAP2 SUB SWAP1 KECCAK256 PUSH1 0x0 SWAP1 SSTORE PUSH1 0x4 PUSH1 0x0 DUP3 DUP2 MSTORE PUSH1 0x20 ADD SWAP1 DUP2 MSTORE PUSH1 0x20 ADD PUSH1 0x0 KECCAK256 PUSH1 0x0 PUSH2 0x271 SWAP2 SWAP1 PUSH2 0x5A7 JUMP JUMPDEST POP JUMP JUMPDEST PUSH1 0x0 PUSH1 0x5 DUP3 PUSH1 0x40 MLOAD PUSH2 0x286 SWAP2 SWAP1 PUSH2 0x7F7 JUMP JUMPDEST SWAP1 DUP2 MSTORE PUSH1 0x20 ADD PUSH1 0x40 MLOAD DUP1 SWAP2 SUB SWAP1 KECCAK256 SLOAD SWAP1 POP SWAP2 SWAP1 POP JUMP JUMPDEST PUSH1 0x0 DUP1 DUP3 EQ ISZERO PUSH2 0x2AF JUMPI PUSH1 0x1 SWAP1 POP PUSH2 0x494 JUMP JUMPDEST PUSH1 0x1 DUP3 EQ ISZERO PUSH2 0x34F JUMPI PUSH2 0x348 CALLER PUSH1 0x0 DUP1 SLOAD DUP1 PUSH1 0x20 MUL PUSH1 0x20 ADD PUSH1 0x40 MLOAD SWAP1 DUP2 ADD PUSH1 0x40 MSTORE DUP1 SWAP3 SWAP2 SWAP1 DUP2 DUP2 MSTORE PUSH1 0x20 ADD DUP3 DUP1 SLOAD DUP1 ISZERO PUSH2 0x33E JUMPI PUSH1 0x20 MUL DUP3 ADD SWAP2 SWAP1 PUSH1 0x0 MSTORE PUSH1 0x20 PUSH1 0x0 KECCAK256 SWAP1 JUMPDEST DUP2 PUSH1 0x0 SWAP1 SLOAD SWAP1 PUSH2 0x100 EXP SWAP1 DIV PUSH20 0xFFFFFFFFFFFFFFFFFFFFFFFFFFFFFFFFFFFFFFFF AND PUSH20 0xFFFFFFFFFFFFFFFFFFFFFFFFFFFFFFFFFFFFFFFF AND DUP2 MSTORE PUSH1 0x20 ADD SWAP1 PUSH1 0x1 ADD SWAP1 DUP1 DUP4 GT PUSH2 0x2F4 JUMPI JUMPDEST POP POP POP POP POP PUSH2 0x499 JUMP JUMPDEST SWAP1 POP PUSH2 0x494 JUMP JUMPDEST PUSH1 0x2 DUP3 EQ ISZERO PUSH2 0x3EF JUMPI PUSH2 0x3E8 CALLER PUSH1 0x1 DUP1 SLOAD DUP1 PUSH1 0x20 MUL PUSH1 0x20 ADD PUSH1 0x40 MLOAD SWAP1 DUP2 ADD PUSH1 0x40 MSTORE DUP1 SWAP3 SWAP2 SWAP1 DUP2 DUP2 MSTORE PUSH1 0x20 ADD DUP3 DUP1 SLOAD DUP1 ISZERO PUSH2 0x3DE JUMPI PUSH1 0x20 MUL DUP3 ADD SWAP2 SWAP1 PUSH1 0x0 MSTORE PUSH1 0x20 PUSH1 0x0 KECCAK256 SWAP1 JUMPDEST DUP2 PUSH1 0x0 SWAP1 SLOAD SWAP1 PUSH2 0x100 EXP SWAP1 DIV PUSH20 0xFFFFFFFFFFFFFFFFFFFFFFFFFFFFFFFFFFFFFFFF AND PUSH20 0xFFFFFFFFFFFFFFFFFFFFFFFFFFFFFFFFFFFFFFFF AND DUP2 MSTORE PUSH1 0x20 ADD SWAP1 PUSH1 0x1 ADD SWAP1 DUP1 DUP4 GT PUSH2 0x394 JUMPI JUMPDEST POP POP POP POP POP PUSH2 0x499 JUMP JUMPDEST SWAP1 POP PUSH2 0x494 JUMP JUMPDEST PUSH1 0x3 DUP3 EQ ISZERO PUSH2 0x48F JUMPI PUSH2 0x488 CALLER PUSH1 0x2 DUP1 SLOAD DUP1 PUSH1 0x20 MUL PUSH1 0x20 ADD PUSH1 0x40 MLOAD SWAP1 DUP2 ADD PUSH1 0x40 MSTORE DUP1 SWAP3 SWAP2 SWAP1 DUP2 DUP2 MSTORE PUSH1 0x20 ADD DUP3 DUP1 SLOAD DUP1 ISZERO PUSH2 0x47E JUMPI PUSH1 0x20 MUL DUP3 ADD SWAP2 SWAP1 PUSH1 0x0 MSTORE PUSH1 0x20 PUSH1 0x0 KECCAK256 SWAP1 JUMPDEST DUP2 PUSH1 0x0 SWAP1 SLOAD SWAP1 PUSH2 0x100 EXP SWAP1 DIV PUSH20 0xFFFFFFFFFFFFFFFFFFFFFFFFFFFFFFFFFFFFFFFF AND PUSH20 0xFFFFFFFFFFFFFFFFFFFFFFFFFFFFFFFFFFFFFFFF AND DUP2 MSTORE PUSH1 0x20 ADD SWAP1 PUSH1 0x1 ADD SWAP1 DUP1 DUP4 GT PUSH2 0x434 JUMPI JUMPDEST POP POP POP POP POP PUSH2 0x499 JUMP JUMPDEST SWAP1 POP PUSH2 0x494 JUMP JUMPDEST PUSH1 0x0 SWAP1 POP JUMPDEST SWAP2 SWAP1 POP JUMP JUMPDEST PUSH1 0x0 DUP1 PUSH1 0x0 SWAP1 POP JUMPDEST DUP3 MLOAD DUP2 LT ISZERO PUSH2 0x515 JUMPI DUP4 PUSH20 0xFFFFFFFFFFFFFFFFFFFFFFFFFFFFFFFFFFFFFFFF AND DUP4 DUP3 DUP2 MLOAD DUP2 LT PUSH2 0x4D4 JUMPI PUSH2 0x4D3 PUSH2 0xA4A JUMP JUMPDEST JUMPDEST PUSH1 0x20 MUL PUSH1 0x20 ADD ADD MLOAD PUSH20 0xFFFFFFFFFFFFFFFFFFFFFFFFFFFFFFFFFFFFFFFF AND EQ ISZERO PUSH2 0x502 JUMPI PUSH1 0x1 SWAP2 POP POP PUSH2 0x51B JUMP JUMPDEST DUP1 DUP1 PUSH2 0x50D SWAP1 PUSH2 0x9A3 JUMP JUMPDEST SWAP2 POP POP PUSH2 0x4A1 JUMP JUMPDEST POP PUSH1 0x0 SWAP1 POP JUMPDEST SWAP3 SWAP2 POP POP JUMP JUMPDEST DUP3 DUP1 SLOAD PUSH2 0x52D SWAP1 PUSH2 0x940 JUMP JUMPDEST SWAP1 PUSH1 0x0 MSTORE PUSH1 0x20 PUSH1 0x0 KECCAK256 SWAP1 PUSH1 0x1F ADD PUSH1 0x20 SWAP1 DIV DUP2 ADD SWAP3 DUP3 PUSH2 0x54F JUMPI PUSH1 0x0 DUP6 SSTORE PUSH2 0x596 JUMP JUMPDEST DUP3 PUSH1 0x1F LT PUSH2 0x568 JUMPI DUP1 MLOAD PUSH1 0xFF NOT AND DUP4 DUP1 ADD OR DUP6 SSTORE PUSH2 0x596 JUMP JUMPDEST DUP3 DUP1 ADD PUSH1 0x1 ADD DUP6 SSTORE DUP3 ISZERO PUSH2 0x596 JUMPI SWAP2 DUP3 ADD JUMPDEST DUP3 DUP2 GT ISZERO PUSH2 0x595 JUMPI DUP3 MLOAD DUP3 SSTORE SWAP2 PUSH1 0x20 ADD SWAP2 SWAP1 PUSH1 0x1 ADD SWAP1 PUSH2 0x57A JUMP JUMPDEST JUMPDEST POP SWAP1 POP PUSH2 0x5A3 SWAP2 SWAP1 PUSH2 0x5E7 JUMP JUMPDEST POP SWAP1 JUMP JUMPDEST POP DUP1 SLOAD PUSH2 0x5B3 SWAP1 PUSH2 0x940 JUMP JUMPDEST PUSH1 0x0 DUP3 SSTORE DUP1 PUSH1 0x1F LT PUSH2 0x5C5 JUMPI POP PUSH2 0x5E4 JUMP JUMPDEST PUSH1 0x1F ADD PUSH1 0x20 SWAP1 DIV SWAP1 PUSH1 0x0 MSTORE PUSH1 0x20 PUSH1 0x0 KECCAK256 SWAP1 DUP2 ADD SWAP1 PUSH2 0x5E3 SWAP2 SWAP1 PUSH2 0x5E7 JUMP JUMPDEST JUMPDEST POP JUMP JUMPDEST JUMPDEST DUP1 DUP3 GT ISZERO PUSH2 0x600 JUMPI PUSH1 0x0 DUP2 PUSH1 0x0 SWAP1 SSTORE POP PUSH1 0x1 ADD PUSH2 0x5E8 JUMP JUMPDEST POP SWAP1 JUMP JUMPDEST PUSH1 0x0 PUSH2 0x617 PUSH2 0x612 DUP5 PUSH2 0x887 JUMP JUMPDEST PUSH2 0x862 JUMP JUMPDEST SWAP1 POP DUP3 DUP2 MSTORE PUSH1 0x20 DUP2 ADD DUP5 DUP5 DUP5 ADD GT ISZERO PUSH2 0x633 JUMPI PUSH2 0x632 PUSH2 0xAAD JUMP JUMPDEST JUMPDEST PUSH2 0x63E DUP5 DUP3 DUP6 PUSH2 0x8FE JUMP JUMPDEST POP SWAP4 SWAP3 POP POP POP JUMP JUMPDEST PUSH1 0x0 DUP3 PUSH1 0x1F DUP4 ADD SLT PUSH2 0x65B JUMPI PUSH2 0x65A PUSH2 0xAA8 JUMP JUMPDEST JUMPDEST DUP2 CALLDATALOAD PUSH2 0x66B DUP5 DUP3 PUSH1 0x20 DUP7 ADD PUSH2 0x604 JUMP JUMPDEST SWAP2 POP POP SWAP3 SWAP2 POP POP JUMP JUMPDEST PUSH1 0x0 DUP2 CALLDATALOAD SWAP1 POP PUSH2 0x683 DUP2 PUSH2 0xACD JUMP JUMPDEST SWAP3 SWAP2 POP POP JUMP JUMPDEST PUSH1 0x0 PUSH1 0x20 DUP3 DUP5 SUB SLT ISZERO PUSH2 0x69F JUMPI PUSH2 0x69E PUSH2 0xAB7 JUMP JUMPDEST JUMPDEST PUSH1 0x0 DUP3 ADD CALLDATALOAD PUSH8 0xFFFFFFFFFFFFFFFF DUP2 GT ISZERO PUSH2 0x6BD JUMPI PUSH2 0x6BC PUSH2 0xAB2 JUMP JUMPDEST JUMPDEST PUSH2 0x6C9 DUP5 DUP3 DUP6 ADD PUSH2 0x646 JUMP JUMPDEST SWAP2 POP POP SWAP3 SWAP2 POP POP JUMP JUMPDEST PUSH1 0x0 PUSH1 0x20 DUP3 DUP5 SUB SLT ISZERO PUSH2 0x6E8 JUMPI PUSH2 0x6E7 PUSH2 0xAB7 JUMP JUMPDEST JUMPDEST PUSH1 0x0 PUSH2 0x6F6 DUP5 DUP3 DUP6 ADD PUSH2 0x674 JUMP JUMPDEST SWAP2 POP POP SWAP3 SWAP2 POP POP JUMP JUMPDEST PUSH1 0x0 PUSH2 0x70A DUP3 PUSH2 0x8CD JUMP JUMPDEST PUSH2 0x714 DUP2 DUP6 PUSH2 0x8D8 JUMP JUMPDEST SWAP4 POP PUSH2 0x724 DUP2 DUP6 PUSH1 0x20 DUP7 ADD PUSH2 0x90D JUMP JUMPDEST PUSH2 0x72D DUP2 PUSH2 0xABC JUMP JUMPDEST DUP5 ADD SWAP2 POP POP SWAP3 SWAP2 POP POP JUMP JUMPDEST PUSH1 0x0 PUSH2 0x743 DUP3 PUSH2 0x8CD JUMP JUMPDEST PUSH2 0x74D DUP2 DUP6 PUSH2 0x8E9 JUMP JUMPDEST SWAP4 POP PUSH2 0x75D DUP2 DUP6 PUSH1 0x20 DUP7 ADD PUSH2 0x90D JUMP JUMPDEST DUP1 DUP5 ADD SWAP2 POP POP SWAP3 SWAP2 POP POP JUMP JUMPDEST PUSH1 0x0 DUP2 SLOAD PUSH2 0x776 DUP2 PUSH2 0x940 JUMP JUMPDEST PUSH2 0x780 DUP2 DUP7 PUSH2 0x8E9 JUMP JUMPDEST SWAP5 POP PUSH1 0x1 DUP3 AND PUSH1 0x0 DUP2 EQ PUSH2 0x79B JUMPI PUSH1 0x1 DUP2 EQ PUSH2 0x7AC JUMPI PUSH2 0x7DF JUMP JUMPDEST PUSH1 0xFF NOT DUP4 AND DUP7 MSTORE DUP2 DUP7 ADD SWAP4 POP PUSH2 0x7DF JUMP JUMPDEST PUSH2 0x7B5 DUP6 PUSH2 0x8B8 JUMP JUMPDEST PUSH1 0x0 JUMPDEST DUP4 DUP2 LT ISZERO PUSH2 0x7D7 JUMPI DUP2 SLOAD DUP2 DUP10 ADD MSTORE PUSH1 0x1 DUP3 ADD SWAP2 POP PUSH1 0x20 DUP2 ADD SWAP1 POP PUSH2 0x7B8 JUMP JUMPDEST DUP4 DUP9 ADD SWAP6 POP POP POP JUMPDEST POP POP POP SWAP3 SWAP2 POP POP JUMP JUMPDEST PUSH2 0x7F1 DUP2 PUSH2 0x8F4 JUMP JUMPDEST DUP3 MSTORE POP POP JUMP JUMPDEST PUSH1 0x0 PUSH2 0x803 DUP3 DUP5 PUSH2 0x738 JUMP JUMPDEST SWAP2 POP DUP2 SWAP1 POP SWAP3 SWAP2 POP POP JUMP JUMPDEST PUSH1 0x0 PUSH2 0x81A DUP3 DUP5 PUSH2 0x769 JUMP JUMPDEST SWAP2 POP DUP2 SWAP1 POP SWAP3 SWAP2 POP POP JUMP JUMPDEST PUSH1 0x0 PUSH1 0x20 DUP3 ADD SWAP1 POP DUP2 DUP2 SUB PUSH1 0x0 DUP4 ADD MSTORE PUSH2 0x83F DUP2 DUP5 PUSH2 0x6FF JUMP JUMPDEST SWAP1 POP SWAP3 SWAP2 POP POP JUMP JUMPDEST PUSH1 0x0 PUSH1 0x20 DUP3 ADD SWAP1 POP PUSH2 0x85C PUSH1 0x0 DUP4 ADD DUP5 PUSH2 0x7E8 JUMP JUMPDEST SWAP3 SWAP2 POP POP JUMP JUMPDEST PUSH1 0x0 PUSH2 0x86C PUSH2 0x87D JUMP JUMPDEST SWAP1 POP PUSH2 0x878 DUP3 DUP3 PUSH2 0x972 JUMP JUMPDEST SWAP2 SWAP1 POP JUMP JUMPDEST PUSH1 0x0 PUSH1 0x40 MLOAD SWAP1 POP SWAP1 JUMP JUMPDEST PUSH1 0x0 PUSH8 0xFFFFFFFFFFFFFFFF DUP3 GT ISZERO PUSH2 0x8A2 JUMPI PUSH2 0x8A1 PUSH2 0xA79 JUMP JUMPDEST JUMPDEST PUSH2 0x8AB DUP3 PUSH2 0xABC JUMP JUMPDEST SWAP1 POP PUSH1 0x20 DUP2 ADD SWAP1 POP SWAP2 SWAP1 POP JUMP JUMPDEST PUSH1 0x0 DUP2 SWAP1 POP DUP2 PUSH1 0x0 MSTORE PUSH1 0x20 PUSH1 0x0 KECCAK256 SWAP1 POP SWAP2 SWAP1 POP JUMP JUMPDEST PUSH1 0x0 DUP2 MLOAD SWAP1 POP SWAP2 SWAP1 POP JUMP JUMPDEST PUSH1 0x0 DUP3 DUP3 MSTORE PUSH1 0x20 DUP3 ADD SWAP1 POP SWAP3 SWAP2 POP POP JUMP JUMPDEST PUSH1 0x0 DUP2 SWAP1 POP SWAP3 SWAP2 POP POP JUMP JUMPDEST PUSH1 0x0 DUP2 SWAP1 POP SWAP2 SWAP1 POP JUMP JUMPDEST DUP3 DUP2 DUP4 CALLDATACOPY PUSH1 0x0 DUP4 DUP4 ADD MSTORE POP POP POP JUMP JUMPDEST PUSH1 0x0 JUMPDEST DUP4 DUP2 LT ISZERO PUSH2 0x92B JUMPI DUP1 DUP3 ADD MLOAD DUP2 DUP5 ADD MSTORE PUSH1 0x20 DUP2 ADD SWAP1 POP PUSH2 0x910 JUMP JUMPDEST DUP4 DUP2 GT ISZERO PUSH2 0x93A JUMPI PUSH1 0x0 DUP5 DUP5 ADD MSTORE JUMPDEST POP POP POP POP JUMP JUMPDEST PUSH1 0x0 PUSH1 0x2 DUP3 DIV SWAP1 POP PUSH1 0x1 DUP3 AND DUP1 PUSH2 0x958 JUMPI PUSH1 0x7F DUP3 AND SWAP2 POP JUMPDEST PUSH1 0x20 DUP3 LT DUP2 EQ ISZERO PUSH2 0x96C JUMPI PUSH2 0x96B PUSH2 0xA1B JUMP JUMPDEST JUMPDEST POP SWAP2 SWAP1 POP JUMP JUMPDEST PUSH2 0x97B DUP3 PUSH2 0xABC JUMP JUMPDEST DUP2 ADD DUP2 DUP2 LT PUSH8 0xFFFFFFFFFFFFFFFF DUP3 GT OR ISZERO PUSH2 0x99A JUMPI PUSH2 0x999 PUSH2 0xA79 JUMP JUMPDEST JUMPDEST DUP1 PUSH1 0x40 MSTORE POP POP POP JUMP JUMPDEST PUSH1 0x0 PUSH2 0x9AE DUP3 PUSH2 0x8F4 JUMP JUMPDEST SWAP2 POP PUSH32 0xFFFFFFFFFFFFFFFFFFFFFFFFFFFFFFFFFFFFFFFFFFFFFFFFFFFFFFFFFFFFFFFF DUP3 EQ ISZERO PUSH2 0x9E1 JUMPI PUSH2 0x9E0 PUSH2 0x9EC JUMP JUMPDEST JUMPDEST PUSH1 0x1 DUP3 ADD SWAP1 POP SWAP2 SWAP1 POP JUMP JUMPDEST PUSH32 0x4E487B7100000000000000000000000000000000000000000000000000000000 PUSH1 0x0 MSTORE PUSH1 0x11 PUSH1 0x4 MSTORE PUSH1 0x24 PUSH1 0x0 REVERT JUMPDEST PUSH32 0x4E487B7100000000000000000000000000000000000000000000000000000000 PUSH1 0x0 MSTORE PUSH1 0x22 PUSH1 0x4 MSTORE PUSH1 0x24 PUSH1 0x0 REVERT JUMPDEST PUSH32 0x4E487B7100000000000000000000000000000000000000000000000000000000 PUSH1 0x0 MSTORE PUSH1 0x32 PUSH1 0x4 MSTORE PUSH1 0x24 PUSH1 0x0 REVERT JUMPDEST PUSH32 0x4E487B7100000000000000000000000000000000000000000000000000000000 PUSH1 0x0 MSTORE PUSH1 0x41 PUSH1 0x4 MSTORE PUSH1 0x24 PUSH1 0x0 REVERT JUMPDEST PUSH1 0x0 DUP1 REVERT JUMPDEST PUSH1 0x0 DUP1 REVERT JUMPDEST PUSH1 0x0 DUP1 REVERT JUMPDEST PUSH1 0x0 DUP1 REVERT JUMPDEST PUSH1 0x0 PUSH1 0x1F NOT PUSH1 0x1F DUP4 ADD AND SWAP1 POP SWAP2 SWAP1 POP JUMP JUMPDEST PUSH2 0xAD6 DUP2 PUSH2 0x8F4 JUMP JUMPDEST DUP2 EQ PUSH2 0xAE1 JUMPI PUSH1 0x0 DUP1 REVERT JUMPDEST POP JUMP INVALID LOG2 PUSH5 0x6970667358 0x22 SLT KECCAK256 0xE9 0x23 0xB2 0xE5 POP LOG3 EXP 0x2B AND RETURNDATACOPY PUSH18 0x70EE96C25680B2B293E42A1C1945C0B158E3 0xD0 PUSH11 0x2A64736F6C634300080700 CALLER "
				},
				"gasEstimates": {
					"creation": {
						"codeDepositCost": "568400",
						"executionCost": "600",
						"totalCost": "569000"
					},
					"external": {
						"agregarTipoDeEvento(string)": "infinite",
						"eliminarTipoDeEvento(uint256)": "infinite",
						"hashANombreTipoDeEvento(uint256)": "infinite",
						"nombreAHashTipoDeEvento(string)": "infinite"
					}
				},
				"methodIdentifiers": {
					"agregarTipoDeEvento(string)": "9c052302",
					"eliminarTipoDeEvento(uint256)": "b708ed0c",
					"hashANombreTipoDeEvento(uint256)": "53eaab32",
					"nombreAHashTipoDeEvento(string)": "beec35d7"
				}
			},
			"storageLayout": {
				"storage": [
					{
						"astId": 137,
						"contract": "Opciones/Eventos/Tipos de eventos/Gestion_tipos_evento.sol:tipos_evento",
						"label": "permiso_mod",
						"offset": 0,
						"slot": "0",
						"type": "t_array(t_address)dyn_storage"
					},
					{
						"astId": 140,
						"contract": "Opciones/Eventos/Tipos de eventos/Gestion_tipos_evento.sol:tipos_evento",
						"label": "permiso_agend",
						"offset": 0,
						"slot": "1",
						"type": "t_array(t_address)dyn_storage"
					},
					{
						"astId": 143,
						"contract": "Opciones/Eventos/Tipos de eventos/Gestion_tipos_evento.sol:tipos_evento",
						"label": "permiso_ver",
						"offset": 0,
						"slot": "2",
						"type": "t_array(t_address)dyn_storage"
					},
					{
						"astId": 145,
						"contract": "Opciones/Eventos/Tipos de eventos/Gestion_tipos_evento.sol:tipos_evento",
						"label": "publico",
						"offset": 0,
						"slot": "3",
						"type": "t_bool"
					},
					{
						"astId": 46,
						"contract": "Opciones/Eventos/Tipos de eventos/Gestion_tipos_evento.sol:tipos_evento",
						"label": "eventos",
						"offset": 0,
						"slot": "4",
						"type": "t_mapping(t_uint256,t_string_storage)"
					},
					{
						"astId": 50,
						"contract": "Opciones/Eventos/Tipos de eventos/Gestion_tipos_evento.sol:tipos_evento",
						"label": "evento_rev",
						"offset": 0,
						"slot": "5",
						"type": "t_mapping(t_string_memory_ptr,t_uint256)"
					}
				],
				"types": {
					"t_address": {
						"encoding": "inplace",
						"label": "address",
						"numberOfBytes": "20"
					},
					"t_array(t_address)dyn_storage": {
						"base": "t_address",
						"encoding": "dynamic_array",
						"label": "address[]",
						"numberOfBytes": "32"
					},
					"t_bool": {
						"encoding": "inplace",
						"label": "bool",
						"numberOfBytes": "1"
					},
					"t_mapping(t_string_memory_ptr,t_uint256)": {
						"encoding": "mapping",
						"key": "t_string_memory_ptr",
						"label": "mapping(string => uint256)",
						"numberOfBytes": "32",
						"value": "t_uint256"
					},
					"t_mapping(t_uint256,t_string_storage)": {
						"encoding": "mapping",
						"key": "t_uint256",
						"label": "mapping(uint256 => string)",
						"numberOfBytes": "32",
						"value": "t_string_storage"
					},
					"t_string_memory_ptr": {
						"encoding": "bytes",
						"label": "string",
						"numberOfBytes": "32"
					},
					"t_string_storage": {
						"encoding": "bytes",
						"label": "string",
						"numberOfBytes": "32"
					},
					"t_uint256": {
						"encoding": "inplace",
						"label": "uint256",
						"numberOfBytes": "32"
					}
				}
			},
			"userdoc": {
				"kind": "user",
				"methods": {},
				"version": 1
			}
		}
	}
}