{
	"Opciones/Gestion_De_Permisos.sol": {
		"permisos": {
			"abi": [
				{
					"inputs": [
						{
							"internalType": "uint256",
							"name": "level",
							"type": "uint256"
						},
						{
							"internalType": "address",
							"name": "user",
							"type": "address"
						}
					],
					"name": "addPermisos",
					"outputs": [],
					"stateMutability": "nonpayable",
					"type": "function"
				},
				{
					"inputs": [
						{
							"internalType": "bool",
							"name": "nval",
							"type": "bool"
						}
					],
					"name": "editPublico",
					"outputs": [],
					"stateMutability": "nonpayable",
					"type": "function"
				},
				{
					"inputs": [],
					"name": "getPermisosStatus",
					"outputs": [
						{
							"internalType": "uint256",
							"name": "",
							"type": "uint256"
						}
					],
					"stateMutability": "view",
					"type": "function"
				},
				{
					"inputs": [
						{
							"internalType": "uint256",
							"name": "level",
							"type": "uint256"
						},
						{
							"internalType": "address",
							"name": "user",
							"type": "address"
						}
					],
					"name": "modifyPermisos",
					"outputs": [],
					"stateMutability": "nonpayable",
					"type": "function"
				},
				{
					"inputs": [
						{
							"internalType": "address",
							"name": "user",
							"type": "address"
						}
					],
					"name": "popPermisos",
					"outputs": [],
					"stateMutability": "nonpayable",
					"type": "function"
				}
			],
			"devdoc": {
				"kind": "dev",
				"methods": {},
				"version": 1
			},
			"evm": {
				"assembly": "    /* \"Opciones/Gestion_De_Permisos.sol\":93:1565  contract permisos is basic_logic{... */\n  mstore(0x40, 0x80)\n  callvalue\n  dup1\n  iszero\n  tag_1\n  jumpi\n  0x00\n  dup1\n  revert\ntag_1:\n  pop\n  dataSize(sub_0)\n  dup1\n  dataOffset(sub_0)\n  0x00\n  codecopy\n  0x00\n  return\nstop\n\nsub_0: assembly {\n        /* \"Opciones/Gestion_De_Permisos.sol\":93:1565  contract permisos is basic_logic{... */\n      mstore(0x40, 0x80)\n      callvalue\n      dup1\n      iszero\n      tag_1\n      jumpi\n      0x00\n      dup1\n      revert\n    tag_1:\n      pop\n      jumpi(tag_2, lt(calldatasize, 0x04))\n      shr(0xe0, calldataload(0x00))\n      dup1\n      0x05f05b5b\n      eq\n      tag_3\n      jumpi\n      dup1\n      0x2ae4a2f0\n      eq\n      tag_4\n      jumpi\n      dup1\n      0xbcb22c78\n      eq\n      tag_5\n      jumpi\n      dup1\n      0xcadde035\n      eq\n      tag_6\n      jumpi\n      dup1\n      0xf3c7aae9\n      eq\n      tag_7\n      jumpi\n    tag_2:\n      0x00\n      dup1\n      revert\n        /* \"Opciones/Gestion_De_Permisos.sol\":1148:1246  function modifyPermisos (uint level, address user) public {... */\n    tag_3:\n      tag_8\n      0x04\n      dup1\n      calldatasize\n      sub\n      dup2\n      add\n      swap1\n      tag_9\n      swap2\n      swap1\n      tag_10\n      jump\t// in\n    tag_9:\n      tag_11\n      jump\t// in\n    tag_8:\n      stop\n        /* \"Opciones/Gestion_De_Permisos.sol\":528:636  function editPublico (bool nval) public{... */\n    tag_4:\n      tag_12\n      0x04\n      dup1\n      calldatasize\n      sub\n      dup2\n      add\n      swap1\n      tag_13\n      swap2\n      swap1\n      tag_14\n      jump\t// in\n    tag_13:\n      tag_15\n      jump\t// in\n    tag_12:\n      stop\n        /* \"Opciones/Gestion_De_Permisos.sol\":1456:1561  function getPermisosStatus() public view returns(uint) {... */\n    tag_5:\n      tag_16\n      tag_17\n      jump\t// in\n    tag_16:\n      mload(0x40)\n      tag_18\n      swap2\n      swap1\n      tag_19\n      jump\t// in\n    tag_18:\n      mload(0x40)\n      dup1\n      swap2\n      sub\n      swap1\n      return\n        /* \"Opciones/Gestion_De_Permisos.sol\":1003:1142  function addPermisos (uint level, address user) public {... */\n    tag_6:\n      tag_20\n      0x04\n      dup1\n      calldatasize\n      sub\n      dup2\n      add\n      swap1\n      tag_21\n      swap2\n      swap1\n      tag_10\n      jump\t// in\n    tag_21:\n      tag_22\n      jump\t// in\n    tag_20:\n      stop\n        /* \"Opciones/Gestion_De_Permisos.sol\":1286:1403  function popPermisos (address user) public {... */\n    tag_7:\n      tag_23\n      0x04\n      dup1\n      calldatasize\n      sub\n      dup2\n      add\n      swap1\n      tag_24\n      swap2\n      swap1\n      tag_25\n      jump\t// in\n    tag_24:\n      tag_26\n      jump\t// in\n    tag_23:\n      stop\n        /* \"Opciones/Gestion_De_Permisos.sol\":1148:1246  function modifyPermisos (uint level, address user) public {... */\n    tag_11:\n        /* \"Opciones/Gestion_De_Permisos.sol\":1216:1239  addPermisos(level,user) */\n      tag_28\n        /* \"Opciones/Gestion_De_Permisos.sol\":1228:1233  level */\n      dup3\n        /* \"Opciones/Gestion_De_Permisos.sol\":1234:1238  user */\n      dup3\n        /* \"Opciones/Gestion_De_Permisos.sol\":1216:1227  addPermisos */\n      tag_22\n        /* \"Opciones/Gestion_De_Permisos.sol\":1216:1239  addPermisos(level,user) */\n      jump\t// in\n    tag_28:\n        /* \"Opciones/Gestion_De_Permisos.sol\":1148:1246  function modifyPermisos (uint level, address user) public {... */\n      pop\n      pop\n      jump\t// out\n        /* \"Opciones/Gestion_De_Permisos.sol\":528:636  function editPublico (bool nval) public{... */\n    tag_15:\n        /* \"Opciones/Gestion_De_Permisos.sol\":585:603  permisosCheck(mod) */\n      tag_30\n        /* \"Opciones/Gestion_De_Permisos.sol\":309:310  3 */\n      0x03\n        /* \"Opciones/Gestion_De_Permisos.sol\":585:598  permisosCheck */\n      tag_31\n        /* \"Opciones/Gestion_De_Permisos.sol\":585:603  permisosCheck(mod) */\n      jump\t// in\n    tag_30:\n        /* \"Opciones/Gestion_De_Permisos.sol\":577:604  require(permisosCheck(mod)) */\n      tag_32\n      jumpi\n      0x00\n      dup1\n      revert\n    tag_32:\n        /* \"Opciones/Gestion_De_Permisos.sol\":624:628  nval */\n      dup1\n        /* \"Opciones/Gestion_De_Permisos.sol\":614:621  publico */\n      0x01\n      0x00\n        /* \"Opciones/Gestion_De_Permisos.sol\":614:628  publico = nval */\n      0x0100\n      exp\n      dup2\n      sload\n      dup2\n      0xff\n      mul\n      not\n      and\n      swap1\n      dup4\n      iszero\n      iszero\n      mul\n      or\n      swap1\n      sstore\n      pop\n        /* \"Opciones/Gestion_De_Permisos.sol\":528:636  function editPublico (bool nval) public{... */\n      pop\n      jump\t// out\n        /* \"Opciones/Gestion_De_Permisos.sol\":1456:1561  function getPermisosStatus() public view returns(uint) {... */\n    tag_17:\n        /* \"Opciones/Gestion_De_Permisos.sol\":1505:1509  uint */\n      0x00\n        /* \"Opciones/Gestion_De_Permisos.sol\":1533:1541  usuarios */\n      dup1\n        /* \"Opciones/Gestion_De_Permisos.sol\":1533:1553  usuarios[msg.sender] */\n      0x00\n        /* \"Opciones/Gestion_De_Permisos.sol\":1542:1552  msg.sender */\n      caller\n        /* \"Opciones/Gestion_De_Permisos.sol\":1533:1553  usuarios[msg.sender] */\n      0xffffffffffffffffffffffffffffffffffffffff\n      and\n      0xffffffffffffffffffffffffffffffffffffffff\n      and\n      dup2\n      mstore\n      0x20\n      add\n      swap1\n      dup2\n      mstore\n      0x20\n      add\n      0x00\n      keccak256\n      0x00\n      swap1\n      sload\n      swap1\n      0x0100\n      exp\n      swap1\n      div\n      0xff\n      and\n        /* \"Opciones/Gestion_De_Permisos.sol\":1528:1554  uint(usuarios[msg.sender]) */\n      0x03\n      dup2\n      gt\n      iszero\n      tag_34\n      jumpi\n      tag_35\n      tag_36\n      jump\t// in\n    tag_35:\n    tag_34:\n        /* \"Opciones/Gestion_De_Permisos.sol\":1521:1554  return uint(usuarios[msg.sender]) */\n      swap1\n      pop\n        /* \"Opciones/Gestion_De_Permisos.sol\":1456:1561  function getPermisosStatus() public view returns(uint) {... */\n      swap1\n      jump\t// out\n        /* \"Opciones/Gestion_De_Permisos.sol\":1003:1142  function addPermisos (uint level, address user) public {... */\n    tag_22:\n        /* \"Opciones/Gestion_De_Permisos.sol\":1076:1094  permisosCheck(mod) */\n      tag_38\n        /* \"Opciones/Gestion_De_Permisos.sol\":309:310  3 */\n      0x03\n        /* \"Opciones/Gestion_De_Permisos.sol\":1076:1089  permisosCheck */\n      tag_31\n        /* \"Opciones/Gestion_De_Permisos.sol\":1076:1094  permisosCheck(mod) */\n      jump\t// in\n    tag_38:\n        /* \"Opciones/Gestion_De_Permisos.sol\":1068:1095  require(permisosCheck(mod)) */\n      tag_39\n      jumpi\n      0x00\n      dup1\n      revert\n    tag_39:\n        /* \"Opciones/Gestion_De_Permisos.sol\":1128:1133  level */\n      dup2\n        /* \"Opciones/Gestion_De_Permisos.sol\":1122:1134  roles(level) */\n      0x03\n      dup2\n      gt\n      iszero\n      tag_40\n      jumpi\n      tag_41\n      tag_36\n      jump\t// in\n    tag_41:\n    tag_40:\n        /* \"Opciones/Gestion_De_Permisos.sol\":1105:1113  usuarios */\n      0x00\n        /* \"Opciones/Gestion_De_Permisos.sol\":1105:1119  usuarios[user] */\n      dup1\n        /* \"Opciones/Gestion_De_Permisos.sol\":1114:1118  user */\n      dup4\n        /* \"Opciones/Gestion_De_Permisos.sol\":1105:1119  usuarios[user] */\n      0xffffffffffffffffffffffffffffffffffffffff\n      and\n      0xffffffffffffffffffffffffffffffffffffffff\n      and\n      dup2\n      mstore\n      0x20\n      add\n      swap1\n      dup2\n      mstore\n      0x20\n      add\n      0x00\n      keccak256\n      0x00\n        /* \"Opciones/Gestion_De_Permisos.sol\":1105:1134  usuarios[user] = roles(level) */\n      0x0100\n      exp\n      dup2\n      sload\n      dup2\n      0xff\n      mul\n      not\n      and\n      swap1\n      dup4\n      0x03\n      dup2\n      gt\n      iszero\n      tag_42\n      jumpi\n      tag_43\n      tag_36\n      jump\t// in\n    tag_43:\n    tag_42:\n      mul\n      or\n      swap1\n      sstore\n      pop\n        /* \"Opciones/Gestion_De_Permisos.sol\":1003:1142  function addPermisos (uint level, address user) public {... */\n      pop\n      pop\n      jump\t// out\n        /* \"Opciones/Gestion_De_Permisos.sol\":1286:1403  function popPermisos (address user) public {... */\n    tag_26:\n        /* \"Opciones/Gestion_De_Permisos.sol\":1343:1361  permisosCheck(mod) */\n      tag_45\n        /* \"Opciones/Gestion_De_Permisos.sol\":309:310  3 */\n      0x03\n        /* \"Opciones/Gestion_De_Permisos.sol\":1343:1356  permisosCheck */\n      tag_31\n        /* \"Opciones/Gestion_De_Permisos.sol\":1343:1361  permisosCheck(mod) */\n      jump\t// in\n    tag_45:\n        /* \"Opciones/Gestion_De_Permisos.sol\":1335:1362  require(permisosCheck(mod)) */\n      tag_46\n      jumpi\n      0x00\n      dup1\n      revert\n    tag_46:\n        /* \"Opciones/Gestion_De_Permisos.sol\":1381:1389  usuarios */\n      0x00\n        /* \"Opciones/Gestion_De_Permisos.sol\":1381:1395  usuarios[user] */\n      dup1\n        /* \"Opciones/Gestion_De_Permisos.sol\":1390:1394  user */\n      dup3\n        /* \"Opciones/Gestion_De_Permisos.sol\":1381:1395  usuarios[user] */\n      0xffffffffffffffffffffffffffffffffffffffff\n      and\n      0xffffffffffffffffffffffffffffffffffffffff\n      and\n      dup2\n      mstore\n      0x20\n      add\n      swap1\n      dup2\n      mstore\n      0x20\n      add\n      0x00\n      keccak256\n      0x00\n        /* \"Opciones/Gestion_De_Permisos.sol\":1374:1395  delete usuarios[user] */\n      0x0100\n      exp\n      dup2\n      sload\n      swap1\n      0xff\n      mul\n      not\n      and\n      swap1\n      sstore\n        /* \"Opciones/Gestion_De_Permisos.sol\":1286:1403  function popPermisos (address user) public {... */\n      pop\n      jump\t// out\n        /* \"Opciones/Gestion_De_Permisos.sol\":732:961  function permisosCheck(uint level) internal view returns(bool){... */\n    tag_31:\n        /* \"Opciones/Gestion_De_Permisos.sol\":789:793  bool */\n      0x00\n        /* \"Opciones/Gestion_De_Permisos.sol\":817:818  0 */\n      dup1\n        /* \"Opciones/Gestion_De_Permisos.sol\":808:813  level */\n      dup3\n        /* \"Opciones/Gestion_De_Permisos.sol\":808:818  level == 0 */\n      eq\n        /* \"Opciones/Gestion_De_Permisos.sol\":808:829  level == 0 && publico */\n      dup1\n      iszero\n      tag_48\n      jumpi\n      pop\n        /* \"Opciones/Gestion_De_Permisos.sol\":822:829  publico */\n      0x01\n      0x00\n      swap1\n      sload\n      swap1\n      0x0100\n      exp\n      swap1\n      div\n      0xff\n      and\n        /* \"Opciones/Gestion_De_Permisos.sol\":808:829  level == 0 && publico */\n    tag_48:\n        /* \"Opciones/Gestion_De_Permisos.sol\":804:954  if (level == 0 && publico) {return true;}... */\n      iszero\n      tag_49\n      jumpi\n        /* \"Opciones/Gestion_De_Permisos.sol\":839:843  true */\n      0x01\n        /* \"Opciones/Gestion_De_Permisos.sol\":832:843  return true */\n      swap1\n      pop\n      jump(tag_47)\n        /* \"Opciones/Gestion_De_Permisos.sol\":804:954  if (level == 0 && publico) {return true;}... */\n    tag_49:\n        /* \"Opciones/Gestion_De_Permisos.sol\":872:873  0 */\n      0x00\n        /* \"Opciones/Gestion_De_Permisos.sol\":863:868  level */\n      dup3\n        /* \"Opciones/Gestion_De_Permisos.sol\":863:873  level != 0 */\n      eq\n      iszero\n        /* \"Opciones/Gestion_De_Permisos.sol\":863:912  level != 0 && level <= uint(usuarios[msg.sender]) */\n      dup1\n      iszero\n      tag_51\n      jumpi\n      pop\n        /* \"Opciones/Gestion_De_Permisos.sol\":891:899  usuarios */\n      0x00\n        /* \"Opciones/Gestion_De_Permisos.sol\":891:911  usuarios[msg.sender] */\n      dup1\n        /* \"Opciones/Gestion_De_Permisos.sol\":900:910  msg.sender */\n      caller\n        /* \"Opciones/Gestion_De_Permisos.sol\":891:911  usuarios[msg.sender] */\n      0xffffffffffffffffffffffffffffffffffffffff\n      and\n      0xffffffffffffffffffffffffffffffffffffffff\n      and\n      dup2\n      mstore\n      0x20\n      add\n      swap1\n      dup2\n      mstore\n      0x20\n      add\n      0x00\n      keccak256\n      0x00\n      swap1\n      sload\n      swap1\n      0x0100\n      exp\n      swap1\n      div\n      0xff\n      and\n        /* \"Opciones/Gestion_De_Permisos.sol\":886:912  uint(usuarios[msg.sender]) */\n      0x03\n      dup2\n      gt\n      iszero\n      tag_52\n      jumpi\n      tag_53\n      tag_36\n      jump\t// in\n    tag_53:\n    tag_52:\n        /* \"Opciones/Gestion_De_Permisos.sol\":877:882  level */\n      dup3\n        /* \"Opciones/Gestion_De_Permisos.sol\":877:912  level <= uint(usuarios[msg.sender]) */\n      gt\n      iszero\n        /* \"Opciones/Gestion_De_Permisos.sol\":863:912  level != 0 && level <= uint(usuarios[msg.sender]) */\n    tag_51:\n        /* \"Opciones/Gestion_De_Permisos.sol\":859:954  if (level != 0 && level <= uint(usuarios[msg.sender])) {return true;}... */\n      iszero\n      tag_54\n      jumpi\n        /* \"Opciones/Gestion_De_Permisos.sol\":922:926  true */\n      0x01\n        /* \"Opciones/Gestion_De_Permisos.sol\":915:926  return true */\n      swap1\n      pop\n      jump(tag_47)\n        /* \"Opciones/Gestion_De_Permisos.sol\":859:954  if (level != 0 && level <= uint(usuarios[msg.sender])) {return true;}... */\n    tag_54:\n        /* \"Opciones/Gestion_De_Permisos.sol\":949:954  false */\n      0x00\n        /* \"Opciones/Gestion_De_Permisos.sol\":942:954  return false */\n      swap1\n      pop\n        /* \"Opciones/Gestion_De_Permisos.sol\":732:961  function permisosCheck(uint level) internal view returns(bool){... */\n    tag_47:\n      swap2\n      swap1\n      pop\n      jump\t// out\n        /* \"#utility.yul\":7:146   */\n    tag_57:\n        /* \"#utility.yul\":53:58   */\n      0x00\n        /* \"#utility.yul\":91:97   */\n      dup2\n        /* \"#utility.yul\":78:98   */\n      calldataload\n        /* \"#utility.yul\":69:98   */\n      swap1\n      pop\n        /* \"#utility.yul\":107:140   */\n      tag_59\n        /* \"#utility.yul\":134:139   */\n      dup2\n        /* \"#utility.yul\":107:140   */\n      tag_60\n      jump\t// in\n    tag_59:\n        /* \"#utility.yul\":7:146   */\n      swap3\n      swap2\n      pop\n      pop\n      jump\t// out\n        /* \"#utility.yul\":152:285   */\n    tag_61:\n        /* \"#utility.yul\":195:200   */\n      0x00\n        /* \"#utility.yul\":233:239   */\n      dup2\n        /* \"#utility.yul\":220:240   */\n      calldataload\n        /* \"#utility.yul\":211:240   */\n      swap1\n      pop\n        /* \"#utility.yul\":249:279   */\n      tag_63\n        /* \"#utility.yul\":273:278   */\n      dup2\n        /* \"#utility.yul\":249:279   */\n      tag_64\n      jump\t// in\n    tag_63:\n        /* \"#utility.yul\":152:285   */\n      swap3\n      swap2\n      pop\n      pop\n      jump\t// out\n        /* \"#utility.yul\":291:430   */\n    tag_65:\n        /* \"#utility.yul\":337:342   */\n      0x00\n        /* \"#utility.yul\":375:381   */\n      dup2\n        /* \"#utility.yul\":362:382   */\n      calldataload\n        /* \"#utility.yul\":353:382   */\n      swap1\n      pop\n        /* \"#utility.yul\":391:424   */\n      tag_67\n        /* \"#utility.yul\":418:423   */\n      dup2\n        /* \"#utility.yul\":391:424   */\n      tag_68\n      jump\t// in\n    tag_67:\n        /* \"#utility.yul\":291:430   */\n      swap3\n      swap2\n      pop\n      pop\n      jump\t// out\n        /* \"#utility.yul\":436:765   */\n    tag_25:\n        /* \"#utility.yul\":495:501   */\n      0x00\n        /* \"#utility.yul\":544:546   */\n      0x20\n        /* \"#utility.yul\":532:541   */\n      dup3\n        /* \"#utility.yul\":523:530   */\n      dup5\n        /* \"#utility.yul\":519:542   */\n      sub\n        /* \"#utility.yul\":515:547   */\n      slt\n        /* \"#utility.yul\":512:631   */\n      iszero\n      tag_70\n      jumpi\n        /* \"#utility.yul\":550:629   */\n      tag_71\n      tag_72\n      jump\t// in\n    tag_71:\n        /* \"#utility.yul\":512:631   */\n    tag_70:\n        /* \"#utility.yul\":670:671   */\n      0x00\n        /* \"#utility.yul\":695:748   */\n      tag_73\n        /* \"#utility.yul\":740:747   */\n      dup5\n        /* \"#utility.yul\":731:737   */\n      dup3\n        /* \"#utility.yul\":720:729   */\n      dup6\n        /* \"#utility.yul\":716:738   */\n      add\n        /* \"#utility.yul\":695:748   */\n      tag_57\n      jump\t// in\n    tag_73:\n        /* \"#utility.yul\":685:748   */\n      swap2\n      pop\n        /* \"#utility.yul\":641:758   */\n      pop\n        /* \"#utility.yul\":436:765   */\n      swap3\n      swap2\n      pop\n      pop\n      jump\t// out\n        /* \"#utility.yul\":771:1094   */\n    tag_14:\n        /* \"#utility.yul\":827:833   */\n      0x00\n        /* \"#utility.yul\":876:878   */\n      0x20\n        /* \"#utility.yul\":864:873   */\n      dup3\n        /* \"#utility.yul\":855:862   */\n      dup5\n        /* \"#utility.yul\":851:874   */\n      sub\n        /* \"#utility.yul\":847:879   */\n      slt\n        /* \"#utility.yul\":844:963   */\n      iszero\n      tag_75\n      jumpi\n        /* \"#utility.yul\":882:961   */\n      tag_76\n      tag_72\n      jump\t// in\n    tag_76:\n        /* \"#utility.yul\":844:963   */\n    tag_75:\n        /* \"#utility.yul\":1002:1003   */\n      0x00\n        /* \"#utility.yul\":1027:1077   */\n      tag_77\n        /* \"#utility.yul\":1069:1076   */\n      dup5\n        /* \"#utility.yul\":1060:1066   */\n      dup3\n        /* \"#utility.yul\":1049:1058   */\n      dup6\n        /* \"#utility.yul\":1045:1067   */\n      add\n        /* \"#utility.yul\":1027:1077   */\n      tag_61\n      jump\t// in\n    tag_77:\n        /* \"#utility.yul\":1017:1077   */\n      swap2\n      pop\n        /* \"#utility.yul\":973:1087   */\n      pop\n        /* \"#utility.yul\":771:1094   */\n      swap3\n      swap2\n      pop\n      pop\n      jump\t// out\n        /* \"#utility.yul\":1100:1574   */\n    tag_10:\n        /* \"#utility.yul\":1168:1174   */\n      0x00\n        /* \"#utility.yul\":1176:1182   */\n      dup1\n        /* \"#utility.yul\":1225:1227   */\n      0x40\n        /* \"#utility.yul\":1213:1222   */\n      dup4\n        /* \"#utility.yul\":1204:1211   */\n      dup6\n        /* \"#utility.yul\":1200:1223   */\n      sub\n        /* \"#utility.yul\":1196:1228   */\n      slt\n        /* \"#utility.yul\":1193:1312   */\n      iszero\n      tag_79\n      jumpi\n        /* \"#utility.yul\":1231:1310   */\n      tag_80\n      tag_72\n      jump\t// in\n    tag_80:\n        /* \"#utility.yul\":1193:1312   */\n    tag_79:\n        /* \"#utility.yul\":1351:1352   */\n      0x00\n        /* \"#utility.yul\":1376:1429   */\n      tag_81\n        /* \"#utility.yul\":1421:1428   */\n      dup6\n        /* \"#utility.yul\":1412:1418   */\n      dup3\n        /* \"#utility.yul\":1401:1410   */\n      dup7\n        /* \"#utility.yul\":1397:1419   */\n      add\n        /* \"#utility.yul\":1376:1429   */\n      tag_65\n      jump\t// in\n    tag_81:\n        /* \"#utility.yul\":1366:1429   */\n      swap3\n      pop\n        /* \"#utility.yul\":1322:1439   */\n      pop\n        /* \"#utility.yul\":1478:1480   */\n      0x20\n        /* \"#utility.yul\":1504:1557   */\n      tag_82\n        /* \"#utility.yul\":1549:1556   */\n      dup6\n        /* \"#utility.yul\":1540:1546   */\n      dup3\n        /* \"#utility.yul\":1529:1538   */\n      dup7\n        /* \"#utility.yul\":1525:1547   */\n      add\n        /* \"#utility.yul\":1504:1557   */\n      tag_57\n      jump\t// in\n    tag_82:\n        /* \"#utility.yul\":1494:1557   */\n      swap2\n      pop\n        /* \"#utility.yul\":1449:1567   */\n      pop\n        /* \"#utility.yul\":1100:1574   */\n      swap3\n      pop\n      swap3\n      swap1\n      pop\n      jump\t// out\n        /* \"#utility.yul\":1580:1698   */\n    tag_83:\n        /* \"#utility.yul\":1667:1691   */\n      tag_85\n        /* \"#utility.yul\":1685:1690   */\n      dup2\n        /* \"#utility.yul\":1667:1691   */\n      tag_86\n      jump\t// in\n    tag_85:\n        /* \"#utility.yul\":1662:1665   */\n      dup3\n        /* \"#utility.yul\":1655:1692   */\n      mstore\n        /* \"#utility.yul\":1580:1698   */\n      pop\n      pop\n      jump\t// out\n        /* \"#utility.yul\":1704:1926   */\n    tag_19:\n        /* \"#utility.yul\":1797:1801   */\n      0x00\n        /* \"#utility.yul\":1835:1837   */\n      0x20\n        /* \"#utility.yul\":1824:1833   */\n      dup3\n        /* \"#utility.yul\":1820:1838   */\n      add\n        /* \"#utility.yul\":1812:1838   */\n      swap1\n      pop\n        /* \"#utility.yul\":1848:1919   */\n      tag_88\n        /* \"#utility.yul\":1916:1917   */\n      0x00\n        /* \"#utility.yul\":1905:1914   */\n      dup4\n        /* \"#utility.yul\":1901:1918   */\n      add\n        /* \"#utility.yul\":1892:1898   */\n      dup5\n        /* \"#utility.yul\":1848:1919   */\n      tag_83\n      jump\t// in\n    tag_88:\n        /* \"#utility.yul\":1704:1926   */\n      swap3\n      swap2\n      pop\n      pop\n      jump\t// out\n        /* \"#utility.yul\":2013:2109   */\n    tag_91:\n        /* \"#utility.yul\":2050:2057   */\n      0x00\n        /* \"#utility.yul\":2079:2103   */\n      tag_93\n        /* \"#utility.yul\":2097:2102   */\n      dup3\n        /* \"#utility.yul\":2079:2103   */\n      tag_94\n      jump\t// in\n    tag_93:\n        /* \"#utility.yul\":2068:2103   */\n      swap1\n      pop\n        /* \"#utility.yul\":2013:2109   */\n      swap2\n      swap1\n      pop\n      jump\t// out\n        /* \"#utility.yul\":2115:2205   */\n    tag_95:\n        /* \"#utility.yul\":2149:2156   */\n      0x00\n        /* \"#utility.yul\":2192:2197   */\n      dup2\n        /* \"#utility.yul\":2185:2198   */\n      iszero\n        /* \"#utility.yul\":2178:2199   */\n      iszero\n        /* \"#utility.yul\":2167:2199   */\n      swap1\n      pop\n        /* \"#utility.yul\":2115:2205   */\n      swap2\n      swap1\n      pop\n      jump\t// out\n        /* \"#utility.yul\":2211:2337   */\n    tag_94:\n        /* \"#utility.yul\":2248:2255   */\n      0x00\n        /* \"#utility.yul\":2288:2330   */\n      0xffffffffffffffffffffffffffffffffffffffff\n        /* \"#utility.yul\":2281:2286   */\n      dup3\n        /* \"#utility.yul\":2277:2331   */\n      and\n        /* \"#utility.yul\":2266:2331   */\n      swap1\n      pop\n        /* \"#utility.yul\":2211:2337   */\n      swap2\n      swap1\n      pop\n      jump\t// out\n        /* \"#utility.yul\":2343:2420   */\n    tag_86:\n        /* \"#utility.yul\":2380:2387   */\n      0x00\n        /* \"#utility.yul\":2409:2414   */\n      dup2\n        /* \"#utility.yul\":2398:2414   */\n      swap1\n      pop\n        /* \"#utility.yul\":2343:2420   */\n      swap2\n      swap1\n      pop\n      jump\t// out\n        /* \"#utility.yul\":2426:2606   */\n    tag_36:\n        /* \"#utility.yul\":2474:2551   */\n      0x4e487b7100000000000000000000000000000000000000000000000000000000\n        /* \"#utility.yul\":2471:2472   */\n      0x00\n        /* \"#utility.yul\":2464:2552   */\n      mstore\n        /* \"#utility.yul\":2571:2575   */\n      0x21\n        /* \"#utility.yul\":2568:2569   */\n      0x04\n        /* \"#utility.yul\":2561:2576   */\n      mstore\n        /* \"#utility.yul\":2595:2599   */\n      0x24\n        /* \"#utility.yul\":2592:2593   */\n      0x00\n        /* \"#utility.yul\":2585:2600   */\n      revert\n        /* \"#utility.yul\":2735:2852   */\n    tag_72:\n        /* \"#utility.yul\":2844:2845   */\n      0x00\n        /* \"#utility.yul\":2841:2842   */\n      dup1\n        /* \"#utility.yul\":2834:2846   */\n      revert\n        /* \"#utility.yul\":2858:2980   */\n    tag_60:\n        /* \"#utility.yul\":2931:2955   */\n      tag_104\n        /* \"#utility.yul\":2949:2954   */\n      dup2\n        /* \"#utility.yul\":2931:2955   */\n      tag_91\n      jump\t// in\n    tag_104:\n        /* \"#utility.yul\":2924:2929   */\n      dup2\n        /* \"#utility.yul\":2921:2956   */\n      eq\n        /* \"#utility.yul\":2911:2974   */\n      tag_105\n      jumpi\n        /* \"#utility.yul\":2970:2971   */\n      0x00\n        /* \"#utility.yul\":2967:2968   */\n      dup1\n        /* \"#utility.yul\":2960:2972   */\n      revert\n        /* \"#utility.yul\":2911:2974   */\n    tag_105:\n        /* \"#utility.yul\":2858:2980   */\n      pop\n      jump\t// out\n        /* \"#utility.yul\":2986:3102   */\n    tag_64:\n        /* \"#utility.yul\":3056:3077   */\n      tag_107\n        /* \"#utility.yul\":3071:3076   */\n      dup2\n        /* \"#utility.yul\":3056:3077   */\n      tag_95\n      jump\t// in\n    tag_107:\n        /* \"#utility.yul\":3049:3054   */\n      dup2\n        /* \"#utility.yul\":3046:3078   */\n      eq\n        /* \"#utility.yul\":3036:3096   */\n      tag_108\n      jumpi\n        /* \"#utility.yul\":3092:3093   */\n      0x00\n        /* \"#utility.yul\":3089:3090   */\n      dup1\n        /* \"#utility.yul\":3082:3094   */\n      revert\n        /* \"#utility.yul\":3036:3096   */\n    tag_108:\n        /* \"#utility.yul\":2986:3102   */\n      pop\n      jump\t// out\n        /* \"#utility.yul\":3108:3230   */\n    tag_68:\n        /* \"#utility.yul\":3181:3205   */\n      tag_110\n        /* \"#utility.yul\":3199:3204   */\n      dup2\n        /* \"#utility.yul\":3181:3205   */\n      tag_86\n      jump\t// in\n    tag_110:\n        /* \"#utility.yul\":3174:3179   */\n      dup2\n        /* \"#utility.yul\":3171:3206   */\n      eq\n        /* \"#utility.yul\":3161:3224   */\n      tag_111\n      jumpi\n        /* \"#utility.yul\":3220:3221   */\n      0x00\n        /* \"#utility.yul\":3217:3218   */\n      dup1\n        /* \"#utility.yul\":3210:3222   */\n      revert\n        /* \"#utility.yul\":3161:3224   */\n    tag_111:\n        /* \"#utility.yul\":3108:3230   */\n      pop\n      jump\t// out\n\n    auxdata: 0xa2646970667358221220a9ac4016da51553bd54c100b901aec19d3f6af0cc2168426d1894a6d3ca543e164736f6c63430008070033\n}\n",
				"bytecode": {
					"linkReferences": {},
					"object": "608060405234801561001057600080fd5b5061052b806100206000396000f3fe608060405234801561001057600080fd5b50600436106100575760003560e01c806305f05b5b1461005c5780632ae4a2f014610078578063bcb22c7814610094578063cadde035146100b2578063f3c7aae9146100ce575b600080fd5b610076600480360381019061007191906103ca565b6100ea565b005b610092600480360381019061008d919061039d565b6100f8565b005b61009c610128565b6040516100a99190610419565b60405180910390f35b6100cc60048036038101906100c791906103ca565b61018d565b005b6100e860048036038101906100e39190610370565b61021c565b005b6100f4828261018d565b5050565b6101026003610280565b61010b57600080fd5b80600160006101000a81548160ff02191690831515021790555050565b60008060003373ffffffffffffffffffffffffffffffffffffffff1673ffffffffffffffffffffffffffffffffffffffff16815260200190815260200160002060009054906101000a900460ff1660038111156101885761018761047c565b5b905090565b6101976003610280565b6101a057600080fd5b8160038111156101b3576101b261047c565b5b6000808373ffffffffffffffffffffffffffffffffffffffff1673ffffffffffffffffffffffffffffffffffffffff16815260200190815260200160002060006101000a81548160ff021916908360038111156102135761021261047c565b5b02179055505050565b6102266003610280565b61022f57600080fd5b6000808273ffffffffffffffffffffffffffffffffffffffff1673ffffffffffffffffffffffffffffffffffffffff16815260200190815260200160002060006101000a81549060ff021916905550565b6000808214801561029d5750600160009054906101000a900460ff165b156102ab576001905061032c565b6000821415801561031957506000803373ffffffffffffffffffffffffffffffffffffffff1673ffffffffffffffffffffffffffffffffffffffff16815260200190815260200160002060009054906101000a900460ff1660038111156103155761031461047c565b5b8211155b15610327576001905061032c565b600090505b919050565b600081359050610340816104b0565b92915050565b600081359050610355816104c7565b92915050565b60008135905061036a816104de565b92915050565b600060208284031215610386576103856104ab565b5b600061039484828501610331565b91505092915050565b6000602082840312156103b3576103b26104ab565b5b60006103c184828501610346565b91505092915050565b600080604083850312156103e1576103e06104ab565b5b60006103ef8582860161035b565b925050602061040085828601610331565b9150509250929050565b61041381610472565b82525050565b600060208201905061042e600083018461040a565b92915050565b600061043f82610452565b9050919050565b60008115159050919050565b600073ffffffffffffffffffffffffffffffffffffffff82169050919050565b6000819050919050565b7f4e487b7100000000000000000000000000000000000000000000000000000000600052602160045260246000fd5b600080fd5b6104b981610434565b81146104c457600080fd5b50565b6104d081610446565b81146104db57600080fd5b50565b6104e781610472565b81146104f257600080fd5b5056fea2646970667358221220a9ac4016da51553bd54c100b901aec19d3f6af0cc2168426d1894a6d3ca543e164736f6c63430008070033",
					"opcodes": "PUSH1 0x80 PUSH1 0x40 MSTORE CALLVALUE DUP1 ISZERO PUSH2 0x10 JUMPI PUSH1 0x0 DUP1 REVERT JUMPDEST POP PUSH2 0x52B DUP1 PUSH2 0x20 PUSH1 0x0 CODECOPY PUSH1 0x0 RETURN INVALID PUSH1 0x80 PUSH1 0x40 MSTORE CALLVALUE DUP1 ISZERO PUSH2 0x10 JUMPI PUSH1 0x0 DUP1 REVERT JUMPDEST POP PUSH1 0x4 CALLDATASIZE LT PUSH2 0x57 JUMPI PUSH1 0x0 CALLDATALOAD PUSH1 0xE0 SHR DUP1 PUSH4 0x5F05B5B EQ PUSH2 0x5C JUMPI DUP1 PUSH4 0x2AE4A2F0 EQ PUSH2 0x78 JUMPI DUP1 PUSH4 0xBCB22C78 EQ PUSH2 0x94 JUMPI DUP1 PUSH4 0xCADDE035 EQ PUSH2 0xB2 JUMPI DUP1 PUSH4 0xF3C7AAE9 EQ PUSH2 0xCE JUMPI JUMPDEST PUSH1 0x0 DUP1 REVERT JUMPDEST PUSH2 0x76 PUSH1 0x4 DUP1 CALLDATASIZE SUB DUP2 ADD SWAP1 PUSH2 0x71 SWAP2 SWAP1 PUSH2 0x3CA JUMP JUMPDEST PUSH2 0xEA JUMP JUMPDEST STOP JUMPDEST PUSH2 0x92 PUSH1 0x4 DUP1 CALLDATASIZE SUB DUP2 ADD SWAP1 PUSH2 0x8D SWAP2 SWAP1 PUSH2 0x39D JUMP JUMPDEST PUSH2 0xF8 JUMP JUMPDEST STOP JUMPDEST PUSH2 0x9C PUSH2 0x128 JUMP JUMPDEST PUSH1 0x40 MLOAD PUSH2 0xA9 SWAP2 SWAP1 PUSH2 0x419 JUMP JUMPDEST PUSH1 0x40 MLOAD DUP1 SWAP2 SUB SWAP1 RETURN JUMPDEST PUSH2 0xCC PUSH1 0x4 DUP1 CALLDATASIZE SUB DUP2 ADD SWAP1 PUSH2 0xC7 SWAP2 SWAP1 PUSH2 0x3CA JUMP JUMPDEST PUSH2 0x18D JUMP JUMPDEST STOP JUMPDEST PUSH2 0xE8 PUSH1 0x4 DUP1 CALLDATASIZE SUB DUP2 ADD SWAP1 PUSH2 0xE3 SWAP2 SWAP1 PUSH2 0x370 JUMP JUMPDEST PUSH2 0x21C JUMP JUMPDEST STOP JUMPDEST PUSH2 0xF4 DUP3 DUP3 PUSH2 0x18D JUMP JUMPDEST POP POP JUMP JUMPDEST PUSH2 0x102 PUSH1 0x3 PUSH2 0x280 JUMP JUMPDEST PUSH2 0x10B JUMPI PUSH1 0x0 DUP1 REVERT JUMPDEST DUP1 PUSH1 0x1 PUSH1 0x0 PUSH2 0x100 EXP DUP2 SLOAD DUP2 PUSH1 0xFF MUL NOT AND SWAP1 DUP4 ISZERO ISZERO MUL OR SWAP1 SSTORE POP POP JUMP JUMPDEST PUSH1 0x0 DUP1 PUSH1 0x0 CALLER PUSH20 0xFFFFFFFFFFFFFFFFFFFFFFFFFFFFFFFFFFFFFFFF AND PUSH20 0xFFFFFFFFFFFFFFFFFFFFFFFFFFFFFFFFFFFFFFFF AND DUP2 MSTORE PUSH1 0x20 ADD SWAP1 DUP2 MSTORE PUSH1 0x20 ADD PUSH1 0x0 KECCAK256 PUSH1 0x0 SWAP1 SLOAD SWAP1 PUSH2 0x100 EXP SWAP1 DIV PUSH1 0xFF AND PUSH1 0x3 DUP2 GT ISZERO PUSH2 0x188 JUMPI PUSH2 0x187 PUSH2 0x47C JUMP JUMPDEST JUMPDEST SWAP1 POP SWAP1 JUMP JUMPDEST PUSH2 0x197 PUSH1 0x3 PUSH2 0x280 JUMP JUMPDEST PUSH2 0x1A0 JUMPI PUSH1 0x0 DUP1 REVERT JUMPDEST DUP2 PUSH1 0x3 DUP2 GT ISZERO PUSH2 0x1B3 JUMPI PUSH2 0x1B2 PUSH2 0x47C JUMP JUMPDEST JUMPDEST PUSH1 0x0 DUP1 DUP4 PUSH20 0xFFFFFFFFFFFFFFFFFFFFFFFFFFFFFFFFFFFFFFFF AND PUSH20 0xFFFFFFFFFFFFFFFFFFFFFFFFFFFFFFFFFFFFFFFF AND DUP2 MSTORE PUSH1 0x20 ADD SWAP1 DUP2 MSTORE PUSH1 0x20 ADD PUSH1 0x0 KECCAK256 PUSH1 0x0 PUSH2 0x100 EXP DUP2 SLOAD DUP2 PUSH1 0xFF MUL NOT AND SWAP1 DUP4 PUSH1 0x3 DUP2 GT ISZERO PUSH2 0x213 JUMPI PUSH2 0x212 PUSH2 0x47C JUMP JUMPDEST JUMPDEST MUL OR SWAP1 SSTORE POP POP POP JUMP JUMPDEST PUSH2 0x226 PUSH1 0x3 PUSH2 0x280 JUMP JUMPDEST PUSH2 0x22F JUMPI PUSH1 0x0 DUP1 REVERT JUMPDEST PUSH1 0x0 DUP1 DUP3 PUSH20 0xFFFFFFFFFFFFFFFFFFFFFFFFFFFFFFFFFFFFFFFF AND PUSH20 0xFFFFFFFFFFFFFFFFFFFFFFFFFFFFFFFFFFFFFFFF AND DUP2 MSTORE PUSH1 0x20 ADD SWAP1 DUP2 MSTORE PUSH1 0x20 ADD PUSH1 0x0 KECCAK256 PUSH1 0x0 PUSH2 0x100 EXP DUP2 SLOAD SWAP1 PUSH1 0xFF MUL NOT AND SWAP1 SSTORE POP JUMP JUMPDEST PUSH1 0x0 DUP1 DUP3 EQ DUP1 ISZERO PUSH2 0x29D JUMPI POP PUSH1 0x1 PUSH1 0x0 SWAP1 SLOAD SWAP1 PUSH2 0x100 EXP SWAP1 DIV PUSH1 0xFF AND JUMPDEST ISZERO PUSH2 0x2AB JUMPI PUSH1 0x1 SWAP1 POP PUSH2 0x32C JUMP JUMPDEST PUSH1 0x0 DUP3 EQ ISZERO DUP1 ISZERO PUSH2 0x319 JUMPI POP PUSH1 0x0 DUP1 CALLER PUSH20 0xFFFFFFFFFFFFFFFFFFFFFFFFFFFFFFFFFFFFFFFF AND PUSH20 0xFFFFFFFFFFFFFFFFFFFFFFFFFFFFFFFFFFFFFFFF AND DUP2 MSTORE PUSH1 0x20 ADD SWAP1 DUP2 MSTORE PUSH1 0x20 ADD PUSH1 0x0 KECCAK256 PUSH1 0x0 SWAP1 SLOAD SWAP1 PUSH2 0x100 EXP SWAP1 DIV PUSH1 0xFF AND PUSH1 0x3 DUP2 GT ISZERO PUSH2 0x315 JUMPI PUSH2 0x314 PUSH2 0x47C JUMP JUMPDEST JUMPDEST DUP3 GT ISZERO JUMPDEST ISZERO PUSH2 0x327 JUMPI PUSH1 0x1 SWAP1 POP PUSH2 0x32C JUMP JUMPDEST PUSH1 0x0 SWAP1 POP JUMPDEST SWAP2 SWAP1 POP JUMP JUMPDEST PUSH1 0x0 DUP2 CALLDATALOAD SWAP1 POP PUSH2 0x340 DUP2 PUSH2 0x4B0 JUMP JUMPDEST SWAP3 SWAP2 POP POP JUMP JUMPDEST PUSH1 0x0 DUP2 CALLDATALOAD SWAP1 POP PUSH2 0x355 DUP2 PUSH2 0x4C7 JUMP JUMPDEST SWAP3 SWAP2 POP POP JUMP JUMPDEST PUSH1 0x0 DUP2 CALLDATALOAD SWAP1 POP PUSH2 0x36A DUP2 PUSH2 0x4DE JUMP JUMPDEST SWAP3 SWAP2 POP POP JUMP JUMPDEST PUSH1 0x0 PUSH1 0x20 DUP3 DUP5 SUB SLT ISZERO PUSH2 0x386 JUMPI PUSH2 0x385 PUSH2 0x4AB JUMP JUMPDEST JUMPDEST PUSH1 0x0 PUSH2 0x394 DUP5 DUP3 DUP6 ADD PUSH2 0x331 JUMP JUMPDEST SWAP2 POP POP SWAP3 SWAP2 POP POP JUMP JUMPDEST PUSH1 0x0 PUSH1 0x20 DUP3 DUP5 SUB SLT ISZERO PUSH2 0x3B3 JUMPI PUSH2 0x3B2 PUSH2 0x4AB JUMP JUMPDEST JUMPDEST PUSH1 0x0 PUSH2 0x3C1 DUP5 DUP3 DUP6 ADD PUSH2 0x346 JUMP JUMPDEST SWAP2 POP POP SWAP3 SWAP2 POP POP JUMP JUMPDEST PUSH1 0x0 DUP1 PUSH1 0x40 DUP4 DUP6 SUB SLT ISZERO PUSH2 0x3E1 JUMPI PUSH2 0x3E0 PUSH2 0x4AB JUMP JUMPDEST JUMPDEST PUSH1 0x0 PUSH2 0x3EF DUP6 DUP3 DUP7 ADD PUSH2 0x35B JUMP JUMPDEST SWAP3 POP POP PUSH1 0x20 PUSH2 0x400 DUP6 DUP3 DUP7 ADD PUSH2 0x331 JUMP JUMPDEST SWAP2 POP POP SWAP3 POP SWAP3 SWAP1 POP JUMP JUMPDEST PUSH2 0x413 DUP2 PUSH2 0x472 JUMP JUMPDEST DUP3 MSTORE POP POP JUMP JUMPDEST PUSH1 0x0 PUSH1 0x20 DUP3 ADD SWAP1 POP PUSH2 0x42E PUSH1 0x0 DUP4 ADD DUP5 PUSH2 0x40A JUMP JUMPDEST SWAP3 SWAP2 POP POP JUMP JUMPDEST PUSH1 0x0 PUSH2 0x43F DUP3 PUSH2 0x452 JUMP JUMPDEST SWAP1 POP SWAP2 SWAP1 POP JUMP JUMPDEST PUSH1 0x0 DUP2 ISZERO ISZERO SWAP1 POP SWAP2 SWAP1 POP JUMP JUMPDEST PUSH1 0x0 PUSH20 0xFFFFFFFFFFFFFFFFFFFFFFFFFFFFFFFFFFFFFFFF DUP3 AND SWAP1 POP SWAP2 SWAP1 POP JUMP JUMPDEST PUSH1 0x0 DUP2 SWAP1 POP SWAP2 SWAP1 POP JUMP JUMPDEST PUSH32 0x4E487B7100000000000000000000000000000000000000000000000000000000 PUSH1 0x0 MSTORE PUSH1 0x21 PUSH1 0x4 MSTORE PUSH1 0x24 PUSH1 0x0 REVERT JUMPDEST PUSH1 0x0 DUP1 REVERT JUMPDEST PUSH2 0x4B9 DUP2 PUSH2 0x434 JUMP JUMPDEST DUP2 EQ PUSH2 0x4C4 JUMPI PUSH1 0x0 DUP1 REVERT JUMPDEST POP JUMP JUMPDEST PUSH2 0x4D0 DUP2 PUSH2 0x446 JUMP JUMPDEST DUP2 EQ PUSH2 0x4DB JUMPI PUSH1 0x0 DUP1 REVERT JUMPDEST POP JUMP JUMPDEST PUSH2 0x4E7 DUP2 PUSH2 0x472 JUMP JUMPDEST DUP2 EQ PUSH2 0x4F2 JUMPI PUSH1 0x0 DUP1 REVERT JUMPDEST POP JUMP INVALID LOG2 PUSH5 0x6970667358 0x22 SLT KECCAK256 0xA9 0xAC BLOCKHASH AND 0xDA MLOAD SSTORE EXTCODESIZE 0xD5 0x4C LT SIGNEXTEND SWAP1 BYTE 0xEC NOT 0xD3 0xF6 0xAF 0xC 0xC2 AND DUP5 0x26 0xD1 DUP10 0x4A PUSH14 0x3CA543E164736F6C634300080700 CALLER "
				},
				"gasEstimates": {
					"creation": {
						"codeDepositCost": "264600",
						"executionCost": "306",
						"totalCost": "264906"
					},
					"external": {
						"addPermisos(uint256,address)": "27506",
						"editPublico(bool)": "27110",
						"getPermisosStatus()": "2610",
						"modifyPermisos(uint256,address)": "27474",
						"popPermisos(address)": "27284"
					},
					"internal": {
						"permisosCheck(uint256)": "4546"
					}
				},
				"methodIdentifiers": {
					"addPermisos(uint256,address)": "cadde035",
					"editPublico(bool)": "2ae4a2f0",
					"getPermisosStatus()": "bcb22c78",
					"modifyPermisos(uint256,address)": "05f05b5b",
					"popPermisos(address)": "f3c7aae9"
				}
			},
			"storageLayout": {
				"storage": [
					{
						"astId": 217,
						"contract": "Opciones/Gestion_De_Permisos.sol:permisos",
						"label": "usuarios",
						"offset": 0,
						"slot": "0",
						"type": "t_mapping(t_address,t_enum(roles)200)"
					},
					{
						"astId": 219,
						"contract": "Opciones/Gestion_De_Permisos.sol:permisos",
						"label": "publico",
						"offset": 0,
						"slot": "1",
						"type": "t_bool"
					}
				],
				"types": {
					"t_address": {
						"encoding": "inplace",
						"label": "address",
						"numberOfBytes": "20"
					},
					"t_bool": {
						"encoding": "inplace",
						"label": "bool",
						"numberOfBytes": "1"
					},
					"t_enum(roles)200": {
						"encoding": "inplace",
						"label": "enum permisos.roles",
						"numberOfBytes": "1"
					},
					"t_mapping(t_address,t_enum(roles)200)": {
						"encoding": "mapping",
						"key": "t_address",
						"label": "mapping(address => enum permisos.roles)",
						"numberOfBytes": "32",
						"value": "t_enum(roles)200"
					}
				}
			},
			"userdoc": {
				"kind": "user",
				"methods": {},
				"version": 1
			}
		}
	}
}