{
	"Opciones/Eventos/Gestion_De_Eventos.sol": {
		"gestion_de_eventos": {
			"abi": [
				{
					"inputs": [
						{
							"internalType": "uint256",
							"name": "level",
							"type": "uint256"
						},
						{
							"internalType": "address",
							"name": "user",
							"type": "address"
						}
					],
					"name": "addPermisos",
					"outputs": [],
					"stateMutability": "nonpayable",
					"type": "function"
				},
				{
					"inputs": [
						{
							"internalType": "string",
							"name": "nombre",
							"type": "string"
						}
					],
					"name": "agregarTipoDeEvento",
					"outputs": [],
					"stateMutability": "nonpayable",
					"type": "function"
				},
				{
					"inputs": [
						{
							"internalType": "bool",
							"name": "nval",
							"type": "bool"
						}
					],
					"name": "editPublico",
					"outputs": [],
					"stateMutability": "nonpayable",
					"type": "function"
				},
				{
					"inputs": [
						{
							"internalType": "uint256",
							"name": "hash",
							"type": "uint256"
						}
					],
					"name": "eliminarTipoDeEvento",
					"outputs": [],
					"stateMutability": "nonpayable",
					"type": "function"
				},
				{
					"inputs": [],
					"name": "getPermisosStatus",
					"outputs": [
						{
							"internalType": "uint256",
							"name": "",
							"type": "uint256"
						}
					],
					"stateMutability": "view",
					"type": "function"
				},
				{
					"inputs": [
						{
							"internalType": "uint256",
							"name": "hash",
							"type": "uint256"
						}
					],
					"name": "hashANombreTipoDeEvento",
					"outputs": [
						{
							"internalType": "string",
							"name": "",
							"type": "string"
						}
					],
					"stateMutability": "view",
					"type": "function"
				},
				{
					"inputs": [
						{
							"internalType": "uint256",
							"name": "level",
							"type": "uint256"
						},
						{
							"internalType": "address",
							"name": "user",
							"type": "address"
						}
					],
					"name": "modifyPermisos",
					"outputs": [],
					"stateMutability": "nonpayable",
					"type": "function"
				},
				{
					"inputs": [
						{
							"internalType": "string",
							"name": "nombre",
							"type": "string"
						}
					],
					"name": "nombreAHashTipoDeEvento",
					"outputs": [
						{
							"internalType": "uint256",
							"name": "",
							"type": "uint256"
						}
					],
					"stateMutability": "view",
					"type": "function"
				},
				{
					"inputs": [
						{
							"internalType": "address",
							"name": "user",
							"type": "address"
						}
					],
					"name": "popPermisos",
					"outputs": [],
					"stateMutability": "nonpayable",
					"type": "function"
				}
			],
			"devdoc": {
				"kind": "dev",
				"methods": {},
				"version": 1
			},
			"evm": {
				"assembly": "    /* \"Opciones/Eventos/Gestion_De_Eventos.sol\":149:469  contract gestion_de_eventos is permisos , tipos_evento {... */\n  mstore(0x40, 0x80)\n  callvalue\n  dup1\n  iszero\n  tag_1\n  jumpi\n  0x00\n  dup1\n  revert\ntag_1:\n  pop\n  dataSize(sub_0)\n  dup1\n  dataOffset(sub_0)\n  0x00\n  codecopy\n  0x00\n  return\nstop\n\nsub_0: assembly {\n        /* \"Opciones/Eventos/Gestion_De_Eventos.sol\":149:469  contract gestion_de_eventos is permisos , tipos_evento {... */\n      mstore(0x40, 0x80)\n      callvalue\n      dup1\n      iszero\n      tag_1\n      jumpi\n      0x00\n      dup1\n      revert\n    tag_1:\n      pop\n      jumpi(tag_2, lt(calldatasize, 0x04))\n      shr(0xe0, calldataload(0x00))\n      dup1\n      0xb708ed0c\n      gt\n      tag_12\n      jumpi\n      dup1\n      0xb708ed0c\n      eq\n      tag_7\n      jumpi\n      dup1\n      0xbcb22c78\n      eq\n      tag_8\n      jumpi\n      dup1\n      0xbeec35d7\n      eq\n      tag_9\n      jumpi\n      dup1\n      0xcadde035\n      eq\n      tag_10\n      jumpi\n      dup1\n      0xf3c7aae9\n      eq\n      tag_11\n      jumpi\n      jump(tag_2)\n    tag_12:\n      dup1\n      0x05f05b5b\n      eq\n      tag_3\n      jumpi\n      dup1\n      0x2ae4a2f0\n      eq\n      tag_4\n      jumpi\n      dup1\n      0x53eaab32\n      eq\n      tag_5\n      jumpi\n      dup1\n      0x9c052302\n      eq\n      tag_6\n      jumpi\n    tag_2:\n      0x00\n      dup1\n      revert\n        /* \"Opciones/Gestion_De_Permisos.sol\":1148:1246  function modifyPermisos (uint level, address user) public {... */\n    tag_3:\n      tag_13\n      0x04\n      dup1\n      calldatasize\n      sub\n      dup2\n      add\n      swap1\n      tag_14\n      swap2\n      swap1\n      tag_15\n      jump\t// in\n    tag_14:\n      tag_16\n      jump\t// in\n    tag_13:\n      stop\n        /* \"Opciones/Gestion_De_Permisos.sol\":528:636  function editPublico (bool nval) public{... */\n    tag_4:\n      tag_17\n      0x04\n      dup1\n      calldatasize\n      sub\n      dup2\n      add\n      swap1\n      tag_18\n      swap2\n      swap1\n      tag_19\n      jump\t// in\n    tag_18:\n      tag_20\n      jump\t// in\n    tag_17:\n      stop\n        /* \"Opciones/Eventos/Tipos_de_eventos/Gestion_tipos_evento.sol\":583:685  function hashANombreTipoDeEvento (uint hash) public view returns(string memory){return eventos[hash];} */\n    tag_5:\n      tag_21\n      0x04\n      dup1\n      calldatasize\n      sub\n      dup2\n      add\n      swap1\n      tag_22\n      swap2\n      swap1\n      tag_23\n      jump\t// in\n    tag_22:\n      tag_24\n      jump\t// in\n    tag_21:\n      mload(0x40)\n      tag_25\n      swap2\n      swap1\n      tag_26\n      jump\t// in\n    tag_25:\n      mload(0x40)\n      dup1\n      swap2\n      sub\n      swap1\n      return\n        /* \"Opciones/Eventos/Tipos_de_eventos/Gestion_tipos_evento.sol\":342:577  function agregarTipoDeEvento (string memory nombre) public {... */\n    tag_6:\n      tag_27\n      0x04\n      dup1\n      calldatasize\n      sub\n      dup2\n      add\n      swap1\n      tag_28\n      swap2\n      swap1\n      tag_29\n      jump\t// in\n    tag_28:\n      tag_30\n      jump\t// in\n    tag_27:\n      stop\n        /* \"Opciones/Eventos/Tipos_de_eventos/Gestion_tipos_evento.sol\":806:976  function eliminarTipoDeEvento (uint hash) public {... */\n    tag_7:\n      tag_31\n      0x04\n      dup1\n      calldatasize\n      sub\n      dup2\n      add\n      swap1\n      tag_32\n      swap2\n      swap1\n      tag_23\n      jump\t// in\n    tag_32:\n      tag_33\n      jump\t// in\n    tag_31:\n      stop\n        /* \"Opciones/Gestion_De_Permisos.sol\":1456:1561  function getPermisosStatus() public view returns(uint) {... */\n    tag_8:\n      tag_34\n      tag_35\n      jump\t// in\n    tag_34:\n      mload(0x40)\n      tag_36\n      swap2\n      swap1\n      tag_37\n      jump\t// in\n    tag_36:\n      mload(0x40)\n      dup1\n      swap2\n      sub\n      swap1\n      return\n        /* \"Opciones/Eventos/Tipos_de_eventos/Gestion_tipos_evento.sol\":691:800  function nombreAHashTipoDeEvento (string memory nombre) public view returns(uint){return evento_rev[nombre];} */\n    tag_9:\n      tag_38\n      0x04\n      dup1\n      calldatasize\n      sub\n      dup2\n      add\n      swap1\n      tag_39\n      swap2\n      swap1\n      tag_29\n      jump\t// in\n    tag_39:\n      tag_40\n      jump\t// in\n    tag_38:\n      mload(0x40)\n      tag_41\n      swap2\n      swap1\n      tag_37\n      jump\t// in\n    tag_41:\n      mload(0x40)\n      dup1\n      swap2\n      sub\n      swap1\n      return\n        /* \"Opciones/Gestion_De_Permisos.sol\":1003:1142  function addPermisos (uint level, address user) public {... */\n    tag_10:\n      tag_42\n      0x04\n      dup1\n      calldatasize\n      sub\n      dup2\n      add\n      swap1\n      tag_43\n      swap2\n      swap1\n      tag_15\n      jump\t// in\n    tag_43:\n      tag_44\n      jump\t// in\n    tag_42:\n      stop\n        /* \"Opciones/Gestion_De_Permisos.sol\":1286:1403  function popPermisos (address user) public {... */\n    tag_11:\n      tag_45\n      0x04\n      dup1\n      calldatasize\n      sub\n      dup2\n      add\n      swap1\n      tag_46\n      swap2\n      swap1\n      tag_47\n      jump\t// in\n    tag_46:\n      tag_48\n      jump\t// in\n    tag_45:\n      stop\n        /* \"Opciones/Gestion_De_Permisos.sol\":1148:1246  function modifyPermisos (uint level, address user) public {... */\n    tag_16:\n        /* \"Opciones/Gestion_De_Permisos.sol\":1216:1239  addPermisos(level,user) */\n      tag_50\n        /* \"Opciones/Gestion_De_Permisos.sol\":1228:1233  level */\n      dup3\n        /* \"Opciones/Gestion_De_Permisos.sol\":1234:1238  user */\n      dup3\n        /* \"Opciones/Gestion_De_Permisos.sol\":1216:1227  addPermisos */\n      tag_44\n        /* \"Opciones/Gestion_De_Permisos.sol\":1216:1239  addPermisos(level,user) */\n      jump\t// in\n    tag_50:\n        /* \"Opciones/Gestion_De_Permisos.sol\":1148:1246  function modifyPermisos (uint level, address user) public {... */\n      pop\n      pop\n      jump\t// out\n        /* \"Opciones/Gestion_De_Permisos.sol\":528:636  function editPublico (bool nval) public{... */\n    tag_20:\n        /* \"Opciones/Gestion_De_Permisos.sol\":585:603  permisosCheck(mod) */\n      tag_52\n        /* \"Opciones/Gestion_De_Permisos.sol\":309:310  3 */\n      0x03\n        /* \"Opciones/Gestion_De_Permisos.sol\":585:598  permisosCheck */\n      tag_53\n        /* \"Opciones/Gestion_De_Permisos.sol\":585:603  permisosCheck(mod) */\n      jump\t// in\n    tag_52:\n        /* \"Opciones/Gestion_De_Permisos.sol\":577:604  require(permisosCheck(mod)) */\n      tag_54\n      jumpi\n      0x00\n      dup1\n      revert\n    tag_54:\n        /* \"Opciones/Gestion_De_Permisos.sol\":624:628  nval */\n      dup1\n        /* \"Opciones/Gestion_De_Permisos.sol\":614:621  publico */\n      0x01\n      0x00\n        /* \"Opciones/Gestion_De_Permisos.sol\":614:628  publico = nval */\n      0x0100\n      exp\n      dup2\n      sload\n      dup2\n      0xff\n      mul\n      not\n      and\n      swap1\n      dup4\n      iszero\n      iszero\n      mul\n      or\n      swap1\n      sstore\n      pop\n        /* \"Opciones/Gestion_De_Permisos.sol\":528:636  function editPublico (bool nval) public{... */\n      pop\n      jump\t// out\n        /* \"Opciones/Eventos/Tipos_de_eventos/Gestion_tipos_evento.sol\":583:685  function hashANombreTipoDeEvento (uint hash) public view returns(string memory){return eventos[hash];} */\n    tag_24:\n        /* \"Opciones/Eventos/Tipos_de_eventos/Gestion_tipos_evento.sol\":648:661  string memory */\n      0x60\n        /* \"Opciones/Eventos/Tipos_de_eventos/Gestion_tipos_evento.sol\":670:677  eventos */\n      0x02\n        /* \"Opciones/Eventos/Tipos_de_eventos/Gestion_tipos_evento.sol\":670:683  eventos[hash] */\n      0x00\n        /* \"Opciones/Eventos/Tipos_de_eventos/Gestion_tipos_evento.sol\":678:682  hash */\n      dup4\n        /* \"Opciones/Eventos/Tipos_de_eventos/Gestion_tipos_evento.sol\":670:683  eventos[hash] */\n      dup2\n      mstore\n      0x20\n      add\n      swap1\n      dup2\n      mstore\n      0x20\n      add\n      0x00\n      keccak256\n        /* \"Opciones/Eventos/Tipos_de_eventos/Gestion_tipos_evento.sol\":663:683  return eventos[hash] */\n      dup1\n      sload\n      tag_56\n      swap1\n      tag_57\n      jump\t// in\n    tag_56:\n      dup1\n      0x1f\n      add\n      0x20\n      dup1\n      swap2\n      div\n      mul\n      0x20\n      add\n      mload(0x40)\n      swap1\n      dup2\n      add\n      0x40\n      mstore\n      dup1\n      swap3\n      swap2\n      swap1\n      dup2\n      dup2\n      mstore\n      0x20\n      add\n      dup3\n      dup1\n      sload\n      tag_58\n      swap1\n      tag_57\n      jump\t// in\n    tag_58:\n      dup1\n      iszero\n      tag_59\n      jumpi\n      dup1\n      0x1f\n      lt\n      tag_60\n      jumpi\n      0x0100\n      dup1\n      dup4\n      sload\n      div\n      mul\n      dup4\n      mstore\n      swap2\n      0x20\n      add\n      swap2\n      jump(tag_59)\n    tag_60:\n      dup3\n      add\n      swap2\n      swap1\n      0x00\n      mstore\n      keccak256(0x00, 0x20)\n      swap1\n    tag_61:\n      dup2\n      sload\n      dup2\n      mstore\n      swap1\n      0x01\n      add\n      swap1\n      0x20\n      add\n      dup1\n      dup4\n      gt\n      tag_61\n      jumpi\n      dup3\n      swap1\n      sub\n      0x1f\n      and\n      dup3\n      add\n      swap2\n    tag_59:\n      pop\n      pop\n      pop\n      pop\n      pop\n      swap1\n      pop\n        /* \"Opciones/Eventos/Tipos_de_eventos/Gestion_tipos_evento.sol\":583:685  function hashANombreTipoDeEvento (uint hash) public view returns(string memory){return eventos[hash];} */\n      swap2\n      swap1\n      pop\n      jump\t// out\n        /* \"Opciones/Eventos/Tipos_de_eventos/Gestion_tipos_evento.sol\":342:577  function agregarTipoDeEvento (string memory nombre) public {... */\n    tag_30:\n        /* \"Opciones/Eventos/Tipos_de_eventos/Gestion_tipos_evento.sol\":419:437  permisosCheck(mod) */\n      tag_63\n        /* \"Opciones/Gestion_De_Permisos.sol\":309:310  3 */\n      0x03\n        /* \"Opciones/Eventos/Tipos_de_eventos/Gestion_tipos_evento.sol\":419:432  permisosCheck */\n      tag_53\n        /* \"Opciones/Eventos/Tipos_de_eventos/Gestion_tipos_evento.sol\":419:437  permisosCheck(mod) */\n      jump\t// in\n    tag_63:\n        /* \"Opciones/Eventos/Tipos_de_eventos/Gestion_tipos_evento.sol\":411:438  require(permisosCheck(mod)) */\n      tag_64\n      jumpi\n      0x00\n      dup1\n      revert\n    tag_64:\n        /* \"Opciones/Eventos/Tipos_de_eventos/Gestion_tipos_evento.sol\":448:457  uint hash */\n      0x00\n        /* \"Opciones/Eventos/Tipos_de_eventos/Gestion_tipos_evento.sol\":492:498  nombre */\n      dup2\n        /* \"Opciones/Eventos/Tipos_de_eventos/Gestion_tipos_evento.sol\":475:499  abi.encodePacked(nombre) */\n      add(0x20, mload(0x40))\n      tag_65\n      swap2\n      swap1\n      tag_66\n      jump\t// in\n    tag_65:\n      mload(0x40)\n      0x20\n      dup2\n      dup4\n      sub\n      sub\n      dup2\n      mstore\n      swap1\n      0x40\n      mstore\n        /* \"Opciones/Eventos/Tipos_de_eventos/Gestion_tipos_evento.sol\":465:500  keccak256(abi.encodePacked(nombre)) */\n      dup1\n      mload\n      swap1\n      0x20\n      add\n      keccak256\n        /* \"Opciones/Eventos/Tipos_de_eventos/Gestion_tipos_evento.sol\":460:501  uint(keccak256(abi.encodePacked(nombre))) */\n      0x00\n      shr\n        /* \"Opciones/Eventos/Tipos_de_eventos/Gestion_tipos_evento.sol\":448:501  uint hash = uint(keccak256(abi.encodePacked(nombre))) */\n      swap1\n      pop\n        /* \"Opciones/Eventos/Tipos_de_eventos/Gestion_tipos_evento.sol\":528:534  nombre */\n      dup2\n        /* \"Opciones/Eventos/Tipos_de_eventos/Gestion_tipos_evento.sol\":512:519  eventos */\n      0x02\n        /* \"Opciones/Eventos/Tipos_de_eventos/Gestion_tipos_evento.sol\":512:525  eventos[hash] */\n      0x00\n        /* \"Opciones/Eventos/Tipos_de_eventos/Gestion_tipos_evento.sol\":520:524  hash */\n      dup4\n        /* \"Opciones/Eventos/Tipos_de_eventos/Gestion_tipos_evento.sol\":512:525  eventos[hash] */\n      dup2\n      mstore\n      0x20\n      add\n      swap1\n      dup2\n      mstore\n      0x20\n      add\n      0x00\n      keccak256\n        /* \"Opciones/Eventos/Tipos_de_eventos/Gestion_tipos_evento.sol\":512:534  eventos[hash] = nombre */\n      swap1\n      dup1\n      mload\n      swap1\n      0x20\n      add\n      swap1\n      tag_67\n      swap3\n      swap2\n      swap1\n      tag_68\n      jump\t// in\n    tag_67:\n      pop\n        /* \"Opciones/Eventos/Tipos_de_eventos/Gestion_tipos_evento.sol\":566:570  hash */\n      dup1\n        /* \"Opciones/Eventos/Tipos_de_eventos/Gestion_tipos_evento.sol\":545:555  evento_rev */\n      0x03\n        /* \"Opciones/Eventos/Tipos_de_eventos/Gestion_tipos_evento.sol\":556:562  nombre */\n      dup4\n        /* \"Opciones/Eventos/Tipos_de_eventos/Gestion_tipos_evento.sol\":545:563  evento_rev[nombre] */\n      mload(0x40)\n      tag_69\n      swap2\n      swap1\n      tag_66\n      jump\t// in\n    tag_69:\n      swap1\n      dup2\n      mstore\n      0x20\n      add\n      mload(0x40)\n      dup1\n      swap2\n      sub\n      swap1\n      keccak256\n        /* \"Opciones/Eventos/Tipos_de_eventos/Gestion_tipos_evento.sol\":545:570  evento_rev[nombre] = hash */\n      dup2\n      swap1\n      sstore\n      pop\n        /* \"Opciones/Eventos/Tipos_de_eventos/Gestion_tipos_evento.sol\":401:577  {... */\n      pop\n        /* \"Opciones/Eventos/Tipos_de_eventos/Gestion_tipos_evento.sol\":342:577  function agregarTipoDeEvento (string memory nombre) public {... */\n      pop\n      jump\t// out\n        /* \"Opciones/Eventos/Tipos_de_eventos/Gestion_tipos_evento.sol\":806:976  function eliminarTipoDeEvento (uint hash) public {... */\n    tag_33:\n        /* \"Opciones/Eventos/Tipos_de_eventos/Gestion_tipos_evento.sol\":873:891  permisosCheck(mod) */\n      tag_71\n        /* \"Opciones/Gestion_De_Permisos.sol\":309:310  3 */\n      0x03\n        /* \"Opciones/Eventos/Tipos_de_eventos/Gestion_tipos_evento.sol\":873:886  permisosCheck */\n      tag_53\n        /* \"Opciones/Eventos/Tipos_de_eventos/Gestion_tipos_evento.sol\":873:891  permisosCheck(mod) */\n      jump\t// in\n    tag_71:\n        /* \"Opciones/Eventos/Tipos_de_eventos/Gestion_tipos_evento.sol\":865:892  require(permisosCheck(mod)) */\n      tag_72\n      jumpi\n      0x00\n      dup1\n      revert\n    tag_72:\n        /* \"Opciones/Eventos/Tipos_de_eventos/Gestion_tipos_evento.sol\":909:919  evento_rev */\n      0x03\n        /* \"Opciones/Eventos/Tipos_de_eventos/Gestion_tipos_evento.sol\":920:927  eventos */\n      0x02\n        /* \"Opciones/Eventos/Tipos_de_eventos/Gestion_tipos_evento.sol\":920:933  eventos[hash] */\n      0x00\n        /* \"Opciones/Eventos/Tipos_de_eventos/Gestion_tipos_evento.sol\":928:932  hash */\n      dup4\n        /* \"Opciones/Eventos/Tipos_de_eventos/Gestion_tipos_evento.sol\":920:933  eventos[hash] */\n      dup2\n      mstore\n      0x20\n      add\n      swap1\n      dup2\n      mstore\n      0x20\n      add\n      0x00\n      keccak256\n        /* \"Opciones/Eventos/Tipos_de_eventos/Gestion_tipos_evento.sol\":909:934  evento_rev[eventos[hash]] */\n      mload(0x40)\n      tag_73\n      swap2\n      swap1\n      tag_74\n      jump\t// in\n    tag_73:\n      swap1\n      dup2\n      mstore\n      0x20\n      add\n      mload(0x40)\n      dup1\n      swap2\n      sub\n      swap1\n      keccak256\n        /* \"Opciones/Eventos/Tipos_de_eventos/Gestion_tipos_evento.sol\":902:934  delete evento_rev[eventos[hash]] */\n      0x00\n      swap1\n      sstore\n        /* \"Opciones/Eventos/Tipos_de_eventos/Gestion_tipos_evento.sol\":952:959  eventos */\n      0x02\n        /* \"Opciones/Eventos/Tipos_de_eventos/Gestion_tipos_evento.sol\":952:965  eventos[hash] */\n      0x00\n        /* \"Opciones/Eventos/Tipos_de_eventos/Gestion_tipos_evento.sol\":960:964  hash */\n      dup3\n        /* \"Opciones/Eventos/Tipos_de_eventos/Gestion_tipos_evento.sol\":952:965  eventos[hash] */\n      dup2\n      mstore\n      0x20\n      add\n      swap1\n      dup2\n      mstore\n      0x20\n      add\n      0x00\n      keccak256\n      0x00\n        /* \"Opciones/Eventos/Tipos_de_eventos/Gestion_tipos_evento.sol\":945:965  delete eventos[hash] */\n      tag_75\n      swap2\n      swap1\n      tag_76\n      jump\t// in\n    tag_75:\n        /* \"Opciones/Eventos/Tipos_de_eventos/Gestion_tipos_evento.sol\":806:976  function eliminarTipoDeEvento (uint hash) public {... */\n      pop\n      jump\t// out\n        /* \"Opciones/Gestion_De_Permisos.sol\":1456:1561  function getPermisosStatus() public view returns(uint) {... */\n    tag_35:\n        /* \"Opciones/Gestion_De_Permisos.sol\":1505:1509  uint */\n      0x00\n        /* \"Opciones/Gestion_De_Permisos.sol\":1533:1541  usuarios */\n      dup1\n        /* \"Opciones/Gestion_De_Permisos.sol\":1533:1553  usuarios[msg.sender] */\n      0x00\n        /* \"Opciones/Gestion_De_Permisos.sol\":1542:1552  msg.sender */\n      caller\n        /* \"Opciones/Gestion_De_Permisos.sol\":1533:1553  usuarios[msg.sender] */\n      0xffffffffffffffffffffffffffffffffffffffff\n      and\n      0xffffffffffffffffffffffffffffffffffffffff\n      and\n      dup2\n      mstore\n      0x20\n      add\n      swap1\n      dup2\n      mstore\n      0x20\n      add\n      0x00\n      keccak256\n      0x00\n      swap1\n      sload\n      swap1\n      0x0100\n      exp\n      swap1\n      div\n      0xff\n      and\n        /* \"Opciones/Gestion_De_Permisos.sol\":1528:1554  uint(usuarios[msg.sender]) */\n      0x03\n      dup2\n      gt\n      iszero\n      tag_78\n      jumpi\n      tag_79\n      tag_80\n      jump\t// in\n    tag_79:\n    tag_78:\n        /* \"Opciones/Gestion_De_Permisos.sol\":1521:1554  return uint(usuarios[msg.sender]) */\n      swap1\n      pop\n        /* \"Opciones/Gestion_De_Permisos.sol\":1456:1561  function getPermisosStatus() public view returns(uint) {... */\n      swap1\n      jump\t// out\n        /* \"Opciones/Eventos/Tipos_de_eventos/Gestion_tipos_evento.sol\":691:800  function nombreAHashTipoDeEvento (string memory nombre) public view returns(uint){return evento_rev[nombre];} */\n    tag_40:\n        /* \"Opciones/Eventos/Tipos_de_eventos/Gestion_tipos_evento.sol\":767:771  uint */\n      0x00\n        /* \"Opciones/Eventos/Tipos_de_eventos/Gestion_tipos_evento.sol\":780:790  evento_rev */\n      0x03\n        /* \"Opciones/Eventos/Tipos_de_eventos/Gestion_tipos_evento.sol\":791:797  nombre */\n      dup3\n        /* \"Opciones/Eventos/Tipos_de_eventos/Gestion_tipos_evento.sol\":780:798  evento_rev[nombre] */\n      mload(0x40)\n      tag_82\n      swap2\n      swap1\n      tag_66\n      jump\t// in\n    tag_82:\n      swap1\n      dup2\n      mstore\n      0x20\n      add\n      mload(0x40)\n      dup1\n      swap2\n      sub\n      swap1\n      keccak256\n      sload\n        /* \"Opciones/Eventos/Tipos_de_eventos/Gestion_tipos_evento.sol\":773:798  return evento_rev[nombre] */\n      swap1\n      pop\n        /* \"Opciones/Eventos/Tipos_de_eventos/Gestion_tipos_evento.sol\":691:800  function nombreAHashTipoDeEvento (string memory nombre) public view returns(uint){return evento_rev[nombre];} */\n      swap2\n      swap1\n      pop\n      jump\t// out\n        /* \"Opciones/Gestion_De_Permisos.sol\":1003:1142  function addPermisos (uint level, address user) public {... */\n    tag_44:\n        /* \"Opciones/Gestion_De_Permisos.sol\":1076:1094  permisosCheck(mod) */\n      tag_84\n        /* \"Opciones/Gestion_De_Permisos.sol\":309:310  3 */\n      0x03\n        /* \"Opciones/Gestion_De_Permisos.sol\":1076:1089  permisosCheck */\n      tag_53\n        /* \"Opciones/Gestion_De_Permisos.sol\":1076:1094  permisosCheck(mod) */\n      jump\t// in\n    tag_84:\n        /* \"Opciones/Gestion_De_Permisos.sol\":1068:1095  require(permisosCheck(mod)) */\n      tag_85\n      jumpi\n      0x00\n      dup1\n      revert\n    tag_85:\n        /* \"Opciones/Gestion_De_Permisos.sol\":1128:1133  level */\n      dup2\n        /* \"Opciones/Gestion_De_Permisos.sol\":1122:1134  roles(level) */\n      0x03\n      dup2\n      gt\n      iszero\n      tag_86\n      jumpi\n      tag_87\n      tag_80\n      jump\t// in\n    tag_87:\n    tag_86:\n        /* \"Opciones/Gestion_De_Permisos.sol\":1105:1113  usuarios */\n      0x00\n        /* \"Opciones/Gestion_De_Permisos.sol\":1105:1119  usuarios[user] */\n      dup1\n        /* \"Opciones/Gestion_De_Permisos.sol\":1114:1118  user */\n      dup4\n        /* \"Opciones/Gestion_De_Permisos.sol\":1105:1119  usuarios[user] */\n      0xffffffffffffffffffffffffffffffffffffffff\n      and\n      0xffffffffffffffffffffffffffffffffffffffff\n      and\n      dup2\n      mstore\n      0x20\n      add\n      swap1\n      dup2\n      mstore\n      0x20\n      add\n      0x00\n      keccak256\n      0x00\n        /* \"Opciones/Gestion_De_Permisos.sol\":1105:1134  usuarios[user] = roles(level) */\n      0x0100\n      exp\n      dup2\n      sload\n      dup2\n      0xff\n      mul\n      not\n      and\n      swap1\n      dup4\n      0x03\n      dup2\n      gt\n      iszero\n      tag_88\n      jumpi\n      tag_89\n      tag_80\n      jump\t// in\n    tag_89:\n    tag_88:\n      mul\n      or\n      swap1\n      sstore\n      pop\n        /* \"Opciones/Gestion_De_Permisos.sol\":1003:1142  function addPermisos (uint level, address user) public {... */\n      pop\n      pop\n      jump\t// out\n        /* \"Opciones/Gestion_De_Permisos.sol\":1286:1403  function popPermisos (address user) public {... */\n    tag_48:\n        /* \"Opciones/Gestion_De_Permisos.sol\":1343:1361  permisosCheck(mod) */\n      tag_91\n        /* \"Opciones/Gestion_De_Permisos.sol\":309:310  3 */\n      0x03\n        /* \"Opciones/Gestion_De_Permisos.sol\":1343:1356  permisosCheck */\n      tag_53\n        /* \"Opciones/Gestion_De_Permisos.sol\":1343:1361  permisosCheck(mod) */\n      jump\t// in\n    tag_91:\n        /* \"Opciones/Gestion_De_Permisos.sol\":1335:1362  require(permisosCheck(mod)) */\n      tag_92\n      jumpi\n      0x00\n      dup1\n      revert\n    tag_92:\n        /* \"Opciones/Gestion_De_Permisos.sol\":1381:1389  usuarios */\n      0x00\n        /* \"Opciones/Gestion_De_Permisos.sol\":1381:1395  usuarios[user] */\n      dup1\n        /* \"Opciones/Gestion_De_Permisos.sol\":1390:1394  user */\n      dup3\n        /* \"Opciones/Gestion_De_Permisos.sol\":1381:1395  usuarios[user] */\n      0xffffffffffffffffffffffffffffffffffffffff\n      and\n      0xffffffffffffffffffffffffffffffffffffffff\n      and\n      dup2\n      mstore\n      0x20\n      add\n      swap1\n      dup2\n      mstore\n      0x20\n      add\n      0x00\n      keccak256\n      0x00\n        /* \"Opciones/Gestion_De_Permisos.sol\":1374:1395  delete usuarios[user] */\n      0x0100\n      exp\n      dup2\n      sload\n      swap1\n      0xff\n      mul\n      not\n      and\n      swap1\n      sstore\n        /* \"Opciones/Gestion_De_Permisos.sol\":1286:1403  function popPermisos (address user) public {... */\n      pop\n      jump\t// out\n        /* \"Opciones/Gestion_De_Permisos.sol\":732:961  function permisosCheck(uint level) internal view returns(bool){... */\n    tag_53:\n        /* \"Opciones/Gestion_De_Permisos.sol\":789:793  bool */\n      0x00\n        /* \"Opciones/Gestion_De_Permisos.sol\":817:818  0 */\n      dup1\n        /* \"Opciones/Gestion_De_Permisos.sol\":808:813  level */\n      dup3\n        /* \"Opciones/Gestion_De_Permisos.sol\":808:818  level == 0 */\n      eq\n        /* \"Opciones/Gestion_De_Permisos.sol\":808:829  level == 0 && publico */\n      dup1\n      iszero\n      tag_94\n      jumpi\n      pop\n        /* \"Opciones/Gestion_De_Permisos.sol\":822:829  publico */\n      0x01\n      0x00\n      swap1\n      sload\n      swap1\n      0x0100\n      exp\n      swap1\n      div\n      0xff\n      and\n        /* \"Opciones/Gestion_De_Permisos.sol\":808:829  level == 0 && publico */\n    tag_94:\n        /* \"Opciones/Gestion_De_Permisos.sol\":804:954  if (level == 0 && publico) {return true;}... */\n      iszero\n      tag_95\n      jumpi\n        /* \"Opciones/Gestion_De_Permisos.sol\":839:843  true */\n      0x01\n        /* \"Opciones/Gestion_De_Permisos.sol\":832:843  return true */\n      swap1\n      pop\n      jump(tag_93)\n        /* \"Opciones/Gestion_De_Permisos.sol\":804:954  if (level == 0 && publico) {return true;}... */\n    tag_95:\n        /* \"Opciones/Gestion_De_Permisos.sol\":872:873  0 */\n      0x00\n        /* \"Opciones/Gestion_De_Permisos.sol\":863:868  level */\n      dup3\n        /* \"Opciones/Gestion_De_Permisos.sol\":863:873  level != 0 */\n      eq\n      iszero\n        /* \"Opciones/Gestion_De_Permisos.sol\":863:912  level != 0 && level <= uint(usuarios[msg.sender]) */\n      dup1\n      iszero\n      tag_97\n      jumpi\n      pop\n        /* \"Opciones/Gestion_De_Permisos.sol\":891:899  usuarios */\n      0x00\n        /* \"Opciones/Gestion_De_Permisos.sol\":891:911  usuarios[msg.sender] */\n      dup1\n        /* \"Opciones/Gestion_De_Permisos.sol\":900:910  msg.sender */\n      caller\n        /* \"Opciones/Gestion_De_Permisos.sol\":891:911  usuarios[msg.sender] */\n      0xffffffffffffffffffffffffffffffffffffffff\n      and\n      0xffffffffffffffffffffffffffffffffffffffff\n      and\n      dup2\n      mstore\n      0x20\n      add\n      swap1\n      dup2\n      mstore\n      0x20\n      add\n      0x00\n      keccak256\n      0x00\n      swap1\n      sload\n      swap1\n      0x0100\n      exp\n      swap1\n      div\n      0xff\n      and\n        /* \"Opciones/Gestion_De_Permisos.sol\":886:912  uint(usuarios[msg.sender]) */\n      0x03\n      dup2\n      gt\n      iszero\n      tag_98\n      jumpi\n      tag_99\n      tag_80\n      jump\t// in\n    tag_99:\n    tag_98:\n        /* \"Opciones/Gestion_De_Permisos.sol\":877:882  level */\n      dup3\n        /* \"Opciones/Gestion_De_Permisos.sol\":877:912  level <= uint(usuarios[msg.sender]) */\n      gt\n      iszero\n        /* \"Opciones/Gestion_De_Permisos.sol\":863:912  level != 0 && level <= uint(usuarios[msg.sender]) */\n    tag_97:\n        /* \"Opciones/Gestion_De_Permisos.sol\":859:954  if (level != 0 && level <= uint(usuarios[msg.sender])) {return true;}... */\n      iszero\n      tag_100\n      jumpi\n        /* \"Opciones/Gestion_De_Permisos.sol\":922:926  true */\n      0x01\n        /* \"Opciones/Gestion_De_Permisos.sol\":915:926  return true */\n      swap1\n      pop\n      jump(tag_93)\n        /* \"Opciones/Gestion_De_Permisos.sol\":859:954  if (level != 0 && level <= uint(usuarios[msg.sender])) {return true;}... */\n    tag_100:\n        /* \"Opciones/Gestion_De_Permisos.sol\":949:954  false */\n      0x00\n        /* \"Opciones/Gestion_De_Permisos.sol\":942:954  return false */\n      swap1\n      pop\n        /* \"Opciones/Gestion_De_Permisos.sol\":732:961  function permisosCheck(uint level) internal view returns(bool){... */\n    tag_93:\n      swap2\n      swap1\n      pop\n      jump\t// out\n    tag_68:\n      dup3\n      dup1\n      sload\n      tag_102\n      swap1\n      tag_57\n      jump\t// in\n    tag_102:\n      swap1\n      0x00\n      mstore\n      keccak256(0x00, 0x20)\n      swap1\n      0x1f\n      add\n      0x20\n      swap1\n      div\n      dup2\n      add\n      swap3\n      dup3\n      tag_104\n      jumpi\n      0x00\n      dup6\n      sstore\n      jump(tag_103)\n    tag_104:\n      dup3\n      0x1f\n      lt\n      tag_105\n      jumpi\n      dup1\n      mload\n      not(0xff)\n      and\n      dup4\n      dup1\n      add\n      or\n      dup6\n      sstore\n      jump(tag_103)\n    tag_105:\n      dup3\n      dup1\n      add\n      0x01\n      add\n      dup6\n      sstore\n      dup3\n      iszero\n      tag_103\n      jumpi\n      swap2\n      dup3\n      add\n    tag_106:\n      dup3\n      dup2\n      gt\n      iszero\n      tag_107\n      jumpi\n      dup3\n      mload\n      dup3\n      sstore\n      swap2\n      0x20\n      add\n      swap2\n      swap1\n      0x01\n      add\n      swap1\n      jump(tag_106)\n    tag_107:\n    tag_103:\n      pop\n      swap1\n      pop\n      tag_108\n      swap2\n      swap1\n      tag_109\n      jump\t// in\n    tag_108:\n      pop\n      swap1\n      jump\t// out\n    tag_76:\n      pop\n      dup1\n      sload\n      tag_110\n      swap1\n      tag_57\n      jump\t// in\n    tag_110:\n      0x00\n      dup3\n      sstore\n      dup1\n      0x1f\n      lt\n      tag_112\n      jumpi\n      pop\n      jump(tag_111)\n    tag_112:\n      0x1f\n      add\n      0x20\n      swap1\n      div\n      swap1\n      0x00\n      mstore\n      keccak256(0x00, 0x20)\n      swap1\n      dup2\n      add\n      swap1\n      tag_113\n      swap2\n      swap1\n      tag_109\n      jump\t// in\n    tag_113:\n    tag_111:\n      pop\n      jump\t// out\n    tag_109:\n    tag_114:\n      dup1\n      dup3\n      gt\n      iszero\n      tag_115\n      jumpi\n      0x00\n      dup2\n      0x00\n      swap1\n      sstore\n      pop\n      0x01\n      add\n      jump(tag_114)\n    tag_115:\n      pop\n      swap1\n      jump\t// out\n        /* \"#utility.yul\":7:419   */\n    tag_117:\n        /* \"#utility.yul\":85:90   */\n      0x00\n        /* \"#utility.yul\":110:176   */\n      tag_119\n        /* \"#utility.yul\":126:175   */\n      tag_120\n        /* \"#utility.yul\":168:174   */\n      dup5\n        /* \"#utility.yul\":126:175   */\n      tag_121\n      jump\t// in\n    tag_120:\n        /* \"#utility.yul\":110:176   */\n      tag_122\n      jump\t// in\n    tag_119:\n        /* \"#utility.yul\":101:176   */\n      swap1\n      pop\n        /* \"#utility.yul\":199:205   */\n      dup3\n        /* \"#utility.yul\":192:197   */\n      dup2\n        /* \"#utility.yul\":185:206   */\n      mstore\n        /* \"#utility.yul\":237:241   */\n      0x20\n        /* \"#utility.yul\":230:235   */\n      dup2\n        /* \"#utility.yul\":226:242   */\n      add\n        /* \"#utility.yul\":275:278   */\n      dup5\n        /* \"#utility.yul\":266:272   */\n      dup5\n        /* \"#utility.yul\":261:264   */\n      dup5\n        /* \"#utility.yul\":257:273   */\n      add\n        /* \"#utility.yul\":254:279   */\n      gt\n        /* \"#utility.yul\":251:363   */\n      iszero\n      tag_123\n      jumpi\n        /* \"#utility.yul\":282:361   */\n      tag_124\n      tag_125\n      jump\t// in\n    tag_124:\n        /* \"#utility.yul\":251:363   */\n    tag_123:\n        /* \"#utility.yul\":372:413   */\n      tag_126\n        /* \"#utility.yul\":406:412   */\n      dup5\n        /* \"#utility.yul\":401:404   */\n      dup3\n        /* \"#utility.yul\":396:399   */\n      dup6\n        /* \"#utility.yul\":372:413   */\n      tag_127\n      jump\t// in\n    tag_126:\n        /* \"#utility.yul\":91:419   */\n      pop\n        /* \"#utility.yul\":7:419   */\n      swap4\n      swap3\n      pop\n      pop\n      pop\n      jump\t// out\n        /* \"#utility.yul\":425:564   */\n    tag_128:\n        /* \"#utility.yul\":471:476   */\n      0x00\n        /* \"#utility.yul\":509:515   */\n      dup2\n        /* \"#utility.yul\":496:516   */\n      calldataload\n        /* \"#utility.yul\":487:516   */\n      swap1\n      pop\n        /* \"#utility.yul\":525:558   */\n      tag_130\n        /* \"#utility.yul\":552:557   */\n      dup2\n        /* \"#utility.yul\":525:558   */\n      tag_131\n      jump\t// in\n    tag_130:\n        /* \"#utility.yul\":425:564   */\n      swap3\n      swap2\n      pop\n      pop\n      jump\t// out\n        /* \"#utility.yul\":570:703   */\n    tag_132:\n        /* \"#utility.yul\":613:618   */\n      0x00\n        /* \"#utility.yul\":651:657   */\n      dup2\n        /* \"#utility.yul\":638:658   */\n      calldataload\n        /* \"#utility.yul\":629:658   */\n      swap1\n      pop\n        /* \"#utility.yul\":667:697   */\n      tag_134\n        /* \"#utility.yul\":691:696   */\n      dup2\n        /* \"#utility.yul\":667:697   */\n      tag_135\n      jump\t// in\n    tag_134:\n        /* \"#utility.yul\":570:703   */\n      swap3\n      swap2\n      pop\n      pop\n      jump\t// out\n        /* \"#utility.yul\":723:1063   */\n    tag_136:\n        /* \"#utility.yul\":779:784   */\n      0x00\n        /* \"#utility.yul\":828:831   */\n      dup3\n        /* \"#utility.yul\":821:825   */\n      0x1f\n        /* \"#utility.yul\":813:819   */\n      dup4\n        /* \"#utility.yul\":809:826   */\n      add\n        /* \"#utility.yul\":805:832   */\n      slt\n        /* \"#utility.yul\":795:917   */\n      tag_138\n      jumpi\n        /* \"#utility.yul\":836:915   */\n      tag_139\n      tag_140\n      jump\t// in\n    tag_139:\n        /* \"#utility.yul\":795:917   */\n    tag_138:\n        /* \"#utility.yul\":953:959   */\n      dup2\n        /* \"#utility.yul\":940:960   */\n      calldataload\n        /* \"#utility.yul\":978:1057   */\n      tag_141\n        /* \"#utility.yul\":1053:1056   */\n      dup5\n        /* \"#utility.yul\":1045:1051   */\n      dup3\n        /* \"#utility.yul\":1038:1042   */\n      0x20\n        /* \"#utility.yul\":1030:1036   */\n      dup7\n        /* \"#utility.yul\":1026:1043   */\n      add\n        /* \"#utility.yul\":978:1057   */\n      tag_117\n      jump\t// in\n    tag_141:\n        /* \"#utility.yul\":969:1057   */\n      swap2\n      pop\n        /* \"#utility.yul\":785:1063   */\n      pop\n        /* \"#utility.yul\":723:1063   */\n      swap3\n      swap2\n      pop\n      pop\n      jump\t// out\n        /* \"#utility.yul\":1069:1208   */\n    tag_142:\n        /* \"#utility.yul\":1115:1120   */\n      0x00\n        /* \"#utility.yul\":1153:1159   */\n      dup2\n        /* \"#utility.yul\":1140:1160   */\n      calldataload\n        /* \"#utility.yul\":1131:1160   */\n      swap1\n      pop\n        /* \"#utility.yul\":1169:1202   */\n      tag_144\n        /* \"#utility.yul\":1196:1201   */\n      dup2\n        /* \"#utility.yul\":1169:1202   */\n      tag_145\n      jump\t// in\n    tag_144:\n        /* \"#utility.yul\":1069:1208   */\n      swap3\n      swap2\n      pop\n      pop\n      jump\t// out\n        /* \"#utility.yul\":1214:1543   */\n    tag_47:\n        /* \"#utility.yul\":1273:1279   */\n      0x00\n        /* \"#utility.yul\":1322:1324   */\n      0x20\n        /* \"#utility.yul\":1310:1319   */\n      dup3\n        /* \"#utility.yul\":1301:1308   */\n      dup5\n        /* \"#utility.yul\":1297:1320   */\n      sub\n        /* \"#utility.yul\":1293:1325   */\n      slt\n        /* \"#utility.yul\":1290:1409   */\n      iszero\n      tag_147\n      jumpi\n        /* \"#utility.yul\":1328:1407   */\n      tag_148\n      tag_149\n      jump\t// in\n    tag_148:\n        /* \"#utility.yul\":1290:1409   */\n    tag_147:\n        /* \"#utility.yul\":1448:1449   */\n      0x00\n        /* \"#utility.yul\":1473:1526   */\n      tag_150\n        /* \"#utility.yul\":1518:1525   */\n      dup5\n        /* \"#utility.yul\":1509:1515   */\n      dup3\n        /* \"#utility.yul\":1498:1507   */\n      dup6\n        /* \"#utility.yul\":1494:1516   */\n      add\n        /* \"#utility.yul\":1473:1526   */\n      tag_128\n      jump\t// in\n    tag_150:\n        /* \"#utility.yul\":1463:1526   */\n      swap2\n      pop\n        /* \"#utility.yul\":1419:1536   */\n      pop\n        /* \"#utility.yul\":1214:1543   */\n      swap3\n      swap2\n      pop\n      pop\n      jump\t// out\n        /* \"#utility.yul\":1549:1872   */\n    tag_19:\n        /* \"#utility.yul\":1605:1611   */\n      0x00\n        /* \"#utility.yul\":1654:1656   */\n      0x20\n        /* \"#utility.yul\":1642:1651   */\n      dup3\n        /* \"#utility.yul\":1633:1640   */\n      dup5\n        /* \"#utility.yul\":1629:1652   */\n      sub\n        /* \"#utility.yul\":1625:1657   */\n      slt\n        /* \"#utility.yul\":1622:1741   */\n      iszero\n      tag_152\n      jumpi\n        /* \"#utility.yul\":1660:1739   */\n      tag_153\n      tag_149\n      jump\t// in\n    tag_153:\n        /* \"#utility.yul\":1622:1741   */\n    tag_152:\n        /* \"#utility.yul\":1780:1781   */\n      0x00\n        /* \"#utility.yul\":1805:1855   */\n      tag_154\n        /* \"#utility.yul\":1847:1854   */\n      dup5\n        /* \"#utility.yul\":1838:1844   */\n      dup3\n        /* \"#utility.yul\":1827:1836   */\n      dup6\n        /* \"#utility.yul\":1823:1845   */\n      add\n        /* \"#utility.yul\":1805:1855   */\n      tag_132\n      jump\t// in\n    tag_154:\n        /* \"#utility.yul\":1795:1855   */\n      swap2\n      pop\n        /* \"#utility.yul\":1751:1865   */\n      pop\n        /* \"#utility.yul\":1549:1872   */\n      swap3\n      swap2\n      pop\n      pop\n      jump\t// out\n        /* \"#utility.yul\":1878:2387   */\n    tag_29:\n        /* \"#utility.yul\":1947:1953   */\n      0x00\n        /* \"#utility.yul\":1996:1998   */\n      0x20\n        /* \"#utility.yul\":1984:1993   */\n      dup3\n        /* \"#utility.yul\":1975:1982   */\n      dup5\n        /* \"#utility.yul\":1971:1994   */\n      sub\n        /* \"#utility.yul\":1967:1999   */\n      slt\n        /* \"#utility.yul\":1964:2083   */\n      iszero\n      tag_156\n      jumpi\n        /* \"#utility.yul\":2002:2081   */\n      tag_157\n      tag_149\n      jump\t// in\n    tag_157:\n        /* \"#utility.yul\":1964:2083   */\n    tag_156:\n        /* \"#utility.yul\":2150:2151   */\n      0x00\n        /* \"#utility.yul\":2139:2148   */\n      dup3\n        /* \"#utility.yul\":2135:2152   */\n      add\n        /* \"#utility.yul\":2122:2153   */\n      calldataload\n        /* \"#utility.yul\":2180:2198   */\n      0xffffffffffffffff\n        /* \"#utility.yul\":2172:2178   */\n      dup2\n        /* \"#utility.yul\":2169:2199   */\n      gt\n        /* \"#utility.yul\":2166:2283   */\n      iszero\n      tag_158\n      jumpi\n        /* \"#utility.yul\":2202:2281   */\n      tag_159\n      tag_160\n      jump\t// in\n    tag_159:\n        /* \"#utility.yul\":2166:2283   */\n    tag_158:\n        /* \"#utility.yul\":2307:2370   */\n      tag_161\n        /* \"#utility.yul\":2362:2369   */\n      dup5\n        /* \"#utility.yul\":2353:2359   */\n      dup3\n        /* \"#utility.yul\":2342:2351   */\n      dup6\n        /* \"#utility.yul\":2338:2360   */\n      add\n        /* \"#utility.yul\":2307:2370   */\n      tag_136\n      jump\t// in\n    tag_161:\n        /* \"#utility.yul\":2297:2370   */\n      swap2\n      pop\n        /* \"#utility.yul\":2093:2380   */\n      pop\n        /* \"#utility.yul\":1878:2387   */\n      swap3\n      swap2\n      pop\n      pop\n      jump\t// out\n        /* \"#utility.yul\":2393:2722   */\n    tag_23:\n        /* \"#utility.yul\":2452:2458   */\n      0x00\n        /* \"#utility.yul\":2501:2503   */\n      0x20\n        /* \"#utility.yul\":2489:2498   */\n      dup3\n        /* \"#utility.yul\":2480:2487   */\n      dup5\n        /* \"#utility.yul\":2476:2499   */\n      sub\n        /* \"#utility.yul\":2472:2504   */\n      slt\n        /* \"#utility.yul\":2469:2588   */\n      iszero\n      tag_163\n      jumpi\n        /* \"#utility.yul\":2507:2586   */\n      tag_164\n      tag_149\n      jump\t// in\n    tag_164:\n        /* \"#utility.yul\":2469:2588   */\n    tag_163:\n        /* \"#utility.yul\":2627:2628   */\n      0x00\n        /* \"#utility.yul\":2652:2705   */\n      tag_165\n        /* \"#utility.yul\":2697:2704   */\n      dup5\n        /* \"#utility.yul\":2688:2694   */\n      dup3\n        /* \"#utility.yul\":2677:2686   */\n      dup6\n        /* \"#utility.yul\":2673:2695   */\n      add\n        /* \"#utility.yul\":2652:2705   */\n      tag_142\n      jump\t// in\n    tag_165:\n        /* \"#utility.yul\":2642:2705   */\n      swap2\n      pop\n        /* \"#utility.yul\":2598:2715   */\n      pop\n        /* \"#utility.yul\":2393:2722   */\n      swap3\n      swap2\n      pop\n      pop\n      jump\t// out\n        /* \"#utility.yul\":2728:3202   */\n    tag_15:\n        /* \"#utility.yul\":2796:2802   */\n      0x00\n        /* \"#utility.yul\":2804:2810   */\n      dup1\n        /* \"#utility.yul\":2853:2855   */\n      0x40\n        /* \"#utility.yul\":2841:2850   */\n      dup4\n        /* \"#utility.yul\":2832:2839   */\n      dup6\n        /* \"#utility.yul\":2828:2851   */\n      sub\n        /* \"#utility.yul\":2824:2856   */\n      slt\n        /* \"#utility.yul\":2821:2940   */\n      iszero\n      tag_167\n      jumpi\n        /* \"#utility.yul\":2859:2938   */\n      tag_168\n      tag_149\n      jump\t// in\n    tag_168:\n        /* \"#utility.yul\":2821:2940   */\n    tag_167:\n        /* \"#utility.yul\":2979:2980   */\n      0x00\n        /* \"#utility.yul\":3004:3057   */\n      tag_169\n        /* \"#utility.yul\":3049:3056   */\n      dup6\n        /* \"#utility.yul\":3040:3046   */\n      dup3\n        /* \"#utility.yul\":3029:3038   */\n      dup7\n        /* \"#utility.yul\":3025:3047   */\n      add\n        /* \"#utility.yul\":3004:3057   */\n      tag_142\n      jump\t// in\n    tag_169:\n        /* \"#utility.yul\":2994:3057   */\n      swap3\n      pop\n        /* \"#utility.yul\":2950:3067   */\n      pop\n        /* \"#utility.yul\":3106:3108   */\n      0x20\n        /* \"#utility.yul\":3132:3185   */\n      tag_170\n        /* \"#utility.yul\":3177:3184   */\n      dup6\n        /* \"#utility.yul\":3168:3174   */\n      dup3\n        /* \"#utility.yul\":3157:3166   */\n      dup7\n        /* \"#utility.yul\":3153:3175   */\n      add\n        /* \"#utility.yul\":3132:3185   */\n      tag_128\n      jump\t// in\n    tag_170:\n        /* \"#utility.yul\":3122:3185   */\n      swap2\n      pop\n        /* \"#utility.yul\":3077:3195   */\n      pop\n        /* \"#utility.yul\":2728:3202   */\n      swap3\n      pop\n      swap3\n      swap1\n      pop\n      jump\t// out\n        /* \"#utility.yul\":3208:3572   */\n    tag_171:\n        /* \"#utility.yul\":3296:3299   */\n      0x00\n        /* \"#utility.yul\":3324:3363   */\n      tag_173\n        /* \"#utility.yul\":3357:3362   */\n      dup3\n        /* \"#utility.yul\":3324:3363   */\n      tag_174\n      jump\t// in\n    tag_173:\n        /* \"#utility.yul\":3379:3450   */\n      tag_175\n        /* \"#utility.yul\":3443:3449   */\n      dup2\n        /* \"#utility.yul\":3438:3441   */\n      dup6\n        /* \"#utility.yul\":3379:3450   */\n      tag_176\n      jump\t// in\n    tag_175:\n        /* \"#utility.yul\":3372:3450   */\n      swap4\n      pop\n        /* \"#utility.yul\":3459:3511   */\n      tag_177\n        /* \"#utility.yul\":3504:3510   */\n      dup2\n        /* \"#utility.yul\":3499:3502   */\n      dup6\n        /* \"#utility.yul\":3492:3496   */\n      0x20\n        /* \"#utility.yul\":3485:3490   */\n      dup7\n        /* \"#utility.yul\":3481:3497   */\n      add\n        /* \"#utility.yul\":3459:3511   */\n      tag_178\n      jump\t// in\n    tag_177:\n        /* \"#utility.yul\":3536:3565   */\n      tag_179\n        /* \"#utility.yul\":3558:3564   */\n      dup2\n        /* \"#utility.yul\":3536:3565   */\n      tag_180\n      jump\t// in\n    tag_179:\n        /* \"#utility.yul\":3531:3534   */\n      dup5\n        /* \"#utility.yul\":3527:3566   */\n      add\n        /* \"#utility.yul\":3520:3566   */\n      swap2\n      pop\n        /* \"#utility.yul\":3300:3572   */\n      pop\n        /* \"#utility.yul\":3208:3572   */\n      swap3\n      swap2\n      pop\n      pop\n      jump\t// out\n        /* \"#utility.yul\":3578:3955   */\n    tag_181:\n        /* \"#utility.yul\":3684:3687   */\n      0x00\n        /* \"#utility.yul\":3712:3751   */\n      tag_183\n        /* \"#utility.yul\":3745:3750   */\n      dup3\n        /* \"#utility.yul\":3712:3751   */\n      tag_174\n      jump\t// in\n    tag_183:\n        /* \"#utility.yul\":3767:3856   */\n      tag_184\n        /* \"#utility.yul\":3849:3855   */\n      dup2\n        /* \"#utility.yul\":3844:3847   */\n      dup6\n        /* \"#utility.yul\":3767:3856   */\n      tag_185\n      jump\t// in\n    tag_184:\n        /* \"#utility.yul\":3760:3856   */\n      swap4\n      pop\n        /* \"#utility.yul\":3865:3917   */\n      tag_186\n        /* \"#utility.yul\":3910:3916   */\n      dup2\n        /* \"#utility.yul\":3905:3908   */\n      dup6\n        /* \"#utility.yul\":3898:3902   */\n      0x20\n        /* \"#utility.yul\":3891:3896   */\n      dup7\n        /* \"#utility.yul\":3887:3903   */\n      add\n        /* \"#utility.yul\":3865:3917   */\n      tag_178\n      jump\t// in\n    tag_186:\n        /* \"#utility.yul\":3942:3948   */\n      dup1\n        /* \"#utility.yul\":3937:3940   */\n      dup5\n        /* \"#utility.yul\":3933:3949   */\n      add\n        /* \"#utility.yul\":3926:3949   */\n      swap2\n      pop\n        /* \"#utility.yul\":3688:3955   */\n      pop\n        /* \"#utility.yul\":3578:3955   */\n      swap3\n      swap2\n      pop\n      pop\n      jump\t// out\n        /* \"#utility.yul\":3985:4830   */\n    tag_187:\n        /* \"#utility.yul\":4088:4091   */\n      0x00\n        /* \"#utility.yul\":4125:4130   */\n      dup2\n        /* \"#utility.yul\":4119:4131   */\n      sload\n        /* \"#utility.yul\":4154:4190   */\n      tag_189\n        /* \"#utility.yul\":4180:4189   */\n      dup2\n        /* \"#utility.yul\":4154:4190   */\n      tag_57\n      jump\t// in\n    tag_189:\n        /* \"#utility.yul\":4206:4295   */\n      tag_190\n        /* \"#utility.yul\":4288:4294   */\n      dup2\n        /* \"#utility.yul\":4283:4286   */\n      dup7\n        /* \"#utility.yul\":4206:4295   */\n      tag_185\n      jump\t// in\n    tag_190:\n        /* \"#utility.yul\":4199:4295   */\n      swap5\n      pop\n        /* \"#utility.yul\":4326:4327   */\n      0x01\n        /* \"#utility.yul\":4315:4324   */\n      dup3\n        /* \"#utility.yul\":4311:4328   */\n      and\n        /* \"#utility.yul\":4342:4343   */\n      0x00\n        /* \"#utility.yul\":4337:4474   */\n      dup2\n      eq\n      tag_192\n      jumpi\n        /* \"#utility.yul\":4488:4489   */\n      0x01\n        /* \"#utility.yul\":4483:4824   */\n      dup2\n      eq\n      tag_193\n      jumpi\n        /* \"#utility.yul\":4304:4824   */\n      jump(tag_191)\n        /* \"#utility.yul\":4337:4474   */\n    tag_192:\n        /* \"#utility.yul\":4421:4425   */\n      0xff\n        /* \"#utility.yul\":4417:4426   */\n      not\n        /* \"#utility.yul\":4406:4415   */\n      dup4\n        /* \"#utility.yul\":4402:4427   */\n      and\n        /* \"#utility.yul\":4397:4400   */\n      dup7\n        /* \"#utility.yul\":4390:4428   */\n      mstore\n        /* \"#utility.yul\":4457:4463   */\n      dup2\n        /* \"#utility.yul\":4452:4455   */\n      dup7\n        /* \"#utility.yul\":4448:4464   */\n      add\n        /* \"#utility.yul\":4441:4464   */\n      swap4\n      pop\n        /* \"#utility.yul\":4337:4474   */\n      jump(tag_191)\n        /* \"#utility.yul\":4483:4824   */\n    tag_193:\n        /* \"#utility.yul\":4550:4588   */\n      tag_194\n        /* \"#utility.yul\":4582:4587   */\n      dup6\n        /* \"#utility.yul\":4550:4588   */\n      tag_195\n      jump\t// in\n    tag_194:\n        /* \"#utility.yul\":4610:4611   */\n      0x00\n        /* \"#utility.yul\":4624:4778   */\n    tag_196:\n        /* \"#utility.yul\":4638:4644   */\n      dup4\n        /* \"#utility.yul\":4635:4636   */\n      dup2\n        /* \"#utility.yul\":4632:4645   */\n      lt\n        /* \"#utility.yul\":4624:4778   */\n      iszero\n      tag_198\n      jumpi\n        /* \"#utility.yul\":4712:4719   */\n      dup2\n        /* \"#utility.yul\":4706:4720   */\n      sload\n        /* \"#utility.yul\":4702:4703   */\n      dup2\n        /* \"#utility.yul\":4697:4700   */\n      dup10\n        /* \"#utility.yul\":4693:4704   */\n      add\n        /* \"#utility.yul\":4686:4721   */\n      mstore\n        /* \"#utility.yul\":4762:4763   */\n      0x01\n        /* \"#utility.yul\":4753:4760   */\n      dup3\n        /* \"#utility.yul\":4749:4764   */\n      add\n        /* \"#utility.yul\":4738:4764   */\n      swap2\n      pop\n        /* \"#utility.yul\":4660:4664   */\n      0x20\n        /* \"#utility.yul\":4657:4658   */\n      dup2\n        /* \"#utility.yul\":4653:4665   */\n      add\n        /* \"#utility.yul\":4648:4665   */\n      swap1\n      pop\n        /* \"#utility.yul\":4624:4778   */\n      jump(tag_196)\n    tag_198:\n        /* \"#utility.yul\":4807:4813   */\n      dup4\n        /* \"#utility.yul\":4802:4805   */\n      dup9\n        /* \"#utility.yul\":4798:4814   */\n      add\n        /* \"#utility.yul\":4791:4814   */\n      swap6\n      pop\n        /* \"#utility.yul\":4490:4824   */\n      pop\n      pop\n        /* \"#utility.yul\":4304:4824   */\n    tag_191:\n      pop\n        /* \"#utility.yul\":4092:4830   */\n      pop\n      pop\n        /* \"#utility.yul\":3985:4830   */\n      swap3\n      swap2\n      pop\n      pop\n      jump\t// out\n        /* \"#utility.yul\":4836:4954   */\n    tag_199:\n        /* \"#utility.yul\":4923:4947   */\n      tag_201\n        /* \"#utility.yul\":4941:4946   */\n      dup2\n        /* \"#utility.yul\":4923:4947   */\n      tag_202\n      jump\t// in\n    tag_201:\n        /* \"#utility.yul\":4918:4921   */\n      dup3\n        /* \"#utility.yul\":4911:4948   */\n      mstore\n        /* \"#utility.yul\":4836:4954   */\n      pop\n      pop\n      jump\t// out\n        /* \"#utility.yul\":4960:5235   */\n    tag_66:\n        /* \"#utility.yul\":5092:5095   */\n      0x00\n        /* \"#utility.yul\":5114:5209   */\n      tag_204\n        /* \"#utility.yul\":5205:5208   */\n      dup3\n        /* \"#utility.yul\":5196:5202   */\n      dup5\n        /* \"#utility.yul\":5114:5209   */\n      tag_181\n      jump\t// in\n    tag_204:\n        /* \"#utility.yul\":5107:5209   */\n      swap2\n      pop\n        /* \"#utility.yul\":5226:5229   */\n      dup2\n        /* \"#utility.yul\":5219:5229   */\n      swap1\n      pop\n        /* \"#utility.yul\":4960:5235   */\n      swap3\n      swap2\n      pop\n      pop\n      jump\t// out\n        /* \"#utility.yul\":5241:5510   */\n    tag_74:\n        /* \"#utility.yul\":5370:5373   */\n      0x00\n        /* \"#utility.yul\":5392:5484   */\n      tag_206\n        /* \"#utility.yul\":5480:5483   */\n      dup3\n        /* \"#utility.yul\":5471:5477   */\n      dup5\n        /* \"#utility.yul\":5392:5484   */\n      tag_187\n      jump\t// in\n    tag_206:\n        /* \"#utility.yul\":5385:5484   */\n      swap2\n      pop\n        /* \"#utility.yul\":5501:5504   */\n      dup2\n        /* \"#utility.yul\":5494:5504   */\n      swap1\n      pop\n        /* \"#utility.yul\":5241:5510   */\n      swap3\n      swap2\n      pop\n      pop\n      jump\t// out\n        /* \"#utility.yul\":5516:5829   */\n    tag_26:\n        /* \"#utility.yul\":5629:5633   */\n      0x00\n        /* \"#utility.yul\":5667:5669   */\n      0x20\n        /* \"#utility.yul\":5656:5665   */\n      dup3\n        /* \"#utility.yul\":5652:5670   */\n      add\n        /* \"#utility.yul\":5644:5670   */\n      swap1\n      pop\n        /* \"#utility.yul\":5716:5725   */\n      dup2\n        /* \"#utility.yul\":5710:5714   */\n      dup2\n        /* \"#utility.yul\":5706:5726   */\n      sub\n        /* \"#utility.yul\":5702:5703   */\n      0x00\n        /* \"#utility.yul\":5691:5700   */\n      dup4\n        /* \"#utility.yul\":5687:5704   */\n      add\n        /* \"#utility.yul\":5680:5727   */\n      mstore\n        /* \"#utility.yul\":5744:5822   */\n      tag_208\n        /* \"#utility.yul\":5817:5821   */\n      dup2\n        /* \"#utility.yul\":5808:5814   */\n      dup5\n        /* \"#utility.yul\":5744:5822   */\n      tag_171\n      jump\t// in\n    tag_208:\n        /* \"#utility.yul\":5736:5822   */\n      swap1\n      pop\n        /* \"#utility.yul\":5516:5829   */\n      swap3\n      swap2\n      pop\n      pop\n      jump\t// out\n        /* \"#utility.yul\":5835:6057   */\n    tag_37:\n        /* \"#utility.yul\":5928:5932   */\n      0x00\n        /* \"#utility.yul\":5966:5968   */\n      0x20\n        /* \"#utility.yul\":5955:5964   */\n      dup3\n        /* \"#utility.yul\":5951:5969   */\n      add\n        /* \"#utility.yul\":5943:5969   */\n      swap1\n      pop\n        /* \"#utility.yul\":5979:6050   */\n      tag_210\n        /* \"#utility.yul\":6047:6048   */\n      0x00\n        /* \"#utility.yul\":6036:6045   */\n      dup4\n        /* \"#utility.yul\":6032:6049   */\n      add\n        /* \"#utility.yul\":6023:6029   */\n      dup5\n        /* \"#utility.yul\":5979:6050   */\n      tag_199\n      jump\t// in\n    tag_210:\n        /* \"#utility.yul\":5835:6057   */\n      swap3\n      swap2\n      pop\n      pop\n      jump\t// out\n        /* \"#utility.yul\":6063:6192   */\n    tag_122:\n        /* \"#utility.yul\":6097:6103   */\n      0x00\n        /* \"#utility.yul\":6124:6144   */\n      tag_212\n      tag_213\n      jump\t// in\n    tag_212:\n        /* \"#utility.yul\":6114:6144   */\n      swap1\n      pop\n        /* \"#utility.yul\":6153:6186   */\n      tag_214\n        /* \"#utility.yul\":6181:6185   */\n      dup3\n        /* \"#utility.yul\":6173:6179   */\n      dup3\n        /* \"#utility.yul\":6153:6186   */\n      tag_215\n      jump\t// in\n    tag_214:\n        /* \"#utility.yul\":6063:6192   */\n      swap2\n      swap1\n      pop\n      jump\t// out\n        /* \"#utility.yul\":6198:6273   */\n    tag_213:\n        /* \"#utility.yul\":6231:6237   */\n      0x00\n        /* \"#utility.yul\":6264:6266   */\n      0x40\n        /* \"#utility.yul\":6258:6267   */\n      mload\n        /* \"#utility.yul\":6248:6267   */\n      swap1\n      pop\n        /* \"#utility.yul\":6198:6273   */\n      swap1\n      jump\t// out\n        /* \"#utility.yul\":6279:6587   */\n    tag_121:\n        /* \"#utility.yul\":6341:6345   */\n      0x00\n        /* \"#utility.yul\":6431:6449   */\n      0xffffffffffffffff\n        /* \"#utility.yul\":6423:6429   */\n      dup3\n        /* \"#utility.yul\":6420:6450   */\n      gt\n        /* \"#utility.yul\":6417:6473   */\n      iszero\n      tag_218\n      jumpi\n        /* \"#utility.yul\":6453:6471   */\n      tag_219\n      tag_220\n      jump\t// in\n    tag_219:\n        /* \"#utility.yul\":6417:6473   */\n    tag_218:\n        /* \"#utility.yul\":6491:6520   */\n      tag_221\n        /* \"#utility.yul\":6513:6519   */\n      dup3\n        /* \"#utility.yul\":6491:6520   */\n      tag_180\n      jump\t// in\n    tag_221:\n        /* \"#utility.yul\":6483:6520   */\n      swap1\n      pop\n        /* \"#utility.yul\":6575:6579   */\n      0x20\n        /* \"#utility.yul\":6569:6573   */\n      dup2\n        /* \"#utility.yul\":6565:6580   */\n      add\n        /* \"#utility.yul\":6557:6580   */\n      swap1\n      pop\n        /* \"#utility.yul\":6279:6587   */\n      swap2\n      swap1\n      pop\n      jump\t// out\n        /* \"#utility.yul\":6593:6734   */\n    tag_195:\n        /* \"#utility.yul\":6642:6646   */\n      0x00\n        /* \"#utility.yul\":6665:6668   */\n      dup2\n        /* \"#utility.yul\":6657:6668   */\n      swap1\n      pop\n        /* \"#utility.yul\":6688:6691   */\n      dup2\n        /* \"#utility.yul\":6685:6686   */\n      0x00\n        /* \"#utility.yul\":6678:6692   */\n      mstore\n        /* \"#utility.yul\":6722:6726   */\n      0x20\n        /* \"#utility.yul\":6719:6720   */\n      0x00\n        /* \"#utility.yul\":6709:6727   */\n      keccak256\n        /* \"#utility.yul\":6701:6727   */\n      swap1\n      pop\n        /* \"#utility.yul\":6593:6734   */\n      swap2\n      swap1\n      pop\n      jump\t// out\n        /* \"#utility.yul\":6740:6839   */\n    tag_174:\n        /* \"#utility.yul\":6792:6798   */\n      0x00\n        /* \"#utility.yul\":6826:6831   */\n      dup2\n        /* \"#utility.yul\":6820:6832   */\n      mload\n        /* \"#utility.yul\":6810:6832   */\n      swap1\n      pop\n        /* \"#utility.yul\":6740:6839   */\n      swap2\n      swap1\n      pop\n      jump\t// out\n        /* \"#utility.yul\":6845:7014   */\n    tag_176:\n        /* \"#utility.yul\":6929:6940   */\n      0x00\n        /* \"#utility.yul\":6963:6969   */\n      dup3\n        /* \"#utility.yul\":6958:6961   */\n      dup3\n        /* \"#utility.yul\":6951:6970   */\n      mstore\n        /* \"#utility.yul\":7003:7007   */\n      0x20\n        /* \"#utility.yul\":6998:7001   */\n      dup3\n        /* \"#utility.yul\":6994:7008   */\n      add\n        /* \"#utility.yul\":6979:7008   */\n      swap1\n      pop\n        /* \"#utility.yul\":6845:7014   */\n      swap3\n      swap2\n      pop\n      pop\n      jump\t// out\n        /* \"#utility.yul\":7020:7168   */\n    tag_185:\n        /* \"#utility.yul\":7122:7133   */\n      0x00\n        /* \"#utility.yul\":7159:7162   */\n      dup2\n        /* \"#utility.yul\":7144:7162   */\n      swap1\n      pop\n        /* \"#utility.yul\":7020:7168   */\n      swap3\n      swap2\n      pop\n      pop\n      jump\t// out\n        /* \"#utility.yul\":7174:7270   */\n    tag_226:\n        /* \"#utility.yul\":7211:7218   */\n      0x00\n        /* \"#utility.yul\":7240:7264   */\n      tag_228\n        /* \"#utility.yul\":7258:7263   */\n      dup3\n        /* \"#utility.yul\":7240:7264   */\n      tag_229\n      jump\t// in\n    tag_228:\n        /* \"#utility.yul\":7229:7264   */\n      swap1\n      pop\n        /* \"#utility.yul\":7174:7270   */\n      swap2\n      swap1\n      pop\n      jump\t// out\n        /* \"#utility.yul\":7276:7366   */\n    tag_230:\n        /* \"#utility.yul\":7310:7317   */\n      0x00\n        /* \"#utility.yul\":7353:7358   */\n      dup2\n        /* \"#utility.yul\":7346:7359   */\n      iszero\n        /* \"#utility.yul\":7339:7360   */\n      iszero\n        /* \"#utility.yul\":7328:7360   */\n      swap1\n      pop\n        /* \"#utility.yul\":7276:7366   */\n      swap2\n      swap1\n      pop\n      jump\t// out\n        /* \"#utility.yul\":7372:7498   */\n    tag_229:\n        /* \"#utility.yul\":7409:7416   */\n      0x00\n        /* \"#utility.yul\":7449:7491   */\n      0xffffffffffffffffffffffffffffffffffffffff\n        /* \"#utility.yul\":7442:7447   */\n      dup3\n        /* \"#utility.yul\":7438:7492   */\n      and\n        /* \"#utility.yul\":7427:7492   */\n      swap1\n      pop\n        /* \"#utility.yul\":7372:7498   */\n      swap2\n      swap1\n      pop\n      jump\t// out\n        /* \"#utility.yul\":7504:7581   */\n    tag_202:\n        /* \"#utility.yul\":7541:7548   */\n      0x00\n        /* \"#utility.yul\":7570:7575   */\n      dup2\n        /* \"#utility.yul\":7559:7575   */\n      swap1\n      pop\n        /* \"#utility.yul\":7504:7581   */\n      swap2\n      swap1\n      pop\n      jump\t// out\n        /* \"#utility.yul\":7587:7741   */\n    tag_127:\n        /* \"#utility.yul\":7671:7677   */\n      dup3\n        /* \"#utility.yul\":7666:7669   */\n      dup2\n        /* \"#utility.yul\":7661:7664   */\n      dup4\n        /* \"#utility.yul\":7648:7678   */\n      calldatacopy\n        /* \"#utility.yul\":7733:7734   */\n      0x00\n        /* \"#utility.yul\":7724:7730   */\n      dup4\n        /* \"#utility.yul\":7719:7722   */\n      dup4\n        /* \"#utility.yul\":7715:7731   */\n      add\n        /* \"#utility.yul\":7708:7735   */\n      mstore\n        /* \"#utility.yul\":7587:7741   */\n      pop\n      pop\n      pop\n      jump\t// out\n        /* \"#utility.yul\":7747:8054   */\n    tag_178:\n        /* \"#utility.yul\":7815:7816   */\n      0x00\n        /* \"#utility.yul\":7825:7938   */\n    tag_236:\n        /* \"#utility.yul\":7839:7845   */\n      dup4\n        /* \"#utility.yul\":7836:7837   */\n      dup2\n        /* \"#utility.yul\":7833:7846   */\n      lt\n        /* \"#utility.yul\":7825:7938   */\n      iszero\n      tag_238\n      jumpi\n        /* \"#utility.yul\":7924:7925   */\n      dup1\n        /* \"#utility.yul\":7919:7922   */\n      dup3\n        /* \"#utility.yul\":7915:7926   */\n      add\n        /* \"#utility.yul\":7909:7927   */\n      mload\n        /* \"#utility.yul\":7905:7906   */\n      dup2\n        /* \"#utility.yul\":7900:7903   */\n      dup5\n        /* \"#utility.yul\":7896:7907   */\n      add\n        /* \"#utility.yul\":7889:7928   */\n      mstore\n        /* \"#utility.yul\":7861:7863   */\n      0x20\n        /* \"#utility.yul\":7858:7859   */\n      dup2\n        /* \"#utility.yul\":7854:7864   */\n      add\n        /* \"#utility.yul\":7849:7864   */\n      swap1\n      pop\n        /* \"#utility.yul\":7825:7938   */\n      jump(tag_236)\n    tag_238:\n        /* \"#utility.yul\":7956:7962   */\n      dup4\n        /* \"#utility.yul\":7953:7954   */\n      dup2\n        /* \"#utility.yul\":7950:7963   */\n      gt\n        /* \"#utility.yul\":7947:8048   */\n      iszero\n      tag_239\n      jumpi\n        /* \"#utility.yul\":8036:8037   */\n      0x00\n        /* \"#utility.yul\":8027:8033   */\n      dup5\n        /* \"#utility.yul\":8022:8025   */\n      dup5\n        /* \"#utility.yul\":8018:8034   */\n      add\n        /* \"#utility.yul\":8011:8038   */\n      mstore\n        /* \"#utility.yul\":7947:8048   */\n    tag_239:\n        /* \"#utility.yul\":7796:8054   */\n      pop\n        /* \"#utility.yul\":7747:8054   */\n      pop\n      pop\n      pop\n      jump\t// out\n        /* \"#utility.yul\":8060:8380   */\n    tag_57:\n        /* \"#utility.yul\":8104:8110   */\n      0x00\n        /* \"#utility.yul\":8141:8142   */\n      0x02\n        /* \"#utility.yul\":8135:8139   */\n      dup3\n        /* \"#utility.yul\":8131:8143   */\n      div\n        /* \"#utility.yul\":8121:8143   */\n      swap1\n      pop\n        /* \"#utility.yul\":8188:8189   */\n      0x01\n        /* \"#utility.yul\":8182:8186   */\n      dup3\n        /* \"#utility.yul\":8178:8190   */\n      and\n        /* \"#utility.yul\":8209:8227   */\n      dup1\n        /* \"#utility.yul\":8199:8280   */\n      tag_241\n      jumpi\n        /* \"#utility.yul\":8265:8269   */\n      0x7f\n        /* \"#utility.yul\":8257:8263   */\n      dup3\n        /* \"#utility.yul\":8253:8270   */\n      and\n        /* \"#utility.yul\":8243:8270   */\n      swap2\n      pop\n        /* \"#utility.yul\":8199:8280   */\n    tag_241:\n        /* \"#utility.yul\":8327:8329   */\n      0x20\n        /* \"#utility.yul\":8319:8325   */\n      dup3\n        /* \"#utility.yul\":8316:8330   */\n      lt\n        /* \"#utility.yul\":8296:8314   */\n      dup2\n        /* \"#utility.yul\":8293:8331   */\n      eq\n        /* \"#utility.yul\":8290:8374   */\n      iszero\n      tag_242\n      jumpi\n        /* \"#utility.yul\":8346:8364   */\n      tag_243\n      tag_244\n      jump\t// in\n    tag_243:\n        /* \"#utility.yul\":8290:8374   */\n    tag_242:\n        /* \"#utility.yul\":8111:8380   */\n      pop\n        /* \"#utility.yul\":8060:8380   */\n      swap2\n      swap1\n      pop\n      jump\t// out\n        /* \"#utility.yul\":8386:8667   */\n    tag_215:\n        /* \"#utility.yul\":8469:8496   */\n      tag_246\n        /* \"#utility.yul\":8491:8495   */\n      dup3\n        /* \"#utility.yul\":8469:8496   */\n      tag_180\n      jump\t// in\n    tag_246:\n        /* \"#utility.yul\":8461:8467   */\n      dup2\n        /* \"#utility.yul\":8457:8497   */\n      add\n        /* \"#utility.yul\":8599:8605   */\n      dup2\n        /* \"#utility.yul\":8587:8597   */\n      dup2\n        /* \"#utility.yul\":8584:8606   */\n      lt\n        /* \"#utility.yul\":8563:8581   */\n      0xffffffffffffffff\n        /* \"#utility.yul\":8551:8561   */\n      dup3\n        /* \"#utility.yul\":8548:8582   */\n      gt\n        /* \"#utility.yul\":8545:8607   */\n      or\n        /* \"#utility.yul\":8542:8630   */\n      iszero\n      tag_247\n      jumpi\n        /* \"#utility.yul\":8610:8628   */\n      tag_248\n      tag_220\n      jump\t// in\n    tag_248:\n        /* \"#utility.yul\":8542:8630   */\n    tag_247:\n        /* \"#utility.yul\":8650:8660   */\n      dup1\n        /* \"#utility.yul\":8646:8648   */\n      0x40\n        /* \"#utility.yul\":8639:8661   */\n      mstore\n        /* \"#utility.yul\":8429:8667   */\n      pop\n        /* \"#utility.yul\":8386:8667   */\n      pop\n      pop\n      jump\t// out\n        /* \"#utility.yul\":8673:8853   */\n    tag_80:\n        /* \"#utility.yul\":8721:8798   */\n      0x4e487b7100000000000000000000000000000000000000000000000000000000\n        /* \"#utility.yul\":8718:8719   */\n      0x00\n        /* \"#utility.yul\":8711:8799   */\n      mstore\n        /* \"#utility.yul\":8818:8822   */\n      0x21\n        /* \"#utility.yul\":8815:8816   */\n      0x04\n        /* \"#utility.yul\":8808:8823   */\n      mstore\n        /* \"#utility.yul\":8842:8846   */\n      0x24\n        /* \"#utility.yul\":8839:8840   */\n      0x00\n        /* \"#utility.yul\":8832:8847   */\n      revert\n        /* \"#utility.yul\":8859:9039   */\n    tag_244:\n        /* \"#utility.yul\":8907:8984   */\n      0x4e487b7100000000000000000000000000000000000000000000000000000000\n        /* \"#utility.yul\":8904:8905   */\n      0x00\n        /* \"#utility.yul\":8897:8985   */\n      mstore\n        /* \"#utility.yul\":9004:9008   */\n      0x22\n        /* \"#utility.yul\":9001:9002   */\n      0x04\n        /* \"#utility.yul\":8994:9009   */\n      mstore\n        /* \"#utility.yul\":9028:9032   */\n      0x24\n        /* \"#utility.yul\":9025:9026   */\n      0x00\n        /* \"#utility.yul\":9018:9033   */\n      revert\n        /* \"#utility.yul\":9045:9225   */\n    tag_220:\n        /* \"#utility.yul\":9093:9170   */\n      0x4e487b7100000000000000000000000000000000000000000000000000000000\n        /* \"#utility.yul\":9090:9091   */\n      0x00\n        /* \"#utility.yul\":9083:9171   */\n      mstore\n        /* \"#utility.yul\":9190:9194   */\n      0x41\n        /* \"#utility.yul\":9187:9188   */\n      0x04\n        /* \"#utility.yul\":9180:9195   */\n      mstore\n        /* \"#utility.yul\":9214:9218   */\n      0x24\n        /* \"#utility.yul\":9211:9212   */\n      0x00\n        /* \"#utility.yul\":9204:9219   */\n      revert\n        /* \"#utility.yul\":9231:9348   */\n    tag_140:\n        /* \"#utility.yul\":9340:9341   */\n      0x00\n        /* \"#utility.yul\":9337:9338   */\n      dup1\n        /* \"#utility.yul\":9330:9342   */\n      revert\n        /* \"#utility.yul\":9354:9471   */\n    tag_125:\n        /* \"#utility.yul\":9463:9464   */\n      0x00\n        /* \"#utility.yul\":9460:9461   */\n      dup1\n        /* \"#utility.yul\":9453:9465   */\n      revert\n        /* \"#utility.yul\":9477:9594   */\n    tag_160:\n        /* \"#utility.yul\":9586:9587   */\n      0x00\n        /* \"#utility.yul\":9583:9584   */\n      dup1\n        /* \"#utility.yul\":9576:9588   */\n      revert\n        /* \"#utility.yul\":9600:9717   */\n    tag_149:\n        /* \"#utility.yul\":9709:9710   */\n      0x00\n        /* \"#utility.yul\":9706:9707   */\n      dup1\n        /* \"#utility.yul\":9699:9711   */\n      revert\n        /* \"#utility.yul\":9723:9825   */\n    tag_180:\n        /* \"#utility.yul\":9764:9770   */\n      0x00\n        /* \"#utility.yul\":9815:9817   */\n      0x1f\n        /* \"#utility.yul\":9811:9818   */\n      not\n        /* \"#utility.yul\":9806:9808   */\n      0x1f\n        /* \"#utility.yul\":9799:9804   */\n      dup4\n        /* \"#utility.yul\":9795:9809   */\n      add\n        /* \"#utility.yul\":9791:9819   */\n      and\n        /* \"#utility.yul\":9781:9819   */\n      swap1\n      pop\n        /* \"#utility.yul\":9723:9825   */\n      swap2\n      swap1\n      pop\n      jump\t// out\n        /* \"#utility.yul\":9831:9953   */\n    tag_131:\n        /* \"#utility.yul\":9904:9928   */\n      tag_258\n        /* \"#utility.yul\":9922:9927   */\n      dup2\n        /* \"#utility.yul\":9904:9928   */\n      tag_226\n      jump\t// in\n    tag_258:\n        /* \"#utility.yul\":9897:9902   */\n      dup2\n        /* \"#utility.yul\":9894:9929   */\n      eq\n        /* \"#utility.yul\":9884:9947   */\n      tag_259\n      jumpi\n        /* \"#utility.yul\":9943:9944   */\n      0x00\n        /* \"#utility.yul\":9940:9941   */\n      dup1\n        /* \"#utility.yul\":9933:9945   */\n      revert\n        /* \"#utility.yul\":9884:9947   */\n    tag_259:\n        /* \"#utility.yul\":9831:9953   */\n      pop\n      jump\t// out\n        /* \"#utility.yul\":9959:10075   */\n    tag_135:\n        /* \"#utility.yul\":10029:10050   */\n      tag_261\n        /* \"#utility.yul\":10044:10049   */\n      dup2\n        /* \"#utility.yul\":10029:10050   */\n      tag_230\n      jump\t// in\n    tag_261:\n        /* \"#utility.yul\":10022:10027   */\n      dup2\n        /* \"#utility.yul\":10019:10051   */\n      eq\n        /* \"#utility.yul\":10009:10069   */\n      tag_262\n      jumpi\n        /* \"#utility.yul\":10065:10066   */\n      0x00\n        /* \"#utility.yul\":10062:10063   */\n      dup1\n        /* \"#utility.yul\":10055:10067   */\n      revert\n        /* \"#utility.yul\":10009:10069   */\n    tag_262:\n        /* \"#utility.yul\":9959:10075   */\n      pop\n      jump\t// out\n        /* \"#utility.yul\":10081:10203   */\n    tag_145:\n        /* \"#utility.yul\":10154:10178   */\n      tag_264\n        /* \"#utility.yul\":10172:10177   */\n      dup2\n        /* \"#utility.yul\":10154:10178   */\n      tag_202\n      jump\t// in\n    tag_264:\n        /* \"#utility.yul\":10147:10152   */\n      dup2\n        /* \"#utility.yul\":10144:10179   */\n      eq\n        /* \"#utility.yul\":10134:10197   */\n      tag_265\n      jumpi\n        /* \"#utility.yul\":10193:10194   */\n      0x00\n        /* \"#utility.yul\":10190:10191   */\n      dup1\n        /* \"#utility.yul\":10183:10195   */\n      revert\n        /* \"#utility.yul\":10134:10197   */\n    tag_265:\n        /* \"#utility.yul\":10081:10203   */\n      pop\n      jump\t// out\n\n    auxdata: 0xa2646970667358221220252a588e271e549343912d52c34a5169c90ac3e3ab345433ca518736134c791f64736f6c63430008070033\n}\n",
				"bytecode": {
					"linkReferences": {},
					"object": "608060405234801561001057600080fd5b50610c7c806100206000396000f3fe608060405234801561001057600080fd5b50600436106100935760003560e01c8063b708ed0c11610066578063b708ed0c1461011c578063bcb22c7814610138578063beec35d714610156578063cadde03514610186578063f3c7aae9146101a257610093565b806305f05b5b146100985780632ae4a2f0146100b457806353eaab32146100d05780639c05230214610100575b600080fd5b6100b260048036038101906100ad919061082d565b6101be565b005b6100ce60048036038101906100c9919061078a565b6101cc565b005b6100ea60048036038101906100e59190610800565b6101fc565b6040516100f79190610993565b60405180910390f35b61011a600480360381019061011591906107b7565b6102a1565b005b61013660048036038101906101319190610800565b610331565b005b61014061039a565b60405161014d91906109b5565b60405180910390f35b610170600480360381019061016b91906107b7565b6103ff565b60405161017d91906109b5565b60405180910390f35b6101a0600480360381019061019b919061082d565b610427565b005b6101bc60048036038101906101b7919061075d565b6104b6565b005b6101c88282610427565b5050565b6101d6600361051a565b6101df57600080fd5b80600160006101000a81548160ff02191690831515021790555050565b606060026000838152602001908152602001600020805461021c90610aec565b80601f016020809104026020016040519081016040528092919081815260200182805461024890610aec565b80156102955780601f1061026a57610100808354040283529160200191610295565b820191906000526020600020905b81548152906001019060200180831161027857829003601f168201915b50505050509050919050565b6102ab600361051a565b6102b457600080fd5b6000816040516020016102c79190610965565b6040516020818303038152906040528051906020012060001c9050816002600083815260200190815260200160002090805190602001906103099291906105cb565b508060038360405161031b9190610965565b9081526020016040518091039020819055505050565b61033b600361051a565b61034457600080fd5b600360026000838152602001908152602001600020604051610366919061097c565b9081526020016040518091039020600090556002600082815260200190815260200160002060006103979190610651565b50565b60008060003373ffffffffffffffffffffffffffffffffffffffff1673ffffffffffffffffffffffffffffffffffffffff16815260200190815260200160002060009054906101000a900460ff1660038111156103fa576103f9610b4f565b5b905090565b60006003826040516104119190610965565b9081526020016040518091039020549050919050565b610431600361051a565b61043a57600080fd5b81600381111561044d5761044c610b4f565b5b6000808373ffffffffffffffffffffffffffffffffffffffff1673ffffffffffffffffffffffffffffffffffffffff16815260200190815260200160002060006101000a81548160ff021916908360038111156104ad576104ac610b4f565b5b02179055505050565b6104c0600361051a565b6104c957600080fd5b6000808273ffffffffffffffffffffffffffffffffffffffff1673ffffffffffffffffffffffffffffffffffffffff16815260200190815260200160002060006101000a81549060ff021916905550565b600080821480156105375750600160009054906101000a900460ff165b1561054557600190506105c6565b600082141580156105b357506000803373ffffffffffffffffffffffffffffffffffffffff1673ffffffffffffffffffffffffffffffffffffffff16815260200190815260200160002060009054906101000a900460ff1660038111156105af576105ae610b4f565b5b8211155b156105c157600190506105c6565b600090505b919050565b8280546105d790610aec565b90600052602060002090601f0160209004810192826105f95760008555610640565b82601f1061061257805160ff1916838001178555610640565b82800160010185558215610640579182015b8281111561063f578251825591602001919060010190610624565b5b50905061064d9190610691565b5090565b50805461065d90610aec565b6000825580601f1061066f575061068e565b601f01602090049060005260206000209081019061068d9190610691565b5b50565b5b808211156106aa576000816000905550600101610692565b5090565b60006106c16106bc846109f5565b6109d0565b9050828152602081018484840111156106dd576106dc610be1565b5b6106e8848285610aaa565b509392505050565b6000813590506106ff81610c01565b92915050565b60008135905061071481610c18565b92915050565b600082601f83011261072f5761072e610bdc565b5b813561073f8482602086016106ae565b91505092915050565b60008135905061075781610c2f565b92915050565b60006020828403121561077357610772610beb565b5b6000610781848285016106f0565b91505092915050565b6000602082840312156107a05761079f610beb565b5b60006107ae84828501610705565b91505092915050565b6000602082840312156107cd576107cc610beb565b5b600082013567ffffffffffffffff8111156107eb576107ea610be6565b5b6107f78482850161071a565b91505092915050565b60006020828403121561081657610815610beb565b5b600061082484828501610748565b91505092915050565b6000806040838503121561084457610843610beb565b5b600061085285828601610748565b9250506020610863858286016106f0565b9150509250929050565b600061087882610a3b565b6108828185610a46565b9350610892818560208601610ab9565b61089b81610bf0565b840191505092915050565b60006108b182610a3b565b6108bb8185610a57565b93506108cb818560208601610ab9565b80840191505092915050565b600081546108e481610aec565b6108ee8186610a57565b94506001821660008114610909576001811461091a5761094d565b60ff1983168652818601935061094d565b61092385610a26565b60005b8381101561094557815481890152600182019150602081019050610926565b838801955050505b50505092915050565b61095f81610aa0565b82525050565b600061097182846108a6565b915081905092915050565b600061098882846108d7565b915081905092915050565b600060208201905081810360008301526109ad818461086d565b905092915050565b60006020820190506109ca6000830184610956565b92915050565b60006109da6109eb565b90506109e68282610b1e565b919050565b6000604051905090565b600067ffffffffffffffff821115610a1057610a0f610bad565b5b610a1982610bf0565b9050602081019050919050565b60008190508160005260206000209050919050565b600081519050919050565b600082825260208201905092915050565b600081905092915050565b6000610a6d82610a80565b9050919050565b60008115159050919050565b600073ffffffffffffffffffffffffffffffffffffffff82169050919050565b6000819050919050565b82818337600083830152505050565b60005b83811015610ad7578082015181840152602081019050610abc565b83811115610ae6576000848401525b50505050565b60006002820490506001821680610b0457607f821691505b60208210811415610b1857610b17610b7e565b5b50919050565b610b2782610bf0565b810181811067ffffffffffffffff82111715610b4657610b45610bad565b5b80604052505050565b7f4e487b7100000000000000000000000000000000000000000000000000000000600052602160045260246000fd5b7f4e487b7100000000000000000000000000000000000000000000000000000000600052602260045260246000fd5b7f4e487b7100000000000000000000000000000000000000000000000000000000600052604160045260246000fd5b600080fd5b600080fd5b600080fd5b600080fd5b6000601f19601f8301169050919050565b610c0a81610a62565b8114610c1557600080fd5b50565b610c2181610a74565b8114610c2c57600080fd5b50565b610c3881610aa0565b8114610c4357600080fd5b5056fea2646970667358221220252a588e271e549343912d52c34a5169c90ac3e3ab345433ca518736134c791f64736f6c63430008070033",
					"opcodes": "PUSH1 0x80 PUSH1 0x40 MSTORE CALLVALUE DUP1 ISZERO PUSH2 0x10 JUMPI PUSH1 0x0 DUP1 REVERT JUMPDEST POP PUSH2 0xC7C DUP1 PUSH2 0x20 PUSH1 0x0 CODECOPY PUSH1 0x0 RETURN INVALID PUSH1 0x80 PUSH1 0x40 MSTORE CALLVALUE DUP1 ISZERO PUSH2 0x10 JUMPI PUSH1 0x0 DUP1 REVERT JUMPDEST POP PUSH1 0x4 CALLDATASIZE LT PUSH2 0x93 JUMPI PUSH1 0x0 CALLDATALOAD PUSH1 0xE0 SHR DUP1 PUSH4 0xB708ED0C GT PUSH2 0x66 JUMPI DUP1 PUSH4 0xB708ED0C EQ PUSH2 0x11C JUMPI DUP1 PUSH4 0xBCB22C78 EQ PUSH2 0x138 JUMPI DUP1 PUSH4 0xBEEC35D7 EQ PUSH2 0x156 JUMPI DUP1 PUSH4 0xCADDE035 EQ PUSH2 0x186 JUMPI DUP1 PUSH4 0xF3C7AAE9 EQ PUSH2 0x1A2 JUMPI PUSH2 0x93 JUMP JUMPDEST DUP1 PUSH4 0x5F05B5B EQ PUSH2 0x98 JUMPI DUP1 PUSH4 0x2AE4A2F0 EQ PUSH2 0xB4 JUMPI DUP1 PUSH4 0x53EAAB32 EQ PUSH2 0xD0 JUMPI DUP1 PUSH4 0x9C052302 EQ PUSH2 0x100 JUMPI JUMPDEST PUSH1 0x0 DUP1 REVERT JUMPDEST PUSH2 0xB2 PUSH1 0x4 DUP1 CALLDATASIZE SUB DUP2 ADD SWAP1 PUSH2 0xAD SWAP2 SWAP1 PUSH2 0x82D JUMP JUMPDEST PUSH2 0x1BE JUMP JUMPDEST STOP JUMPDEST PUSH2 0xCE PUSH1 0x4 DUP1 CALLDATASIZE SUB DUP2 ADD SWAP1 PUSH2 0xC9 SWAP2 SWAP1 PUSH2 0x78A JUMP JUMPDEST PUSH2 0x1CC JUMP JUMPDEST STOP JUMPDEST PUSH2 0xEA PUSH1 0x4 DUP1 CALLDATASIZE SUB DUP2 ADD SWAP1 PUSH2 0xE5 SWAP2 SWAP1 PUSH2 0x800 JUMP JUMPDEST PUSH2 0x1FC JUMP JUMPDEST PUSH1 0x40 MLOAD PUSH2 0xF7 SWAP2 SWAP1 PUSH2 0x993 JUMP JUMPDEST PUSH1 0x40 MLOAD DUP1 SWAP2 SUB SWAP1 RETURN JUMPDEST PUSH2 0x11A PUSH1 0x4 DUP1 CALLDATASIZE SUB DUP2 ADD SWAP1 PUSH2 0x115 SWAP2 SWAP1 PUSH2 0x7B7 JUMP JUMPDEST PUSH2 0x2A1 JUMP JUMPDEST STOP JUMPDEST PUSH2 0x136 PUSH1 0x4 DUP1 CALLDATASIZE SUB DUP2 ADD SWAP1 PUSH2 0x131 SWAP2 SWAP1 PUSH2 0x800 JUMP JUMPDEST PUSH2 0x331 JUMP JUMPDEST STOP JUMPDEST PUSH2 0x140 PUSH2 0x39A JUMP JUMPDEST PUSH1 0x40 MLOAD PUSH2 0x14D SWAP2 SWAP1 PUSH2 0x9B5 JUMP JUMPDEST PUSH1 0x40 MLOAD DUP1 SWAP2 SUB SWAP1 RETURN JUMPDEST PUSH2 0x170 PUSH1 0x4 DUP1 CALLDATASIZE SUB DUP2 ADD SWAP1 PUSH2 0x16B SWAP2 SWAP1 PUSH2 0x7B7 JUMP JUMPDEST PUSH2 0x3FF JUMP JUMPDEST PUSH1 0x40 MLOAD PUSH2 0x17D SWAP2 SWAP1 PUSH2 0x9B5 JUMP JUMPDEST PUSH1 0x40 MLOAD DUP1 SWAP2 SUB SWAP1 RETURN JUMPDEST PUSH2 0x1A0 PUSH1 0x4 DUP1 CALLDATASIZE SUB DUP2 ADD SWAP1 PUSH2 0x19B SWAP2 SWAP1 PUSH2 0x82D JUMP JUMPDEST PUSH2 0x427 JUMP JUMPDEST STOP JUMPDEST PUSH2 0x1BC PUSH1 0x4 DUP1 CALLDATASIZE SUB DUP2 ADD SWAP1 PUSH2 0x1B7 SWAP2 SWAP1 PUSH2 0x75D JUMP JUMPDEST PUSH2 0x4B6 JUMP JUMPDEST STOP JUMPDEST PUSH2 0x1C8 DUP3 DUP3 PUSH2 0x427 JUMP JUMPDEST POP POP JUMP JUMPDEST PUSH2 0x1D6 PUSH1 0x3 PUSH2 0x51A JUMP JUMPDEST PUSH2 0x1DF JUMPI PUSH1 0x0 DUP1 REVERT JUMPDEST DUP1 PUSH1 0x1 PUSH1 0x0 PUSH2 0x100 EXP DUP2 SLOAD DUP2 PUSH1 0xFF MUL NOT AND SWAP1 DUP4 ISZERO ISZERO MUL OR SWAP1 SSTORE POP POP JUMP JUMPDEST PUSH1 0x60 PUSH1 0x2 PUSH1 0x0 DUP4 DUP2 MSTORE PUSH1 0x20 ADD SWAP1 DUP2 MSTORE PUSH1 0x20 ADD PUSH1 0x0 KECCAK256 DUP1 SLOAD PUSH2 0x21C SWAP1 PUSH2 0xAEC JUMP JUMPDEST DUP1 PUSH1 0x1F ADD PUSH1 0x20 DUP1 SWAP2 DIV MUL PUSH1 0x20 ADD PUSH1 0x40 MLOAD SWAP1 DUP2 ADD PUSH1 0x40 MSTORE DUP1 SWAP3 SWAP2 SWAP1 DUP2 DUP2 MSTORE PUSH1 0x20 ADD DUP3 DUP1 SLOAD PUSH2 0x248 SWAP1 PUSH2 0xAEC JUMP JUMPDEST DUP1 ISZERO PUSH2 0x295 JUMPI DUP1 PUSH1 0x1F LT PUSH2 0x26A JUMPI PUSH2 0x100 DUP1 DUP4 SLOAD DIV MUL DUP4 MSTORE SWAP2 PUSH1 0x20 ADD SWAP2 PUSH2 0x295 JUMP JUMPDEST DUP3 ADD SWAP2 SWAP1 PUSH1 0x0 MSTORE PUSH1 0x20 PUSH1 0x0 KECCAK256 SWAP1 JUMPDEST DUP2 SLOAD DUP2 MSTORE SWAP1 PUSH1 0x1 ADD SWAP1 PUSH1 0x20 ADD DUP1 DUP4 GT PUSH2 0x278 JUMPI DUP3 SWAP1 SUB PUSH1 0x1F AND DUP3 ADD SWAP2 JUMPDEST POP POP POP POP POP SWAP1 POP SWAP2 SWAP1 POP JUMP JUMPDEST PUSH2 0x2AB PUSH1 0x3 PUSH2 0x51A JUMP JUMPDEST PUSH2 0x2B4 JUMPI PUSH1 0x0 DUP1 REVERT JUMPDEST PUSH1 0x0 DUP2 PUSH1 0x40 MLOAD PUSH1 0x20 ADD PUSH2 0x2C7 SWAP2 SWAP1 PUSH2 0x965 JUMP JUMPDEST PUSH1 0x40 MLOAD PUSH1 0x20 DUP2 DUP4 SUB SUB DUP2 MSTORE SWAP1 PUSH1 0x40 MSTORE DUP1 MLOAD SWAP1 PUSH1 0x20 ADD KECCAK256 PUSH1 0x0 SHR SWAP1 POP DUP2 PUSH1 0x2 PUSH1 0x0 DUP4 DUP2 MSTORE PUSH1 0x20 ADD SWAP1 DUP2 MSTORE PUSH1 0x20 ADD PUSH1 0x0 KECCAK256 SWAP1 DUP1 MLOAD SWAP1 PUSH1 0x20 ADD SWAP1 PUSH2 0x309 SWAP3 SWAP2 SWAP1 PUSH2 0x5CB JUMP JUMPDEST POP DUP1 PUSH1 0x3 DUP4 PUSH1 0x40 MLOAD PUSH2 0x31B SWAP2 SWAP1 PUSH2 0x965 JUMP JUMPDEST SWAP1 DUP2 MSTORE PUSH1 0x20 ADD PUSH1 0x40 MLOAD DUP1 SWAP2 SUB SWAP1 KECCAK256 DUP2 SWAP1 SSTORE POP POP POP JUMP JUMPDEST PUSH2 0x33B PUSH1 0x3 PUSH2 0x51A JUMP JUMPDEST PUSH2 0x344 JUMPI PUSH1 0x0 DUP1 REVERT JUMPDEST PUSH1 0x3 PUSH1 0x2 PUSH1 0x0 DUP4 DUP2 MSTORE PUSH1 0x20 ADD SWAP1 DUP2 MSTORE PUSH1 0x20 ADD PUSH1 0x0 KECCAK256 PUSH1 0x40 MLOAD PUSH2 0x366 SWAP2 SWAP1 PUSH2 0x97C JUMP JUMPDEST SWAP1 DUP2 MSTORE PUSH1 0x20 ADD PUSH1 0x40 MLOAD DUP1 SWAP2 SUB SWAP1 KECCAK256 PUSH1 0x0 SWAP1 SSTORE PUSH1 0x2 PUSH1 0x0 DUP3 DUP2 MSTORE PUSH1 0x20 ADD SWAP1 DUP2 MSTORE PUSH1 0x20 ADD PUSH1 0x0 KECCAK256 PUSH1 0x0 PUSH2 0x397 SWAP2 SWAP1 PUSH2 0x651 JUMP JUMPDEST POP JUMP JUMPDEST PUSH1 0x0 DUP1 PUSH1 0x0 CALLER PUSH20 0xFFFFFFFFFFFFFFFFFFFFFFFFFFFFFFFFFFFFFFFF AND PUSH20 0xFFFFFFFFFFFFFFFFFFFFFFFFFFFFFFFFFFFFFFFF AND DUP2 MSTORE PUSH1 0x20 ADD SWAP1 DUP2 MSTORE PUSH1 0x20 ADD PUSH1 0x0 KECCAK256 PUSH1 0x0 SWAP1 SLOAD SWAP1 PUSH2 0x100 EXP SWAP1 DIV PUSH1 0xFF AND PUSH1 0x3 DUP2 GT ISZERO PUSH2 0x3FA JUMPI PUSH2 0x3F9 PUSH2 0xB4F JUMP JUMPDEST JUMPDEST SWAP1 POP SWAP1 JUMP JUMPDEST PUSH1 0x0 PUSH1 0x3 DUP3 PUSH1 0x40 MLOAD PUSH2 0x411 SWAP2 SWAP1 PUSH2 0x965 JUMP JUMPDEST SWAP1 DUP2 MSTORE PUSH1 0x20 ADD PUSH1 0x40 MLOAD DUP1 SWAP2 SUB SWAP1 KECCAK256 SLOAD SWAP1 POP SWAP2 SWAP1 POP JUMP JUMPDEST PUSH2 0x431 PUSH1 0x3 PUSH2 0x51A JUMP JUMPDEST PUSH2 0x43A JUMPI PUSH1 0x0 DUP1 REVERT JUMPDEST DUP2 PUSH1 0x3 DUP2 GT ISZERO PUSH2 0x44D JUMPI PUSH2 0x44C PUSH2 0xB4F JUMP JUMPDEST JUMPDEST PUSH1 0x0 DUP1 DUP4 PUSH20 0xFFFFFFFFFFFFFFFFFFFFFFFFFFFFFFFFFFFFFFFF AND PUSH20 0xFFFFFFFFFFFFFFFFFFFFFFFFFFFFFFFFFFFFFFFF AND DUP2 MSTORE PUSH1 0x20 ADD SWAP1 DUP2 MSTORE PUSH1 0x20 ADD PUSH1 0x0 KECCAK256 PUSH1 0x0 PUSH2 0x100 EXP DUP2 SLOAD DUP2 PUSH1 0xFF MUL NOT AND SWAP1 DUP4 PUSH1 0x3 DUP2 GT ISZERO PUSH2 0x4AD JUMPI PUSH2 0x4AC PUSH2 0xB4F JUMP JUMPDEST JUMPDEST MUL OR SWAP1 SSTORE POP POP POP JUMP JUMPDEST PUSH2 0x4C0 PUSH1 0x3 PUSH2 0x51A JUMP JUMPDEST PUSH2 0x4C9 JUMPI PUSH1 0x0 DUP1 REVERT JUMPDEST PUSH1 0x0 DUP1 DUP3 PUSH20 0xFFFFFFFFFFFFFFFFFFFFFFFFFFFFFFFFFFFFFFFF AND PUSH20 0xFFFFFFFFFFFFFFFFFFFFFFFFFFFFFFFFFFFFFFFF AND DUP2 MSTORE PUSH1 0x20 ADD SWAP1 DUP2 MSTORE PUSH1 0x20 ADD PUSH1 0x0 KECCAK256 PUSH1 0x0 PUSH2 0x100 EXP DUP2 SLOAD SWAP1 PUSH1 0xFF MUL NOT AND SWAP1 SSTORE POP JUMP JUMPDEST PUSH1 0x0 DUP1 DUP3 EQ DUP1 ISZERO PUSH2 0x537 JUMPI POP PUSH1 0x1 PUSH1 0x0 SWAP1 SLOAD SWAP1 PUSH2 0x100 EXP SWAP1 DIV PUSH1 0xFF AND JUMPDEST ISZERO PUSH2 0x545 JUMPI PUSH1 0x1 SWAP1 POP PUSH2 0x5C6 JUMP JUMPDEST PUSH1 0x0 DUP3 EQ ISZERO DUP1 ISZERO PUSH2 0x5B3 JUMPI POP PUSH1 0x0 DUP1 CALLER PUSH20 0xFFFFFFFFFFFFFFFFFFFFFFFFFFFFFFFFFFFFFFFF AND PUSH20 0xFFFFFFFFFFFFFFFFFFFFFFFFFFFFFFFFFFFFFFFF AND DUP2 MSTORE PUSH1 0x20 ADD SWAP1 DUP2 MSTORE PUSH1 0x20 ADD PUSH1 0x0 KECCAK256 PUSH1 0x0 SWAP1 SLOAD SWAP1 PUSH2 0x100 EXP SWAP1 DIV PUSH1 0xFF AND PUSH1 0x3 DUP2 GT ISZERO PUSH2 0x5AF JUMPI PUSH2 0x5AE PUSH2 0xB4F JUMP JUMPDEST JUMPDEST DUP3 GT ISZERO JUMPDEST ISZERO PUSH2 0x5C1 JUMPI PUSH1 0x1 SWAP1 POP PUSH2 0x5C6 JUMP JUMPDEST PUSH1 0x0 SWAP1 POP JUMPDEST SWAP2 SWAP1 POP JUMP JUMPDEST DUP3 DUP1 SLOAD PUSH2 0x5D7 SWAP1 PUSH2 0xAEC JUMP JUMPDEST SWAP1 PUSH1 0x0 MSTORE PUSH1 0x20 PUSH1 0x0 KECCAK256 SWAP1 PUSH1 0x1F ADD PUSH1 0x20 SWAP1 DIV DUP2 ADD SWAP3 DUP3 PUSH2 0x5F9 JUMPI PUSH1 0x0 DUP6 SSTORE PUSH2 0x640 JUMP JUMPDEST DUP3 PUSH1 0x1F LT PUSH2 0x612 JUMPI DUP1 MLOAD PUSH1 0xFF NOT AND DUP4 DUP1 ADD OR DUP6 SSTORE PUSH2 0x640 JUMP JUMPDEST DUP3 DUP1 ADD PUSH1 0x1 ADD DUP6 SSTORE DUP3 ISZERO PUSH2 0x640 JUMPI SWAP2 DUP3 ADD JUMPDEST DUP3 DUP2 GT ISZERO PUSH2 0x63F JUMPI DUP3 MLOAD DUP3 SSTORE SWAP2 PUSH1 0x20 ADD SWAP2 SWAP1 PUSH1 0x1 ADD SWAP1 PUSH2 0x624 JUMP JUMPDEST JUMPDEST POP SWAP1 POP PUSH2 0x64D SWAP2 SWAP1 PUSH2 0x691 JUMP JUMPDEST POP SWAP1 JUMP JUMPDEST POP DUP1 SLOAD PUSH2 0x65D SWAP1 PUSH2 0xAEC JUMP JUMPDEST PUSH1 0x0 DUP3 SSTORE DUP1 PUSH1 0x1F LT PUSH2 0x66F JUMPI POP PUSH2 0x68E JUMP JUMPDEST PUSH1 0x1F ADD PUSH1 0x20 SWAP1 DIV SWAP1 PUSH1 0x0 MSTORE PUSH1 0x20 PUSH1 0x0 KECCAK256 SWAP1 DUP2 ADD SWAP1 PUSH2 0x68D SWAP2 SWAP1 PUSH2 0x691 JUMP JUMPDEST JUMPDEST POP JUMP JUMPDEST JUMPDEST DUP1 DUP3 GT ISZERO PUSH2 0x6AA JUMPI PUSH1 0x0 DUP2 PUSH1 0x0 SWAP1 SSTORE POP PUSH1 0x1 ADD PUSH2 0x692 JUMP JUMPDEST POP SWAP1 JUMP JUMPDEST PUSH1 0x0 PUSH2 0x6C1 PUSH2 0x6BC DUP5 PUSH2 0x9F5 JUMP JUMPDEST PUSH2 0x9D0 JUMP JUMPDEST SWAP1 POP DUP3 DUP2 MSTORE PUSH1 0x20 DUP2 ADD DUP5 DUP5 DUP5 ADD GT ISZERO PUSH2 0x6DD JUMPI PUSH2 0x6DC PUSH2 0xBE1 JUMP JUMPDEST JUMPDEST PUSH2 0x6E8 DUP5 DUP3 DUP6 PUSH2 0xAAA JUMP JUMPDEST POP SWAP4 SWAP3 POP POP POP JUMP JUMPDEST PUSH1 0x0 DUP2 CALLDATALOAD SWAP1 POP PUSH2 0x6FF DUP2 PUSH2 0xC01 JUMP JUMPDEST SWAP3 SWAP2 POP POP JUMP JUMPDEST PUSH1 0x0 DUP2 CALLDATALOAD SWAP1 POP PUSH2 0x714 DUP2 PUSH2 0xC18 JUMP JUMPDEST SWAP3 SWAP2 POP POP JUMP JUMPDEST PUSH1 0x0 DUP3 PUSH1 0x1F DUP4 ADD SLT PUSH2 0x72F JUMPI PUSH2 0x72E PUSH2 0xBDC JUMP JUMPDEST JUMPDEST DUP2 CALLDATALOAD PUSH2 0x73F DUP5 DUP3 PUSH1 0x20 DUP7 ADD PUSH2 0x6AE JUMP JUMPDEST SWAP2 POP POP SWAP3 SWAP2 POP POP JUMP JUMPDEST PUSH1 0x0 DUP2 CALLDATALOAD SWAP1 POP PUSH2 0x757 DUP2 PUSH2 0xC2F JUMP JUMPDEST SWAP3 SWAP2 POP POP JUMP JUMPDEST PUSH1 0x0 PUSH1 0x20 DUP3 DUP5 SUB SLT ISZERO PUSH2 0x773 JUMPI PUSH2 0x772 PUSH2 0xBEB JUMP JUMPDEST JUMPDEST PUSH1 0x0 PUSH2 0x781 DUP5 DUP3 DUP6 ADD PUSH2 0x6F0 JUMP JUMPDEST SWAP2 POP POP SWAP3 SWAP2 POP POP JUMP JUMPDEST PUSH1 0x0 PUSH1 0x20 DUP3 DUP5 SUB SLT ISZERO PUSH2 0x7A0 JUMPI PUSH2 0x79F PUSH2 0xBEB JUMP JUMPDEST JUMPDEST PUSH1 0x0 PUSH2 0x7AE DUP5 DUP3 DUP6 ADD PUSH2 0x705 JUMP JUMPDEST SWAP2 POP POP SWAP3 SWAP2 POP POP JUMP JUMPDEST PUSH1 0x0 PUSH1 0x20 DUP3 DUP5 SUB SLT ISZERO PUSH2 0x7CD JUMPI PUSH2 0x7CC PUSH2 0xBEB JUMP JUMPDEST JUMPDEST PUSH1 0x0 DUP3 ADD CALLDATALOAD PUSH8 0xFFFFFFFFFFFFFFFF DUP2 GT ISZERO PUSH2 0x7EB JUMPI PUSH2 0x7EA PUSH2 0xBE6 JUMP JUMPDEST JUMPDEST PUSH2 0x7F7 DUP5 DUP3 DUP6 ADD PUSH2 0x71A JUMP JUMPDEST SWAP2 POP POP SWAP3 SWAP2 POP POP JUMP JUMPDEST PUSH1 0x0 PUSH1 0x20 DUP3 DUP5 SUB SLT ISZERO PUSH2 0x816 JUMPI PUSH2 0x815 PUSH2 0xBEB JUMP JUMPDEST JUMPDEST PUSH1 0x0 PUSH2 0x824 DUP5 DUP3 DUP6 ADD PUSH2 0x748 JUMP JUMPDEST SWAP2 POP POP SWAP3 SWAP2 POP POP JUMP JUMPDEST PUSH1 0x0 DUP1 PUSH1 0x40 DUP4 DUP6 SUB SLT ISZERO PUSH2 0x844 JUMPI PUSH2 0x843 PUSH2 0xBEB JUMP JUMPDEST JUMPDEST PUSH1 0x0 PUSH2 0x852 DUP6 DUP3 DUP7 ADD PUSH2 0x748 JUMP JUMPDEST SWAP3 POP POP PUSH1 0x20 PUSH2 0x863 DUP6 DUP3 DUP7 ADD PUSH2 0x6F0 JUMP JUMPDEST SWAP2 POP POP SWAP3 POP SWAP3 SWAP1 POP JUMP JUMPDEST PUSH1 0x0 PUSH2 0x878 DUP3 PUSH2 0xA3B JUMP JUMPDEST PUSH2 0x882 DUP2 DUP6 PUSH2 0xA46 JUMP JUMPDEST SWAP4 POP PUSH2 0x892 DUP2 DUP6 PUSH1 0x20 DUP7 ADD PUSH2 0xAB9 JUMP JUMPDEST PUSH2 0x89B DUP2 PUSH2 0xBF0 JUMP JUMPDEST DUP5 ADD SWAP2 POP POP SWAP3 SWAP2 POP POP JUMP JUMPDEST PUSH1 0x0 PUSH2 0x8B1 DUP3 PUSH2 0xA3B JUMP JUMPDEST PUSH2 0x8BB DUP2 DUP6 PUSH2 0xA57 JUMP JUMPDEST SWAP4 POP PUSH2 0x8CB DUP2 DUP6 PUSH1 0x20 DUP7 ADD PUSH2 0xAB9 JUMP JUMPDEST DUP1 DUP5 ADD SWAP2 POP POP SWAP3 SWAP2 POP POP JUMP JUMPDEST PUSH1 0x0 DUP2 SLOAD PUSH2 0x8E4 DUP2 PUSH2 0xAEC JUMP JUMPDEST PUSH2 0x8EE DUP2 DUP7 PUSH2 0xA57 JUMP JUMPDEST SWAP5 POP PUSH1 0x1 DUP3 AND PUSH1 0x0 DUP2 EQ PUSH2 0x909 JUMPI PUSH1 0x1 DUP2 EQ PUSH2 0x91A JUMPI PUSH2 0x94D JUMP JUMPDEST PUSH1 0xFF NOT DUP4 AND DUP7 MSTORE DUP2 DUP7 ADD SWAP4 POP PUSH2 0x94D JUMP JUMPDEST PUSH2 0x923 DUP6 PUSH2 0xA26 JUMP JUMPDEST PUSH1 0x0 JUMPDEST DUP4 DUP2 LT ISZERO PUSH2 0x945 JUMPI DUP2 SLOAD DUP2 DUP10 ADD MSTORE PUSH1 0x1 DUP3 ADD SWAP2 POP PUSH1 0x20 DUP2 ADD SWAP1 POP PUSH2 0x926 JUMP JUMPDEST DUP4 DUP9 ADD SWAP6 POP POP POP JUMPDEST POP POP POP SWAP3 SWAP2 POP POP JUMP JUMPDEST PUSH2 0x95F DUP2 PUSH2 0xAA0 JUMP JUMPDEST DUP3 MSTORE POP POP JUMP JUMPDEST PUSH1 0x0 PUSH2 0x971 DUP3 DUP5 PUSH2 0x8A6 JUMP JUMPDEST SWAP2 POP DUP2 SWAP1 POP SWAP3 SWAP2 POP POP JUMP JUMPDEST PUSH1 0x0 PUSH2 0x988 DUP3 DUP5 PUSH2 0x8D7 JUMP JUMPDEST SWAP2 POP DUP2 SWAP1 POP SWAP3 SWAP2 POP POP JUMP JUMPDEST PUSH1 0x0 PUSH1 0x20 DUP3 ADD SWAP1 POP DUP2 DUP2 SUB PUSH1 0x0 DUP4 ADD MSTORE PUSH2 0x9AD DUP2 DUP5 PUSH2 0x86D JUMP JUMPDEST SWAP1 POP SWAP3 SWAP2 POP POP JUMP JUMPDEST PUSH1 0x0 PUSH1 0x20 DUP3 ADD SWAP1 POP PUSH2 0x9CA PUSH1 0x0 DUP4 ADD DUP5 PUSH2 0x956 JUMP JUMPDEST SWAP3 SWAP2 POP POP JUMP JUMPDEST PUSH1 0x0 PUSH2 0x9DA PUSH2 0x9EB JUMP JUMPDEST SWAP1 POP PUSH2 0x9E6 DUP3 DUP3 PUSH2 0xB1E JUMP JUMPDEST SWAP2 SWAP1 POP JUMP JUMPDEST PUSH1 0x0 PUSH1 0x40 MLOAD SWAP1 POP SWAP1 JUMP JUMPDEST PUSH1 0x0 PUSH8 0xFFFFFFFFFFFFFFFF DUP3 GT ISZERO PUSH2 0xA10 JUMPI PUSH2 0xA0F PUSH2 0xBAD JUMP JUMPDEST JUMPDEST PUSH2 0xA19 DUP3 PUSH2 0xBF0 JUMP JUMPDEST SWAP1 POP PUSH1 0x20 DUP2 ADD SWAP1 POP SWAP2 SWAP1 POP JUMP JUMPDEST PUSH1 0x0 DUP2 SWAP1 POP DUP2 PUSH1 0x0 MSTORE PUSH1 0x20 PUSH1 0x0 KECCAK256 SWAP1 POP SWAP2 SWAP1 POP JUMP JUMPDEST PUSH1 0x0 DUP2 MLOAD SWAP1 POP SWAP2 SWAP1 POP JUMP JUMPDEST PUSH1 0x0 DUP3 DUP3 MSTORE PUSH1 0x20 DUP3 ADD SWAP1 POP SWAP3 SWAP2 POP POP JUMP JUMPDEST PUSH1 0x0 DUP2 SWAP1 POP SWAP3 SWAP2 POP POP JUMP JUMPDEST PUSH1 0x0 PUSH2 0xA6D DUP3 PUSH2 0xA80 JUMP JUMPDEST SWAP1 POP SWAP2 SWAP1 POP JUMP JUMPDEST PUSH1 0x0 DUP2 ISZERO ISZERO SWAP1 POP SWAP2 SWAP1 POP JUMP JUMPDEST PUSH1 0x0 PUSH20 0xFFFFFFFFFFFFFFFFFFFFFFFFFFFFFFFFFFFFFFFF DUP3 AND SWAP1 POP SWAP2 SWAP1 POP JUMP JUMPDEST PUSH1 0x0 DUP2 SWAP1 POP SWAP2 SWAP1 POP JUMP JUMPDEST DUP3 DUP2 DUP4 CALLDATACOPY PUSH1 0x0 DUP4 DUP4 ADD MSTORE POP POP POP JUMP JUMPDEST PUSH1 0x0 JUMPDEST DUP4 DUP2 LT ISZERO PUSH2 0xAD7 JUMPI DUP1 DUP3 ADD MLOAD DUP2 DUP5 ADD MSTORE PUSH1 0x20 DUP2 ADD SWAP1 POP PUSH2 0xABC JUMP JUMPDEST DUP4 DUP2 GT ISZERO PUSH2 0xAE6 JUMPI PUSH1 0x0 DUP5 DUP5 ADD MSTORE JUMPDEST POP POP POP POP JUMP JUMPDEST PUSH1 0x0 PUSH1 0x2 DUP3 DIV SWAP1 POP PUSH1 0x1 DUP3 AND DUP1 PUSH2 0xB04 JUMPI PUSH1 0x7F DUP3 AND SWAP2 POP JUMPDEST PUSH1 0x20 DUP3 LT DUP2 EQ ISZERO PUSH2 0xB18 JUMPI PUSH2 0xB17 PUSH2 0xB7E JUMP JUMPDEST JUMPDEST POP SWAP2 SWAP1 POP JUMP JUMPDEST PUSH2 0xB27 DUP3 PUSH2 0xBF0 JUMP JUMPDEST DUP2 ADD DUP2 DUP2 LT PUSH8 0xFFFFFFFFFFFFFFFF DUP3 GT OR ISZERO PUSH2 0xB46 JUMPI PUSH2 0xB45 PUSH2 0xBAD JUMP JUMPDEST JUMPDEST DUP1 PUSH1 0x40 MSTORE POP POP POP JUMP JUMPDEST PUSH32 0x4E487B7100000000000000000000000000000000000000000000000000000000 PUSH1 0x0 MSTORE PUSH1 0x21 PUSH1 0x4 MSTORE PUSH1 0x24 PUSH1 0x0 REVERT JUMPDEST PUSH32 0x4E487B7100000000000000000000000000000000000000000000000000000000 PUSH1 0x0 MSTORE PUSH1 0x22 PUSH1 0x4 MSTORE PUSH1 0x24 PUSH1 0x0 REVERT JUMPDEST PUSH32 0x4E487B7100000000000000000000000000000000000000000000000000000000 PUSH1 0x0 MSTORE PUSH1 0x41 PUSH1 0x4 MSTORE PUSH1 0x24 PUSH1 0x0 REVERT JUMPDEST PUSH1 0x0 DUP1 REVERT JUMPDEST PUSH1 0x0 DUP1 REVERT JUMPDEST PUSH1 0x0 DUP1 REVERT JUMPDEST PUSH1 0x0 DUP1 REVERT JUMPDEST PUSH1 0x0 PUSH1 0x1F NOT PUSH1 0x1F DUP4 ADD AND SWAP1 POP SWAP2 SWAP1 POP JUMP JUMPDEST PUSH2 0xC0A DUP2 PUSH2 0xA62 JUMP JUMPDEST DUP2 EQ PUSH2 0xC15 JUMPI PUSH1 0x0 DUP1 REVERT JUMPDEST POP JUMP JUMPDEST PUSH2 0xC21 DUP2 PUSH2 0xA74 JUMP JUMPDEST DUP2 EQ PUSH2 0xC2C JUMPI PUSH1 0x0 DUP1 REVERT JUMPDEST POP JUMP JUMPDEST PUSH2 0xC38 DUP2 PUSH2 0xAA0 JUMP JUMPDEST DUP2 EQ PUSH2 0xC43 JUMPI PUSH1 0x0 DUP1 REVERT JUMPDEST POP JUMP INVALID LOG2 PUSH5 0x6970667358 0x22 SLT KECCAK256 0x25 0x2A PC DUP15 0x27 0x1E SLOAD SWAP4 NUMBER SWAP2 0x2D MSTORE 0xC3 0x4A MLOAD PUSH10 0xC90AC3E3AB345433CA51 DUP8 CALLDATASIZE SGT 0x4C PUSH26 0x1F64736F6C634300080700330000000000000000000000000000 "
				},
				"gasEstimates": {
					"creation": {
						"codeDepositCost": "639200",
						"executionCost": "670",
						"totalCost": "639870"
					},
					"external": {
						"addPermisos(uint256,address)": "27528",
						"agregarTipoDeEvento(string)": "infinite",
						"editPublico(bool)": "27133",
						"eliminarTipoDeEvento(uint256)": "infinite",
						"getPermisosStatus()": "2610",
						"hashANombreTipoDeEvento(uint256)": "infinite",
						"modifyPermisos(uint256,address)": "27497",
						"nombreAHashTipoDeEvento(string)": "infinite",
						"popPermisos(address)": "27306"
					}
				},
				"methodIdentifiers": {
					"addPermisos(uint256,address)": "cadde035",
					"agregarTipoDeEvento(string)": "9c052302",
					"editPublico(bool)": "2ae4a2f0",
					"eliminarTipoDeEvento(uint256)": "b708ed0c",
					"getPermisosStatus()": "bcb22c78",
					"hashANombreTipoDeEvento(uint256)": "53eaab32",
					"modifyPermisos(uint256,address)": "05f05b5b",
					"nombreAHashTipoDeEvento(string)": "beec35d7",
					"popPermisos(address)": "f3c7aae9"
				}
			},
			"storageLayout": {
				"storage": [
					{
						"astId": 217,
						"contract": "Opciones/Eventos/Gestion_De_Eventos.sol:gestion_de_eventos",
						"label": "usuarios",
						"offset": 0,
						"slot": "0",
						"type": "t_mapping(t_address,t_enum(roles)200)"
					},
					{
						"astId": 219,
						"contract": "Opciones/Eventos/Gestion_De_Eventos.sol:gestion_de_eventos",
						"label": "publico",
						"offset": 0,
						"slot": "1",
						"type": "t_bool"
					},
					{
						"astId": 101,
						"contract": "Opciones/Eventos/Gestion_De_Eventos.sol:gestion_de_eventos",
						"label": "eventos",
						"offset": 0,
						"slot": "2",
						"type": "t_mapping(t_uint256,t_string_storage)"
					},
					{
						"astId": 105,
						"contract": "Opciones/Eventos/Gestion_De_Eventos.sol:gestion_de_eventos",
						"label": "evento_rev",
						"offset": 0,
						"slot": "3",
						"type": "t_mapping(t_string_memory_ptr,t_uint256)"
					}
				],
				"types": {
					"t_address": {
						"encoding": "inplace",
						"label": "address",
						"numberOfBytes": "20"
					},
					"t_bool": {
						"encoding": "inplace",
						"label": "bool",
						"numberOfBytes": "1"
					},
					"t_enum(roles)200": {
						"encoding": "inplace",
						"label": "enum permisos.roles",
						"numberOfBytes": "1"
					},
					"t_mapping(t_address,t_enum(roles)200)": {
						"encoding": "mapping",
						"key": "t_address",
						"label": "mapping(address => enum permisos.roles)",
						"numberOfBytes": "32",
						"value": "t_enum(roles)200"
					},
					"t_mapping(t_string_memory_ptr,t_uint256)": {
						"encoding": "mapping",
						"key": "t_string_memory_ptr",
						"label": "mapping(string => uint256)",
						"numberOfBytes": "32",
						"value": "t_uint256"
					},
					"t_mapping(t_uint256,t_string_storage)": {
						"encoding": "mapping",
						"key": "t_uint256",
						"label": "mapping(uint256 => string)",
						"numberOfBytes": "32",
						"value": "t_string_storage"
					},
					"t_string_memory_ptr": {
						"encoding": "bytes",
						"label": "string",
						"numberOfBytes": "32"
					},
					"t_string_storage": {
						"encoding": "bytes",
						"label": "string",
						"numberOfBytes": "32"
					},
					"t_uint256": {
						"encoding": "inplace",
						"label": "uint256",
						"numberOfBytes": "32"
					}
				}
			},
			"userdoc": {
				"kind": "user",
				"methods": {},
				"version": 1
			}
		}
	}
}